{
  "_format": "hh-sol-artifact-1",
  "contractName": "MedSafe",
  "sourceName": "contracts/MedSafe.sol",
  "abi": [
    {
      "inputs": [],
      "stateMutability": "nonpayable",
      "type": "constructor"
    },
    {
      "anonymous": false,
      "inputs": [
        {
          "indexed": false,
          "internalType": "uint256",
          "name": "timestamp",
          "type": "uint256"
        },
        {
          "indexed": false,
          "internalType": "string",
          "name": "diagnosis",
          "type": "string"
        },
        {
          "indexed": false,
          "internalType": "string",
          "name": "treatment",
          "type": "string"
        },
        {
          "indexed": false,
          "internalType": "string",
          "name": "physicianId",
          "type": "string"
        }
      ],
      "name": "MedicalRecord_Saved",
      "type": "event"
    },
    {
      "anonymous": false,
      "inputs": [
        {
          "indexed": false,
          "internalType": "string",
          "name": "firstName",
          "type": "string"
        },
        {
          "indexed": false,
          "internalType": "string",
          "name": "lastName",
          "type": "string"
        },
        {
          "indexed": false,
          "internalType": "string",
          "name": "gender",
          "type": "string"
        },
        {
          "indexed": false,
          "internalType": "string",
          "name": "dateOfBirth",
          "type": "string"
        },
        {
          "indexed": false,
          "internalType": "string",
          "name": "contactAddress",
          "type": "string"
        },
        {
          "indexed": false,
          "internalType": "string",
          "name": "contactPhoneNumber",
          "type": "string"
        },
        {
          "indexed": false,
          "internalType": "string",
          "name": "emergencyContactName",
          "type": "string"
        },
        {
          "indexed": false,
          "internalType": "string",
          "name": "emergencyContactAddress",
          "type": "string"
        },
        {
          "indexed": false,
          "internalType": "string",
          "name": "emergencyContactPhone",
          "type": "string"
        }
      ],
      "name": "Patient_Saved",
      "type": "event"
    },
    {
      "anonymous": false,
      "inputs": [
        {
          "indexed": false,
          "internalType": "string",
          "name": "firstName",
          "type": "string"
        },
        {
          "indexed": false,
          "internalType": "string",
          "name": "lastName",
          "type": "string"
        },
        {
          "indexed": false,
          "internalType": "string",
          "name": "email",
          "type": "string"
        },
        {
          "indexed": false,
          "internalType": "string",
          "name": "gender",
          "type": "string"
        },
        {
          "indexed": false,
          "internalType": "string",
          "name": "specialty",
          "type": "string"
        },
        {
          "indexed": false,
          "internalType": "uint256",
          "name": "timestamp",
          "type": "uint256"
        }
      ],
      "name": "Physician_Saved",
      "type": "event"
    },
    {
      "inputs": [
        {
          "internalType": "string",
          "name": "patientUserId",
          "type": "string"
        },
        {
          "components": [
            {
              "internalType": "uint256",
              "name": "id",
              "type": "uint256"
            },
            {
              "internalType": "uint256",
              "name": "timestamp",
              "type": "uint256"
            },
            {
              "internalType": "string",
              "name": "diagnosis",
              "type": "string"
            },
            {
              "internalType": "string",
              "name": "treatment",
              "type": "string"
            },
            {
              "internalType": "string",
              "name": "physicianId",
              "type": "string"
            }
          ],
          "internalType": "struct MedSafe.MedicalRecord",
          "name": "medicalRecord",
          "type": "tuple"
        }
      ],
      "name": "addMedicalRecords",
      "outputs": [],
      "stateMutability": "nonpayable",
      "type": "function"
    },
    {
      "inputs": [
        {
          "internalType": "string",
          "name": "userId",
          "type": "string"
        },
        {
          "components": [
            {
              "internalType": "string",
              "name": "firstName",
              "type": "string"
            },
            {
              "internalType": "string",
              "name": "lastName",
              "type": "string"
            },
            {
              "internalType": "string",
              "name": "gender",
              "type": "string"
            },
            {
              "internalType": "string",
              "name": "dateOfBirth",
              "type": "string"
            },
            {
              "internalType": "string",
              "name": "contactAddress",
              "type": "string"
            },
            {
              "internalType": "string",
              "name": "contactPhoneNumber",
              "type": "string"
            },
            {
              "internalType": "string",
              "name": "emergencyContactName",
              "type": "string"
            },
            {
              "internalType": "string",
              "name": "emergencyContactAddress",
              "type": "string"
            },
            {
              "internalType": "string",
              "name": "emergencyContactPhone",
              "type": "string"
            }
          ],
          "internalType": "struct MedSafe.PatientProfile",
          "name": "patientData",
          "type": "tuple"
        }
      ],
      "name": "addPatient",
      "outputs": [],
      "stateMutability": "nonpayable",
      "type": "function"
    },
    {
      "inputs": [
        {
          "internalType": "string",
          "name": "userId",
          "type": "string"
        },
        {
          "internalType": "string",
          "name": "firstName",
          "type": "string"
        },
        {
          "internalType": "string",
          "name": "lastName",
          "type": "string"
        },
        {
          "internalType": "string",
          "name": "email",
          "type": "string"
        },
        {
          "internalType": "string",
          "name": "gender",
          "type": "string"
        },
        {
          "internalType": "string",
          "name": "specialty",
          "type": "string"
        }
      ],
      "name": "addPhysician",
      "outputs": [],
      "stateMutability": "nonpayable",
      "type": "function"
    },
    {
      "inputs": [
        {
          "internalType": "address",
          "name": "userAddress",
          "type": "address"
        }
      ],
      "name": "doesUserExist",
      "outputs": [
        {
          "internalType": "bool",
          "name": "",
          "type": "bool"
        }
      ],
      "stateMutability": "view",
      "type": "function"
    },
    {
      "inputs": [],
      "name": "getContractOwner",
      "outputs": [
        {
          "internalType": "address",
          "name": "",
          "type": "address"
        }
      ],
      "stateMutability": "view",
      "type": "function"
    },
    {
      "inputs": [
        {
          "internalType": "string",
          "name": "patientUserId",
          "type": "string"
        }
      ],
      "name": "getPatient",
      "outputs": [
        {
          "components": [
            {
              "internalType": "string",
              "name": "userId",
              "type": "string"
            },
            {
              "components": [
                {
                  "internalType": "string",
                  "name": "firstName",
                  "type": "string"
                },
                {
                  "internalType": "string",
                  "name": "lastName",
                  "type": "string"
                },
                {
                  "internalType": "string",
                  "name": "gender",
                  "type": "string"
                },
                {
                  "internalType": "string",
                  "name": "dateOfBirth",
                  "type": "string"
                },
                {
                  "internalType": "string",
                  "name": "contactAddress",
                  "type": "string"
                },
                {
                  "internalType": "string",
                  "name": "contactPhoneNumber",
                  "type": "string"
                },
                {
                  "internalType": "string",
                  "name": "emergencyContactName",
                  "type": "string"
                },
                {
                  "internalType": "string",
                  "name": "emergencyContactAddress",
                  "type": "string"
                },
                {
                  "internalType": "string",
                  "name": "emergencyContactPhone",
                  "type": "string"
                }
              ],
              "internalType": "struct MedSafe.PatientProfile",
              "name": "profile",
              "type": "tuple"
            },
            {
              "internalType": "uint256",
              "name": "timestamp",
              "type": "uint256"
            }
          ],
          "internalType": "struct MedSafe.Patient",
          "name": "",
          "type": "tuple"
        }
      ],
      "stateMutability": "view",
      "type": "function"
    },
    {
      "inputs": [],
      "name": "getPatientAuthorisedPhysician",
      "outputs": [
        {
          "components": [
            {
              "internalType": "string",
              "name": "userId",
              "type": "string"
            },
            {
              "internalType": "string",
              "name": "firstName",
              "type": "string"
            },
            {
              "internalType": "string",
              "name": "lastName",
              "type": "string"
            },
            {
              "internalType": "string",
              "name": "email",
              "type": "string"
            },
            {
              "internalType": "string",
              "name": "gender",
              "type": "string"
            },
            {
              "internalType": "string",
              "name": "specialty",
              "type": "string"
            },
            {
              "internalType": "uint256",
              "name": "timestamp",
              "type": "uint256"
            }
          ],
          "internalType": "struct MedSafe.Physician",
          "name": "",
          "type": "tuple"
        }
      ],
      "stateMutability": "view",
      "type": "function"
    },
    {
      "inputs": [
        {
          "internalType": "address",
          "name": "patientAddress",
          "type": "address"
        }
      ],
      "name": "getPatientByAddress",
      "outputs": [
        {
          "components": [
            {
              "internalType": "string",
              "name": "userId",
              "type": "string"
            },
            {
              "components": [
                {
                  "internalType": "string",
                  "name": "firstName",
                  "type": "string"
                },
                {
                  "internalType": "string",
                  "name": "lastName",
                  "type": "string"
                },
                {
                  "internalType": "string",
                  "name": "gender",
                  "type": "string"
                },
                {
                  "internalType": "string",
                  "name": "dateOfBirth",
                  "type": "string"
                },
                {
                  "internalType": "string",
                  "name": "contactAddress",
                  "type": "string"
                },
                {
                  "internalType": "string",
                  "name": "contactPhoneNumber",
                  "type": "string"
                },
                {
                  "internalType": "string",
                  "name": "emergencyContactName",
                  "type": "string"
                },
                {
                  "internalType": "string",
                  "name": "emergencyContactAddress",
                  "type": "string"
                },
                {
                  "internalType": "string",
                  "name": "emergencyContactPhone",
                  "type": "string"
                }
              ],
              "internalType": "struct MedSafe.PatientProfile",
              "name": "profile",
              "type": "tuple"
            },
            {
              "internalType": "uint256",
              "name": "timestamp",
              "type": "uint256"
            }
          ],
          "internalType": "struct MedSafe.Patient",
          "name": "",
          "type": "tuple"
        }
      ],
      "stateMutability": "view",
      "type": "function"
    },
    {
      "inputs": [
        {
          "internalType": "string",
          "name": "patientUserId",
          "type": "string"
        }
      ],
      "name": "getPatientRecords",
      "outputs": [
        {
          "components": [
            {
              "internalType": "uint256",
              "name": "id",
              "type": "uint256"
            },
            {
              "internalType": "uint256",
              "name": "timestamp",
              "type": "uint256"
            },
            {
              "internalType": "string",
              "name": "diagnosis",
              "type": "string"
            },
            {
              "internalType": "string",
              "name": "treatment",
              "type": "string"
            },
            {
              "internalType": "string",
              "name": "physicianId",
              "type": "string"
            }
          ],
          "internalType": "struct MedSafe.MedicalRecord[]",
          "name": "",
          "type": "tuple[]"
        }
      ],
      "stateMutability": "view",
      "type": "function"
    },
    {
      "inputs": [],
      "name": "getPatientsAssignedToPhysician",
      "outputs": [
        {
          "components": [
            {
              "internalType": "string",
              "name": "userId",
              "type": "string"
            },
            {
              "components": [
                {
                  "internalType": "string",
                  "name": "firstName",
                  "type": "string"
                },
                {
                  "internalType": "string",
                  "name": "lastName",
                  "type": "string"
                },
                {
                  "internalType": "string",
                  "name": "gender",
                  "type": "string"
                },
                {
                  "internalType": "string",
                  "name": "dateOfBirth",
                  "type": "string"
                },
                {
                  "internalType": "string",
                  "name": "contactAddress",
                  "type": "string"
                },
                {
                  "internalType": "string",
                  "name": "contactPhoneNumber",
                  "type": "string"
                },
                {
                  "internalType": "string",
                  "name": "emergencyContactName",
                  "type": "string"
                },
                {
                  "internalType": "string",
                  "name": "emergencyContactAddress",
                  "type": "string"
                },
                {
                  "internalType": "string",
                  "name": "emergencyContactPhone",
                  "type": "string"
                }
              ],
              "internalType": "struct MedSafe.PatientProfile",
              "name": "profile",
              "type": "tuple"
            },
            {
              "internalType": "uint256",
              "name": "timestamp",
              "type": "uint256"
            }
          ],
          "internalType": "struct MedSafe.Patient[]",
          "name": "",
          "type": "tuple[]"
        }
      ],
      "stateMutability": "view",
      "type": "function"
    },
    {
      "inputs": [
        {
          "internalType": "string",
          "name": "userId",
          "type": "string"
        }
      ],
      "name": "getPhysician",
      "outputs": [
        {
          "components": [
            {
              "internalType": "string",
              "name": "userId",
              "type": "string"
            },
            {
              "internalType": "string",
              "name": "firstName",
              "type": "string"
            },
            {
              "internalType": "string",
              "name": "lastName",
              "type": "string"
            },
            {
              "internalType": "string",
              "name": "email",
              "type": "string"
            },
            {
              "internalType": "string",
              "name": "gender",
              "type": "string"
            },
            {
              "internalType": "string",
              "name": "specialty",
              "type": "string"
            },
            {
              "internalType": "uint256",
              "name": "timestamp",
              "type": "uint256"
            }
          ],
          "internalType": "struct MedSafe.Physician",
          "name": "",
          "type": "tuple"
        }
      ],
      "stateMutability": "view",
      "type": "function"
    },
    {
      "inputs": [
        {
          "internalType": "address",
          "name": "patientAddress",
          "type": "address"
        }
      ],
      "name": "getPhysicianByAddress",
      "outputs": [
        {
          "components": [
            {
              "internalType": "string",
              "name": "userId",
              "type": "string"
            },
            {
              "internalType": "string",
              "name": "firstName",
              "type": "string"
            },
            {
              "internalType": "string",
              "name": "lastName",
              "type": "string"
            },
            {
              "internalType": "string",
              "name": "email",
              "type": "string"
            },
            {
              "internalType": "string",
              "name": "gender",
              "type": "string"
            },
            {
              "internalType": "string",
              "name": "specialty",
              "type": "string"
            },
            {
              "internalType": "uint256",
              "name": "timestamp",
              "type": "uint256"
            }
          ],
          "internalType": "struct MedSafe.Physician",
          "name": "",
          "type": "tuple"
        }
      ],
      "stateMutability": "view",
      "type": "function"
    },
    {
      "inputs": [
        {
          "internalType": "string",
          "name": "userId",
          "type": "string"
        }
      ],
      "name": "getUserRole",
      "outputs": [
        {
          "internalType": "uint8",
          "name": "",
          "type": "uint8"
        }
      ],
      "stateMutability": "view",
      "type": "function"
    },
    {
      "inputs": [
        {
          "internalType": "string",
          "name": "patientUserId",
          "type": "string"
        },
        {
          "internalType": "string",
          "name": "physicianUserId",
          "type": "string"
        }
      ],
      "name": "setPatientAuthorisedPhysician",
      "outputs": [],
      "stateMutability": "nonpayable",
      "type": "function"
    },
    {
      "inputs": [],
      "name": "unsetPatientAuthorisedPhysician",
      "outputs": [],
      "stateMutability": "nonpayable",
      "type": "function"
    }
  ],
  "bytecode": "0x60806040526001600060146101000a81548160ff021916908360ff1602179055506002600060156101000a81548160ff021916908360ff16021790555034801561004857600080fd5b50336000806101000a81548173ffffffffffffffffffffffffffffffffffffffff021916908373ffffffffffffffffffffffffffffffffffffffff1602179055506153cb806100986000396000f3fe608060405234801561001057600080fd5b50600436106100f55760003560e01c806388650fe011610097578063dd09842211610066578063dd09842214610270578063e79a7a2e1461028e578063ecb41054146102be578063f1729092146102ee576100f5565b806388650fe0146101ea578063ae4bcba214610206578063ba5c033514610222578063c452538614610252576100f5565b80632fced321116100d35780632fced32114610150578063357e129e1461016c578063442890d51461019c5780635cd40af5146101ba576100f5565b80630a76c7b8146100fa5780630a9a38281461012a5780631a0e960814610134575b600080fd5b610114600480360381019061010f9190613d07565b61031e565b6040516101219190613ea7565b60405180910390f35b610132610809565b005b61014e600480360381019061014991906140af565b610af5565b005b61016a60048036038101906101659190614127565b610d16565b005b61018660048036038101906101819190613d07565b610ed4565b60405161019391906141bb565b60405180910390f35b6101a4610f09565b6040516101b19190614217565b60405180910390f35b6101d460048036038101906101cf9190613d07565b610f32565b6040516101e19190614378565b60405180910390f35b61020460048036038101906101ff919061439a565b611396565b005b610220600480360381019061021b91906145db565b61151d565b005b61023c6004803603810190610237919061467f565b611798565b6040516102499190614800565b60405180910390f35b61025a611e70565b604051610267919061493b565b60405180910390f35b61027861281d565b6040516102859190613ea7565b60405180910390f35b6102a860048036038101906102a39190613d07565b612ec3565b6040516102b59190614800565b60405180910390f35b6102d860048036038101906102d3919061467f565b6134ce565b6040516102e59190614978565b60405180910390f35b6103086004803603810190610303919061467f565b613525565b6040516103159190613ea7565b60405180910390f35b610326613aa0565b6000600160003373ffffffffffffffffffffffffffffffffffffffff1673ffffffffffffffffffffffffffffffffffffffff1681526020019081526020016000208054610372906149c2565b80601f016020809104026020016040519081016040528092919081815260200182805461039e906149c2565b80156103eb5780601f106103c0576101008083540402835291602001916103eb565b820191906000526020600020905b8154815290600101906020018083116103ce57829003601f168201915b5050505050905080516006826040516104049190614a2f565b90815260200160405180910390206000018054610420906149c2565b905014610462576040517f08c379a000000000000000000000000000000000000000000000000000000000815260040161045990614aa3565b60405180910390fd5b6006836040516104729190614a2f565b90815260200160405180910390206040518060e001604052908160008201805461049b906149c2565b80601f01602080910402602001604051908101604052809291908181526020018280546104c7906149c2565b80156105145780601f106104e957610100808354040283529160200191610514565b820191906000526020600020905b8154815290600101906020018083116104f757829003601f168201915b5050505050815260200160018201805461052d906149c2565b80601f0160208091040260200160405190810160405280929190818152602001828054610559906149c2565b80156105a65780601f1061057b576101008083540402835291602001916105a6565b820191906000526020600020905b81548152906001019060200180831161058957829003601f168201915b505050505081526020016002820180546105bf906149c2565b80601f01602080910402602001604051908101604052809291908181526020018280546105eb906149c2565b80156106385780601f1061060d57610100808354040283529160200191610638565b820191906000526020600020905b81548152906001019060200180831161061b57829003601f168201915b50505050508152602001600382018054610651906149c2565b80601f016020809104026020016040519081016040528092919081815260200182805461067d906149c2565b80156106ca5780601f1061069f576101008083540402835291602001916106ca565b820191906000526020600020905b8154815290600101906020018083116106ad57829003601f168201915b505050505081526020016004820180546106e3906149c2565b80601f016020809104026020016040519081016040528092919081815260200182805461070f906149c2565b801561075c5780601f106107315761010080835404028352916020019161075c565b820191906000526020600020905b81548152906001019060200180831161073f57829003601f168201915b50505050508152602001600582018054610775906149c2565b80601f01602080910402602001604051908101604052809291908181526020018280546107a1906149c2565b80156107ee5780601f106107c3576101008083540402835291602001916107ee565b820191906000526020600020905b8154815290600101906020018083116107d157829003601f168201915b50505050508152602001600682015481525050915050919050565b6000600160003373ffffffffffffffffffffffffffffffffffffffff1673ffffffffffffffffffffffffffffffffffffffff1681526020019081526020016000208054610855906149c2565b80601f0160208091040260200160405190810160405280929190818152602001828054610881906149c2565b80156108ce5780601f106108a3576101008083540402835291602001916108ce565b820191906000526020600020905b8154815290600101906020018083116108b157829003601f168201915b5050505050905080516005826040516108e79190614a2f565b90815260200160405180910390206000018054610903906149c2565b905014610945576040517f08c379a000000000000000000000000000000000000000000000000000000000815260040161093c90614aa3565b60405180910390fd5b6000600160003373ffffffffffffffffffffffffffffffffffffffff1673ffffffffffffffffffffffffffffffffffffffff1681526020019081526020016000208054610991906149c2565b80601f01602080910402602001604051908101604052809291908181526020018280546109bd906149c2565b8015610a0a5780601f106109df57610100808354040283529160200191610a0a565b820191906000526020600020905b8154815290600101906020018083116109ed57829003601f168201915b505050505090506000600782604051610a239190614a2f565b90815260200160405180910390208054610a3c906149c2565b80601f0160208091040260200160405190810160405280929190818152602001828054610a68906149c2565b8015610ab55780601f10610a8a57610100808354040283529160200191610ab5565b820191906000526020600020905b815481529060010190602001808311610a9857829003601f168201915b50505050509050610ac681836139a0565b600782604051610ad69190614a2f565b90815260200160405180910390206000610af09190613add565b505050565b6000600583604051610b079190614a2f565b9081526020016040518091039020905082816000019081610b289190614c6f565b5081816001016000820151816000019081610b439190614c6f565b506020820151816001019081610b599190614c6f565b506040820151816002019081610b6f9190614c6f565b506060820151816003019081610b859190614c6f565b506080820151816004019081610b9b9190614c6f565b5060a0820151816005019081610bb19190614c6f565b5060c0820151816006019081610bc79190614c6f565b5060e0820151816007019081610bdd9190614c6f565b50610100820151816008019081610bf49190614c6f565b509050504281600a018190555082600160003373ffffffffffffffffffffffffffffffffffffffff1673ffffffffffffffffffffffffffffffffffffffff1681526020019081526020016000209081610c4d9190614c6f565b50600060149054906101000a900460ff16600284604051610c6e9190614a2f565b908152602001604051809103902060006101000a81548160ff021916908360ff1602179055507f01a8c025952a966c69d36fa7c6f5bb16aca9ed717770e073184c65071a764910816001016000018260010160010183600101600201846001016003018560010160040186600101600501876001016006018860010160070189600101600801604051610d0999989796959493929190614dc5565b60405180910390a1505050565b6000600160003373ffffffffffffffffffffffffffffffffffffffff1673ffffffffffffffffffffffffffffffffffffffff1681526020019081526020016000208054610d62906149c2565b80601f0160208091040260200160405190810160405280929190818152602001828054610d8e906149c2565b8015610ddb5780601f10610db057610100808354040283529160200191610ddb565b820191906000526020600020905b815481529060010190602001808311610dbe57829003601f168201915b505050505090508051600582604051610df49190614a2f565b90815260200160405180910390206000018054610e10906149c2565b905014610e52576040517f08c379a0000000000000000000000000000000000000000000000000000000008152600401610e4990614aa3565b60405180910390fd5b81600784604051610e639190614a2f565b90815260200160405180910390209081610e7d9190614c6f565b50600882604051610e8e9190614a2f565b908152602001604051809103902083908060018154018082558091505060019003906000526020600020016000909190919091509081610ece9190614c6f565b50505050565b6000600282604051610ee69190614a2f565b908152602001604051809103902060009054906101000a900460ff169050919050565b60008060009054906101000a900473ffffffffffffffffffffffffffffffffffffffff16905090565b60606000600160003373ffffffffffffffffffffffffffffffffffffffff1673ffffffffffffffffffffffffffffffffffffffff1681526020019081526020016000208054610f80906149c2565b80601f0160208091040260200160405190810160405280929190818152602001828054610fac906149c2565b8015610ff95780601f10610fce57610100808354040283529160200191610ff9565b820191906000526020600020905b815481529060010190602001808311610fdc57829003601f168201915b5050505050905060006002826040516110129190614a2f565b908152602001604051809103902060009054906101000a900460ff169050600060149054906101000a900460ff1660ff168160ff16036110c157815160058360405161105e9190614a2f565b9081526020016040518091039020600001805461107a906149c2565b9050146110bc576040517f08c379a00000000000000000000000000000000000000000000000000000000081526004016110b390614edd565b60405180910390fd5b61114f565b600060159054906101000a900460ff1660ff168160ff160361114e5781516006836040516110ef9190614a2f565b9081526020016040518091039020600001805461110b906149c2565b90501461114d576040517f08c379a000000000000000000000000000000000000000000000000000000000815260040161114490614f49565b60405180910390fd5b5b5b60038460405161115f9190614a2f565b9081526020016040518091039020805480602002602001604051908101604052809291908181526020016000905b8282101561138957838290600052602060002090600502016040518060a001604052908160008201548152602001600182015481526020016002820180546111d4906149c2565b80601f0160208091040260200160405190810160405280929190818152602001828054611200906149c2565b801561124d5780601f106112225761010080835404028352916020019161124d565b820191906000526020600020905b81548152906001019060200180831161123057829003601f168201915b50505050508152602001600382018054611266906149c2565b80601f0160208091040260200160405190810160405280929190818152602001828054611292906149c2565b80156112df5780601f106112b4576101008083540402835291602001916112df565b820191906000526020600020905b8154815290600101906020018083116112c257829003601f168201915b505050505081526020016004820180546112f8906149c2565b80601f0160208091040260200160405190810160405280929190818152602001828054611324906149c2565b80156113715780601f1061134657610100808354040283529160200191611371565b820191906000526020600020905b81548152906001019060200180831161135457829003601f168201915b5050505050815250508152602001906001019061118d565b5050505092505050919050565b60006006876040516113a89190614a2f565b90815260200160405180910390209050868160000190816113c99190614c6f565b50858160010190816113db9190614c6f565b50848160020190816113ed9190614c6f565b50838160030190816113ff9190614c6f565b50828160040190816114119190614c6f565b50818160050190816114239190614c6f565b5042816006018190555086600160003373ffffffffffffffffffffffffffffffffffffffff1673ffffffffffffffffffffffffffffffffffffffff16815260200190815260200160002090816114799190614c6f565b50600060159054906101000a900460ff1660028860405161149a9190614a2f565b908152602001604051809103902060006101000a81548160ff021916908360ff1602179055507f3451f868ab50a3ae497dd7479d4ffa96092d35abd6d66a27c665cb9f1d6084e68160010182600201836003018460040185600501866006015460405161150c96959493929190614f78565b60405180910390a150505050505050565b816000600160003373ffffffffffffffffffffffffffffffffffffffff1673ffffffffffffffffffffffffffffffffffffffff168152602001908152602001600020805461156a906149c2565b80601f0160208091040260200160405190810160405280929190818152602001828054611596906149c2565b80156115e35780601f106115b8576101008083540402835291602001916115e3565b820191906000526020600020905b8154815290600101906020018083116115c657829003601f168201915b5050505050905080516007836040516115fc9190614a2f565b90815260200160405180910390208054611615906149c2565b905014611657576040517f08c379a000000000000000000000000000000000000000000000000000000000815260040161164e9061506e565b60405180910390fd5b60006003856040516116699190614a2f565b9081526020016040518091039020905060006040518060a001604052806001848054905061169791906150bd565b815260200142815260200186604001518152602001866060015181526020018660800151815250905081819080600181540180825580915050600190039060005260206000209060050201600090919091909150600082015181600001556020820151816001015560408201518160020190816117149190614c6f565b50606082015181600301908161172a9190614c6f565b5060808201518160040190816117409190614c6f565b5050507f895595933c70a82909c268a32943034f17f463234ad5eac0a27f68bf4863d6908160200151826040015183606001518460800151604051611788949392919061512a565b60405180910390a1505050505050565b6117a0613b1d565b6000600160008473ffffffffffffffffffffffffffffffffffffffff1673ffffffffffffffffffffffffffffffffffffffff16815260200190815260200160002080546117ec906149c2565b80601f0160208091040260200160405190810160405280929190818152602001828054611818906149c2565b80156118655780601f1061183a57610100808354040283529160200191611865565b820191906000526020600020905b81548152906001019060200180831161184857829003601f168201915b5050505050905060058160405161187c9190614a2f565b90815260200160405180910390206040518060600160405290816000820180546118a5906149c2565b80601f01602080910402602001604051908101604052809291908181526020018280546118d1906149c2565b801561191e5780601f106118f35761010080835404028352916020019161191e565b820191906000526020600020905b81548152906001019060200180831161190157829003601f168201915b505050505081526020016001820160405180610120016040529081600082018054611948906149c2565b80601f0160208091040260200160405190810160405280929190818152602001828054611974906149c2565b80156119c15780601f10611996576101008083540402835291602001916119c1565b820191906000526020600020905b8154815290600101906020018083116119a457829003601f168201915b505050505081526020016001820180546119da906149c2565b80601f0160208091040260200160405190810160405280929190818152602001828054611a06906149c2565b8015611a535780601f10611a2857610100808354040283529160200191611a53565b820191906000526020600020905b815481529060010190602001808311611a3657829003601f168201915b50505050508152602001600282018054611a6c906149c2565b80601f0160208091040260200160405190810160405280929190818152602001828054611a98906149c2565b8015611ae55780601f10611aba57610100808354040283529160200191611ae5565b820191906000526020600020905b815481529060010190602001808311611ac857829003601f168201915b50505050508152602001600382018054611afe906149c2565b80601f0160208091040260200160405190810160405280929190818152602001828054611b2a906149c2565b8015611b775780601f10611b4c57610100808354040283529160200191611b77565b820191906000526020600020905b815481529060010190602001808311611b5a57829003601f168201915b50505050508152602001600482018054611b90906149c2565b80601f0160208091040260200160405190810160405280929190818152602001828054611bbc906149c2565b8015611c095780601f10611bde57610100808354040283529160200191611c09565b820191906000526020600020905b815481529060010190602001808311611bec57829003601f168201915b50505050508152602001600582018054611c22906149c2565b80601f0160208091040260200160405190810160405280929190818152602001828054611c4e906149c2565b8015611c9b5780601f10611c7057610100808354040283529160200191611c9b565b820191906000526020600020905b815481529060010190602001808311611c7e57829003601f168201915b50505050508152602001600682018054611cb4906149c2565b80601f0160208091040260200160405190810160405280929190818152602001828054611ce0906149c2565b8015611d2d5780601f10611d0257610100808354040283529160200191611d2d565b820191906000526020600020905b815481529060010190602001808311611d1057829003601f168201915b50505050508152602001600782018054611d46906149c2565b80601f0160208091040260200160405190810160405280929190818152602001828054611d72906149c2565b8015611dbf5780601f10611d9457610100808354040283529160200191611dbf565b820191906000526020600020905b815481529060010190602001808311611da257829003601f168201915b50505050508152602001600882018054611dd8906149c2565b80601f0160208091040260200160405190810160405280929190818152602001828054611e04906149c2565b8015611e515780601f10611e2657610100808354040283529160200191611e51565b820191906000526020600020905b815481529060010190602001808311611e3457829003601f168201915b5050505050815250508152602001600a82015481525050915050919050565b60606000600160003373ffffffffffffffffffffffffffffffffffffffff1673ffffffffffffffffffffffffffffffffffffffff1681526020019081526020016000208054611ebe906149c2565b80601f0160208091040260200160405190810160405280929190818152602001828054611eea906149c2565b8015611f375780601f10611f0c57610100808354040283529160200191611f37565b820191906000526020600020905b815481529060010190602001808311611f1a57829003601f168201915b505050505090508051600682604051611f509190614a2f565b90815260200160405180910390206000018054611f6c906149c2565b905014611fae576040517f08c379a0000000000000000000000000000000000000000000000000000000008152600401611fa590614aa3565b60405180910390fd5b6000600160003373ffffffffffffffffffffffffffffffffffffffff1673ffffffffffffffffffffffffffffffffffffffff1681526020019081526020016000208054611ffa906149c2565b80601f0160208091040260200160405190810160405280929190818152602001828054612026906149c2565b80156120735780601f1061204857610100808354040283529160200191612073565b820191906000526020600020905b81548152906001019060200180831161205657829003601f168201915b50505050509050600060088260405161208c9190614a2f565b9081526020016040518091039020805480602002602001604051908101604052809291908181526020016000905b828210156121665783829060005260206000200180546120d9906149c2565b80601f0160208091040260200160405190810160405280929190818152602001828054612105906149c2565b80156121525780601f1061212757610100808354040283529160200191612152565b820191906000526020600020905b81548152906001019060200180831161213557829003601f168201915b5050505050815260200190600101906120ba565b5050505090506000815167ffffffffffffffff81111561218957612188613bdc565b5b6040519080825280602002602001820160405280156121c257816020015b6121af613b1d565b8152602001906001900390816121a75790505b50905060005b82518110156128125760058382815181106121e6576121e5615184565b5b60200260200101516040516121fb9190614a2f565b9081526020016040518091039020604051806060016040529081600082018054612224906149c2565b80601f0160208091040260200160405190810160405280929190818152602001828054612250906149c2565b801561229d5780601f106122725761010080835404028352916020019161229d565b820191906000526020600020905b81548152906001019060200180831161228057829003601f168201915b5050505050815260200160018201604051806101200160405290816000820180546122c7906149c2565b80601f01602080910402602001604051908101604052809291908181526020018280546122f3906149c2565b80156123405780601f1061231557610100808354040283529160200191612340565b820191906000526020600020905b81548152906001019060200180831161232357829003601f168201915b50505050508152602001600182018054612359906149c2565b80601f0160208091040260200160405190810160405280929190818152602001828054612385906149c2565b80156123d25780601f106123a7576101008083540402835291602001916123d2565b820191906000526020600020905b8154815290600101906020018083116123b557829003601f168201915b505050505081526020016002820180546123eb906149c2565b80601f0160208091040260200160405190810160405280929190818152602001828054612417906149c2565b80156124645780601f1061243957610100808354040283529160200191612464565b820191906000526020600020905b81548152906001019060200180831161244757829003601f168201915b5050505050815260200160038201805461247d906149c2565b80601f01602080910402602001604051908101604052809291908181526020018280546124a9906149c2565b80156124f65780601f106124cb576101008083540402835291602001916124f6565b820191906000526020600020905b8154815290600101906020018083116124d957829003601f168201915b5050505050815260200160048201805461250f906149c2565b80601f016020809104026020016040519081016040528092919081815260200182805461253b906149c2565b80156125885780601f1061255d57610100808354040283529160200191612588565b820191906000526020600020905b81548152906001019060200180831161256b57829003601f168201915b505050505081526020016005820180546125a1906149c2565b80601f01602080910402602001604051908101604052809291908181526020018280546125cd906149c2565b801561261a5780601f106125ef5761010080835404028352916020019161261a565b820191906000526020600020905b8154815290600101906020018083116125fd57829003601f168201915b50505050508152602001600682018054612633906149c2565b80601f016020809104026020016040519081016040528092919081815260200182805461265f906149c2565b80156126ac5780601f10612681576101008083540402835291602001916126ac565b820191906000526020600020905b81548152906001019060200180831161268f57829003601f168201915b505050505081526020016007820180546126c5906149c2565b80601f01602080910402602001604051908101604052809291908181526020018280546126f1906149c2565b801561273e5780601f106127135761010080835404028352916020019161273e565b820191906000526020600020905b81548152906001019060200180831161272157829003601f168201915b50505050508152602001600882018054612757906149c2565b80601f0160208091040260200160405190810160405280929190818152602001828054612783906149c2565b80156127d05780601f106127a5576101008083540402835291602001916127d0565b820191906000526020600020905b8154815290600101906020018083116127b357829003601f168201915b5050505050815250508152602001600a820154815250508282815181106127fa576127f9615184565b5b602002602001018190525080806001019150506121c8565b508094505050505090565b612825613aa0565b6000600160003373ffffffffffffffffffffffffffffffffffffffff1673ffffffffffffffffffffffffffffffffffffffff1681526020019081526020016000208054612871906149c2565b80601f016020809104026020016040519081016040528092919081815260200182805461289d906149c2565b80156128ea5780601f106128bf576101008083540402835291602001916128ea565b820191906000526020600020905b8154815290600101906020018083116128cd57829003601f168201915b5050505050905080516005826040516129039190614a2f565b9081526020016040518091039020600001805461291f906149c2565b905014612961576040517f08c379a000000000000000000000000000000000000000000000000000000000815260040161295890614aa3565b60405180910390fd5b6000600160003373ffffffffffffffffffffffffffffffffffffffff1673ffffffffffffffffffffffffffffffffffffffff16815260200190815260200160002080546129ad906149c2565b80601f01602080910402602001604051908101604052809291908181526020018280546129d9906149c2565b8015612a265780601f106129fb57610100808354040283529160200191612a26565b820191906000526020600020905b815481529060010190602001808311612a0957829003601f168201915b505050505090506000600782604051612a3f9190614a2f565b90815260200160405180910390208054612a58906149c2565b80601f0160208091040260200160405190810160405280929190818152602001828054612a84906149c2565b8015612ad15780601f10612aa657610100808354040283529160200191612ad1565b820191906000526020600020905b815481529060010190602001808311612ab457829003601f168201915b505050505090506000815111612b1c576040517f08c379a0000000000000000000000000000000000000000000000000000000008152600401612b13906151ff565b60405180910390fd5b600681604051612b2c9190614a2f565b90815260200160405180910390206040518060e0016040529081600082018054612b55906149c2565b80601f0160208091040260200160405190810160405280929190818152602001828054612b81906149c2565b8015612bce5780601f10612ba357610100808354040283529160200191612bce565b820191906000526020600020905b815481529060010190602001808311612bb157829003601f168201915b50505050508152602001600182018054612be7906149c2565b80601f0160208091040260200160405190810160405280929190818152602001828054612c13906149c2565b8015612c605780601f10612c3557610100808354040283529160200191612c60565b820191906000526020600020905b815481529060010190602001808311612c4357829003601f168201915b50505050508152602001600282018054612c79906149c2565b80601f0160208091040260200160405190810160405280929190818152602001828054612ca5906149c2565b8015612cf25780601f10612cc757610100808354040283529160200191612cf2565b820191906000526020600020905b815481529060010190602001808311612cd557829003601f168201915b50505050508152602001600382018054612d0b906149c2565b80601f0160208091040260200160405190810160405280929190818152602001828054612d37906149c2565b8015612d845780601f10612d5957610100808354040283529160200191612d84565b820191906000526020600020905b815481529060010190602001808311612d6757829003601f168201915b50505050508152602001600482018054612d9d906149c2565b80601f0160208091040260200160405190810160405280929190818152602001828054612dc9906149c2565b8015612e165780601f10612deb57610100808354040283529160200191612e16565b820191906000526020600020905b815481529060010190602001808311612df957829003601f168201915b50505050508152602001600582018054612e2f906149c2565b80601f0160208091040260200160405190810160405280929190818152602001828054612e5b906149c2565b8015612ea85780601f10612e7d57610100808354040283529160200191612ea8565b820191906000526020600020905b815481529060010190602001808311612e8b57829003601f168201915b50505050508152602001600682015481525050935050505090565b612ecb613b1d565b600582604051612edb9190614a2f565b9081526020016040518091039020604051806060016040529081600082018054612f04906149c2565b80601f0160208091040260200160405190810160405280929190818152602001828054612f30906149c2565b8015612f7d5780601f10612f5257610100808354040283529160200191612f7d565b820191906000526020600020905b815481529060010190602001808311612f6057829003601f168201915b505050505081526020016001820160405180610120016040529081600082018054612fa7906149c2565b80601f0160208091040260200160405190810160405280929190818152602001828054612fd3906149c2565b80156130205780601f10612ff557610100808354040283529160200191613020565b820191906000526020600020905b81548152906001019060200180831161300357829003601f168201915b50505050508152602001600182018054613039906149c2565b80601f0160208091040260200160405190810160405280929190818152602001828054613065906149c2565b80156130b25780601f10613087576101008083540402835291602001916130b2565b820191906000526020600020905b81548152906001019060200180831161309557829003601f168201915b505050505081526020016002820180546130cb906149c2565b80601f01602080910402602001604051908101604052809291908181526020018280546130f7906149c2565b80156131445780601f1061311957610100808354040283529160200191613144565b820191906000526020600020905b81548152906001019060200180831161312757829003601f168201915b5050505050815260200160038201805461315d906149c2565b80601f0160208091040260200160405190810160405280929190818152602001828054613189906149c2565b80156131d65780601f106131ab576101008083540402835291602001916131d6565b820191906000526020600020905b8154815290600101906020018083116131b957829003601f168201915b505050505081526020016004820180546131ef906149c2565b80601f016020809104026020016040519081016040528092919081815260200182805461321b906149c2565b80156132685780601f1061323d57610100808354040283529160200191613268565b820191906000526020600020905b81548152906001019060200180831161324b57829003601f168201915b50505050508152602001600582018054613281906149c2565b80601f01602080910402602001604051908101604052809291908181526020018280546132ad906149c2565b80156132fa5780601f106132cf576101008083540402835291602001916132fa565b820191906000526020600020905b8154815290600101906020018083116132dd57829003601f168201915b50505050508152602001600682018054613313906149c2565b80601f016020809104026020016040519081016040528092919081815260200182805461333f906149c2565b801561338c5780601f106133615761010080835404028352916020019161338c565b820191906000526020600020905b81548152906001019060200180831161336f57829003601f168201915b505050505081526020016007820180546133a5906149c2565b80601f01602080910402602001604051908101604052809291908181526020018280546133d1906149c2565b801561341e5780601f106133f35761010080835404028352916020019161341e565b820191906000526020600020905b81548152906001019060200180831161340157829003601f168201915b50505050508152602001600882018054613437906149c2565b80601f0160208091040260200160405190810160405280929190818152602001828054613463906149c2565b80156134b05780601f10613485576101008083540402835291602001916134b0565b820191906000526020600020905b81548152906001019060200180831161349357829003601f168201915b5050505050815250508152602001600a820154815250509050919050565b600080600160008473ffffffffffffffffffffffffffffffffffffffff1673ffffffffffffffffffffffffffffffffffffffff168152602001908152602001600020805461351b906149c2565b9050119050919050565b61352d613aa0565b6000600160008473ffffffffffffffffffffffffffffffffffffffff1673ffffffffffffffffffffffffffffffffffffffff1681526020019081526020016000208054613579906149c2565b80601f01602080910402602001604051908101604052809291908181526020018280546135a5906149c2565b80156135f25780601f106135c7576101008083540402835291602001916135f2565b820191906000526020600020905b8154815290600101906020018083116135d557829003601f168201915b505050505090506006816040516136099190614a2f565b90815260200160405180910390206040518060e0016040529081600082018054613632906149c2565b80601f016020809104026020016040519081016040528092919081815260200182805461365e906149c2565b80156136ab5780601f10613680576101008083540402835291602001916136ab565b820191906000526020600020905b81548152906001019060200180831161368e57829003601f168201915b505050505081526020016001820180546136c4906149c2565b80601f01602080910402602001604051908101604052809291908181526020018280546136f0906149c2565b801561373d5780601f106137125761010080835404028352916020019161373d565b820191906000526020600020905b81548152906001019060200180831161372057829003601f168201915b50505050508152602001600282018054613756906149c2565b80601f0160208091040260200160405190810160405280929190818152602001828054613782906149c2565b80156137cf5780601f106137a4576101008083540402835291602001916137cf565b820191906000526020600020905b8154815290600101906020018083116137b257829003601f168201915b505050505081526020016003820180546137e8906149c2565b80601f0160208091040260200160405190810160405280929190818152602001828054613814906149c2565b80156138615780601f1061383657610100808354040283529160200191613861565b820191906000526020600020905b81548152906001019060200180831161384457829003601f168201915b5050505050815260200160048201805461387a906149c2565b80601f01602080910402602001604051908101604052809291908181526020018280546138a6906149c2565b80156138f35780601f106138c8576101008083540402835291602001916138f3565b820191906000526020600020905b8154815290600101906020018083116138d657829003601f168201915b5050505050815260200160058201805461390c906149c2565b80601f0160208091040260200160405190810160405280929190818152602001828054613938906149c2565b80156139855780601f1061395a57610100808354040283529160200191613985565b820191906000526020600020905b81548152906001019060200180831161396857829003601f168201915b50505050508152602001600682015481525050915050919050565b60006008836040516139b29190614a2f565b9081526020016040518091039020905060005b8180549050811015613a9a5782518282815481106139e6576139e5615184565b5b9060005260206000200180546139fb906149c2565b905003613a8d578160018380549050613a14919061521f565b81548110613a2557613a24615184565b5b90600052602060002001828281548110613a4257613a41615184565b5b906000526020600020019081613a58919061527e565b5081805480613a6a57613a69615366565b5b600190038181906000526020600020016000613a869190613add565b9055613a9a565b80806001019150506139c5565b50505050565b6040518060e00160405280606081526020016060815260200160608152602001606081526020016060815260200160608152602001600081525090565b508054613ae9906149c2565b6000825580601f10613afb5750613b1a565b601f016020900490600052602060002090810190613b199190613b44565b5b50565b604051806060016040528060608152602001613b37613b61565b8152602001600081525090565b5b80821115613b5d576000816000905550600101613b45565b5090565b6040518061012001604052806060815260200160608152602001606081526020016060815260200160608152602001606081526020016060815260200160608152602001606081525090565b6000604051905090565b600080fd5b600080fd5b600080fd5b600080fd5b6000601f19601f8301169050919050565b7f4e487b7100000000000000000000000000000000000000000000000000000000600052604160045260246000fd5b613c1482613bcb565b810181811067ffffffffffffffff82111715613c3357613c32613bdc565b5b80604052505050565b6000613c46613bad565b9050613c528282613c0b565b919050565b600067ffffffffffffffff821115613c7257613c71613bdc565b5b613c7b82613bcb565b9050602081019050919050565b82818337600083830152505050565b6000613caa613ca584613c57565b613c3c565b905082815260208101848484011115613cc657613cc5613bc6565b5b613cd1848285613c88565b509392505050565b600082601f830112613cee57613ced613bc1565b5b8135613cfe848260208601613c97565b91505092915050565b600060208284031215613d1d57613d1c613bb7565b5b600082013567ffffffffffffffff811115613d3b57613d3a613bbc565b5b613d4784828501613cd9565b91505092915050565b600081519050919050565b600082825260208201905092915050565b60005b83811015613d8a578082015181840152602081019050613d6f565b60008484015250505050565b6000613da182613d50565b613dab8185613d5b565b9350613dbb818560208601613d6c565b613dc481613bcb565b840191505092915050565b6000819050919050565b613de281613dcf565b82525050565b600060e0830160008301518482036000860152613e058282613d96565b91505060208301518482036020860152613e1f8282613d96565b91505060408301518482036040860152613e398282613d96565b91505060608301518482036060860152613e538282613d96565b91505060808301518482036080860152613e6d8282613d96565b91505060a083015184820360a0860152613e878282613d96565b91505060c0830151613e9c60c0860182613dd9565b508091505092915050565b60006020820190508181036000830152613ec18184613de8565b905092915050565b600080fd5b600080fd5b60006101208284031215613eea57613ee9613ec9565b5b613ef5610120613c3c565b9050600082013567ffffffffffffffff811115613f1557613f14613ece565b5b613f2184828501613cd9565b600083015250602082013567ffffffffffffffff811115613f4557613f44613ece565b5b613f5184828501613cd9565b602083015250604082013567ffffffffffffffff811115613f7557613f74613ece565b5b613f8184828501613cd9565b604083015250606082013567ffffffffffffffff811115613fa557613fa4613ece565b5b613fb184828501613cd9565b606083015250608082013567ffffffffffffffff811115613fd557613fd4613ece565b5b613fe184828501613cd9565b60808301525060a082013567ffffffffffffffff81111561400557614004613ece565b5b61401184828501613cd9565b60a08301525060c082013567ffffffffffffffff81111561403557614034613ece565b5b61404184828501613cd9565b60c08301525060e082013567ffffffffffffffff81111561406557614064613ece565b5b61407184828501613cd9565b60e08301525061010082013567ffffffffffffffff81111561409657614095613ece565b5b6140a284828501613cd9565b6101008301525092915050565b600080604083850312156140c6576140c5613bb7565b5b600083013567ffffffffffffffff8111156140e4576140e3613bbc565b5b6140f085828601613cd9565b925050602083013567ffffffffffffffff81111561411157614110613bbc565b5b61411d85828601613ed3565b9150509250929050565b6000806040838503121561413e5761413d613bb7565b5b600083013567ffffffffffffffff81111561415c5761415b613bbc565b5b61416885828601613cd9565b925050602083013567ffffffffffffffff81111561418957614188613bbc565b5b61419585828601613cd9565b9150509250929050565b600060ff82169050919050565b6141b58161419f565b82525050565b60006020820190506141d060008301846141ac565b92915050565b600073ffffffffffffffffffffffffffffffffffffffff82169050919050565b6000614201826141d6565b9050919050565b614211816141f6565b82525050565b600060208201905061422c6000830184614208565b92915050565b600081519050919050565b600082825260208201905092915050565b6000819050602082019050919050565b600060a0830160008301516142766000860182613dd9565b5060208301516142896020860182613dd9565b50604083015184820360408601526142a18282613d96565b915050606083015184820360608601526142bb8282613d96565b915050608083015184820360808601526142d58282613d96565b9150508091505092915050565b60006142ee838361425e565b905092915050565b6000602082019050919050565b600061430e82614232565b614318818561423d565b93508360208202850161432a8561424e565b8060005b85811015614366578484038952815161434785826142e2565b9450614352836142f6565b925060208a0199505060018101905061432e565b50829750879550505050505092915050565b600060208201905081810360008301526143928184614303565b905092915050565b60008060008060008060c087890312156143b7576143b6613bb7565b5b600087013567ffffffffffffffff8111156143d5576143d4613bbc565b5b6143e189828a01613cd9565b965050602087013567ffffffffffffffff81111561440257614401613bbc565b5b61440e89828a01613cd9565b955050604087013567ffffffffffffffff81111561442f5761442e613bbc565b5b61443b89828a01613cd9565b945050606087013567ffffffffffffffff81111561445c5761445b613bbc565b5b61446889828a01613cd9565b935050608087013567ffffffffffffffff81111561448957614488613bbc565b5b61449589828a01613cd9565b92505060a087013567ffffffffffffffff8111156144b6576144b5613bbc565b5b6144c289828a01613cd9565b9150509295509295509295565b6144d881613dcf565b81146144e357600080fd5b50565b6000813590506144f5816144cf565b92915050565b600060a0828403121561451157614510613ec9565b5b61451b60a0613c3c565b9050600061452b848285016144e6565b600083015250602061453f848285016144e6565b602083015250604082013567ffffffffffffffff81111561456357614562613ece565b5b61456f84828501613cd9565b604083015250606082013567ffffffffffffffff81111561459357614592613ece565b5b61459f84828501613cd9565b606083015250608082013567ffffffffffffffff8111156145c3576145c2613ece565b5b6145cf84828501613cd9565b60808301525092915050565b600080604083850312156145f2576145f1613bb7565b5b600083013567ffffffffffffffff8111156146105761460f613bbc565b5b61461c85828601613cd9565b925050602083013567ffffffffffffffff81111561463d5761463c613bbc565b5b614649858286016144fb565b9150509250929050565b61465c816141f6565b811461466757600080fd5b50565b60008135905061467981614653565b92915050565b60006020828403121561469557614694613bb7565b5b60006146a38482850161466a565b91505092915050565b60006101208301600083015184820360008601526146ca8282613d96565b915050602083015184820360208601526146e48282613d96565b915050604083015184820360408601526146fe8282613d96565b915050606083015184820360608601526147188282613d96565b915050608083015184820360808601526147328282613d96565b91505060a083015184820360a086015261474c8282613d96565b91505060c083015184820360c08601526147668282613d96565b91505060e083015184820360e08601526147808282613d96565b91505061010083015184820361010086015261479c8282613d96565b9150508091505092915050565b600060608301600083015184820360008601526147c68282613d96565b915050602083015184820360208601526147e082826146ac565b91505060408301516147f56040860182613dd9565b508091505092915050565b6000602082019050818103600083015261481a81846147a9565b905092915050565b600081519050919050565b600082825260208201905092915050565b6000819050602082019050919050565b6000606083016000830151848203600086015261486b8282613d96565b9150506020830151848203602086015261488582826146ac565b915050604083015161489a6040860182613dd9565b508091505092915050565b60006148b1838361484e565b905092915050565b6000602082019050919050565b60006148d182614822565b6148db818561482d565b9350836020820285016148ed8561483e565b8060005b85811015614929578484038952815161490a85826148a5565b9450614915836148b9565b925060208a019950506001810190506148f1565b50829750879550505050505092915050565b6000602082019050818103600083015261495581846148c6565b905092915050565b60008115159050919050565b6149728161495d565b82525050565b600060208201905061498d6000830184614969565b92915050565b7f4e487b7100000000000000000000000000000000000000000000000000000000600052602260045260246000fd5b600060028204905060018216806149da57607f821691505b6020821081036149ed576149ec614993565b5b50919050565b600081905092915050565b6000614a0982613d50565b614a1381856149f3565b9350614a23818560208601613d6c565b80840191505092915050565b6000614a3b82846149fe565b915081905092915050565b600082825260208201905092915050565b7f55736572206e6f7420616c6c6f77656421000000000000000000000000000000600082015250565b6000614a8d601183614a46565b9150614a9882614a57565b602082019050919050565b60006020820190508181036000830152614abc81614a80565b9050919050565b60008190508160005260206000209050919050565b60006020601f8301049050919050565b600082821b905092915050565b600060088302614b257fffffffffffffffffffffffffffffffffffffffffffffffffffffffffffffffff82614ae8565b614b2f8683614ae8565b95508019841693508086168417925050509392505050565b6000819050919050565b6000614b6c614b67614b6284613dcf565b614b47565b613dcf565b9050919050565b6000819050919050565b614b8683614b51565b614b9a614b9282614b73565b848454614af5565b825550505050565b600090565b614baf614ba2565b614bba818484614b7d565b505050565b5b81811015614bde57614bd3600082614ba7565b600181019050614bc0565b5050565b601f821115614c2357614bf481614ac3565b614bfd84614ad8565b81016020851015614c0c578190505b614c20614c1885614ad8565b830182614bbf565b50505b505050565b600082821c905092915050565b6000614c4660001984600802614c28565b1980831691505092915050565b6000614c5f8383614c35565b9150826002028217905092915050565b614c7882613d50565b67ffffffffffffffff811115614c9157614c90613bdc565b5b614c9b82546149c2565b614ca6828285614be2565b600060209050601f831160018114614cd95760008415614cc7578287015190505b614cd18582614c53565b865550614d39565b601f198416614ce786614ac3565b60005b82811015614d0f57848901518255600182019150602085019450602081019050614cea565b86831015614d2c5784890151614d28601f891682614c35565b8355505b6001600288020188555050505b505050505050565b60008154614d4e816149c2565b614d588186614a46565b94506001821660008114614d735760018114614d8957614dbc565b60ff198316865281151560200286019350614dbc565b614d9285614ac3565b60005b83811015614db457815481890152600182019150602081019050614d95565b808801955050505b50505092915050565b6000610120820190508181036000830152614de0818c614d41565b90508181036020830152614df4818b614d41565b90508181036040830152614e08818a614d41565b90508181036060830152614e1c8189614d41565b90508181036080830152614e308188614d41565b905081810360a0830152614e448187614d41565b905081810360c0830152614e588186614d41565b905081810360e0830152614e6c8185614d41565b9050818103610100830152614e818184614d41565b90509a9950505050505050505050565b7f50617469656e74206e6f7420616c6c6f77656421000000000000000000000000600082015250565b6000614ec7601483614a46565b9150614ed282614e91565b602082019050919050565b60006020820190508181036000830152614ef681614eba565b9050919050565b7f50687973696369616e206e6f7420616c6c6f7765642100000000000000000000600082015250565b6000614f33601683614a46565b9150614f3e82614efd565b602082019050919050565b60006020820190508181036000830152614f6281614f26565b9050919050565b614f7281613dcf565b82525050565b600060c0820190508181036000830152614f928189614d41565b90508181036020830152614fa68188614d41565b90508181036040830152614fba8187614d41565b90508181036060830152614fce8186614d41565b90508181036080830152614fe28185614d41565b9050614ff160a0830184614f69565b979650505050505050565b7f50687973696369616e206973206e6f7420617574686f7269736564206279207060008201527f617469656e740000000000000000000000000000000000000000000000000000602082015250565b6000615058602683614a46565b915061506382614ffc565b604082019050919050565b600060208201905081810360008301526150878161504b565b9050919050565b7f4e487b7100000000000000000000000000000000000000000000000000000000600052601160045260246000fd5b60006150c882613dcf565b91506150d383613dcf565b92508282019050808211156150eb576150ea61508e565b5b92915050565b60006150fc82613d50565b6151068185614a46565b9350615116818560208601613d6c565b61511f81613bcb565b840191505092915050565b600060808201905061513f6000830187614f69565b818103602083015261515181866150f1565b9050818103604083015261516581856150f1565b9050818103606083015261517981846150f1565b905095945050505050565b7f4e487b7100000000000000000000000000000000000000000000000000000000600052603260045260246000fd5b7f4e6f2061737369676e65642070687973696369616e20666f756e642100000000600082015250565b60006151e9601c83614a46565b91506151f4826151b3565b602082019050919050565b60006020820190508181036000830152615218816151dc565b9050919050565b600061522a82613dcf565b915061523583613dcf565b925082820390508181111561524d5761524c61508e565b5b92915050565b600081549050615262816149c2565b9050919050565b60008190508160005260206000209050919050565b81810361528c575050615364565b61529582615253565b67ffffffffffffffff8111156152ae576152ad613bdc565b5b6152b882546149c2565b6152c3828285614be2565b6000601f8311600181146152f257600084156152e0578287015490505b6152ea8582614c53565b86555061535d565b601f19841661530087615269565b965061530b86614ac3565b60005b828110156153335784890154825560018201915060018501945060208101905061530e565b86831015615350578489015461534c601f891682614c35565b8355505b6001600288020188555050505b5050505050505b565b7f4e487b7100000000000000000000000000000000000000000000000000000000600052603160045260246000fdfea26469706673582212200a983f3bbb1233f8602b72126c0f7a9b2c95b46fc21fc0087a78e39473be019364736f6c63430008180033",
  "linkReferences": {},
  "deployedLinkReferences": {}
}