{"contracts/MedSafe.sol":{"MedSafe":{"abi":[{"inputs":[],"stateMutability":"nonpayable","type":"constructor"},{"anonymous":false,"inputs":[{"indexed":false,"internalType":"uint256","name":"timestamp","type":"uint256"},{"indexed":false,"internalType":"string","name":"diagnosis","type":"string"},{"indexed":false,"internalType":"string","name":"treatment","type":"string"},{"indexed":false,"internalType":"string","name":"physicianId","type":"string"}],"name":"MedicalRecord_Saved","type":"event"},{"anonymous":false,"inputs":[{"indexed":false,"internalType":"string","name":"firstName","type":"string"},{"indexed":false,"internalType":"string","name":"lastName","type":"string"},{"indexed":false,"internalType":"string","name":"gender","type":"string"},{"indexed":false,"internalType":"string","name":"dateOfBirth","type":"string"},{"indexed":false,"internalType":"string","name":"contactAddress","type":"string"},{"indexed":false,"internalType":"string","name":"contactPhoneNumber","type":"string"},{"indexed":false,"internalType":"string","name":"emergencyContactName","type":"string"},{"indexed":false,"internalType":"string","name":"emergencyContactAddress","type":"string"},{"indexed":false,"internalType":"string","name":"emergencyContactPhone","type":"string"}],"name":"Patient_Saved","type":"event"},{"anonymous":false,"inputs":[{"indexed":false,"internalType":"string","name":"firstName","type":"string"},{"indexed":false,"internalType":"string","name":"lastName","type":"string"},{"indexed":false,"internalType":"string","name":"email","type":"string"},{"indexed":false,"internalType":"string","name":"gender","type":"string"},{"indexed":false,"internalType":"string","name":"specialty","type":"string"},{"indexed":false,"internalType":"uint256","name":"timestamp","type":"uint256"}],"name":"Physician_Saved","type":"event"},{"inputs":[{"internalType":"string","name":"patientUserId","type":"string"},{"components":[{"internalType":"uint256","name":"id","type":"uint256"},{"internalType":"uint256","name":"timestamp","type":"uint256"},{"internalType":"string","name":"diagnosis","type":"string"},{"internalType":"string","name":"treatment","type":"string"},{"internalType":"string","name":"physicianId","type":"string"}],"internalType":"struct MedSafe.MedicalRecord","name":"medicalRecord","type":"tuple"}],"name":"addMedicalRecords","outputs":[],"stateMutability":"nonpayable","type":"function"},{"inputs":[{"internalType":"string","name":"userId","type":"string"},{"components":[{"internalType":"string","name":"firstName","type":"string"},{"internalType":"string","name":"lastName","type":"string"},{"internalType":"string","name":"gender","type":"string"},{"internalType":"string","name":"dateOfBirth","type":"string"},{"internalType":"string","name":"contactAddress","type":"string"},{"internalType":"string","name":"contactPhoneNumber","type":"string"},{"internalType":"string","name":"emergencyContactName","type":"string"},{"internalType":"string","name":"emergencyContactAddress","type":"string"},{"internalType":"string","name":"emergencyContactPhone","type":"string"}],"internalType":"struct MedSafe.PatientProfile","name":"patientData","type":"tuple"}],"name":"addPatient","outputs":[],"stateMutability":"nonpayable","type":"function"},{"inputs":[{"internalType":"string","name":"userId","type":"string"},{"internalType":"string","name":"firstName","type":"string"},{"internalType":"string","name":"lastName","type":"string"},{"internalType":"string","name":"email","type":"string"},{"internalType":"string","name":"gender","type":"string"},{"internalType":"string","name":"specialty","type":"string"}],"name":"addPhysician","outputs":[],"stateMutability":"nonpayable","type":"function"},{"inputs":[{"internalType":"address","name":"userAddress","type":"address"}],"name":"doesUserExist","outputs":[{"internalType":"bool","name":"","type":"bool"}],"stateMutability":"view","type":"function"},{"inputs":[],"name":"getContractOwner","outputs":[{"internalType":"address","name":"","type":"address"}],"stateMutability":"view","type":"function"},{"inputs":[{"internalType":"string","name":"patientUserId","type":"string"}],"name":"getPatient","outputs":[{"components":[{"internalType":"string","name":"userId","type":"string"},{"components":[{"internalType":"string","name":"firstName","type":"string"},{"internalType":"string","name":"lastName","type":"string"},{"internalType":"string","name":"gender","type":"string"},{"internalType":"string","name":"dateOfBirth","type":"string"},{"internalType":"string","name":"contactAddress","type":"string"},{"internalType":"string","name":"contactPhoneNumber","type":"string"},{"internalType":"string","name":"emergencyContactName","type":"string"},{"internalType":"string","name":"emergencyContactAddress","type":"string"},{"internalType":"string","name":"emergencyContactPhone","type":"string"}],"internalType":"struct MedSafe.PatientProfile","name":"profile","type":"tuple"},{"internalType":"uint256","name":"timestamp","type":"uint256"}],"internalType":"struct MedSafe.Patient","name":"","type":"tuple"}],"stateMutability":"view","type":"function"},{"inputs":[],"name":"getPatientAuthorisedPhysician","outputs":[{"components":[{"internalType":"string","name":"userId","type":"string"},{"internalType":"string","name":"firstName","type":"string"},{"internalType":"string","name":"lastName","type":"string"},{"internalType":"string","name":"email","type":"string"},{"internalType":"string","name":"gender","type":"string"},{"internalType":"string","name":"specialty","type":"string"},{"internalType":"uint256","name":"timestamp","type":"uint256"}],"internalType":"struct MedSafe.Physician","name":"","type":"tuple"}],"stateMutability":"view","type":"function"},{"inputs":[{"internalType":"address","name":"patientAddress","type":"address"}],"name":"getPatientByAddress","outputs":[{"components":[{"internalType":"string","name":"userId","type":"string"},{"components":[{"internalType":"string","name":"firstName","type":"string"},{"internalType":"string","name":"lastName","type":"string"},{"internalType":"string","name":"gender","type":"string"},{"internalType":"string","name":"dateOfBirth","type":"string"},{"internalType":"string","name":"contactAddress","type":"string"},{"internalType":"string","name":"contactPhoneNumber","type":"string"},{"internalType":"string","name":"emergencyContactName","type":"string"},{"internalType":"string","name":"emergencyContactAddress","type":"string"},{"internalType":"string","name":"emergencyContactPhone","type":"string"}],"internalType":"struct MedSafe.PatientProfile","name":"profile","type":"tuple"},{"internalType":"uint256","name":"timestamp","type":"uint256"}],"internalType":"struct MedSafe.Patient","name":"","type":"tuple"}],"stateMutability":"view","type":"function"},{"inputs":[{"internalType":"string","name":"patientUserId","type":"string"}],"name":"getPatientRecords","outputs":[{"components":[{"internalType":"uint256","name":"id","type":"uint256"},{"internalType":"uint256","name":"timestamp","type":"uint256"},{"internalType":"string","name":"diagnosis","type":"string"},{"internalType":"string","name":"treatment","type":"string"},{"internalType":"string","name":"physicianId","type":"string"}],"internalType":"struct MedSafe.MedicalRecord[]","name":"","type":"tuple[]"}],"stateMutability":"view","type":"function"},{"inputs":[],"name":"getPatientsAssignedToPhysician","outputs":[{"components":[{"internalType":"string","name":"userId","type":"string"},{"components":[{"internalType":"string","name":"firstName","type":"string"},{"internalType":"string","name":"lastName","type":"string"},{"internalType":"string","name":"gender","type":"string"},{"internalType":"string","name":"dateOfBirth","type":"string"},{"internalType":"string","name":"contactAddress","type":"string"},{"internalType":"string","name":"contactPhoneNumber","type":"string"},{"internalType":"string","name":"emergencyContactName","type":"string"},{"internalType":"string","name":"emergencyContactAddress","type":"string"},{"internalType":"string","name":"emergencyContactPhone","type":"string"}],"internalType":"struct MedSafe.PatientProfile","name":"profile","type":"tuple"},{"internalType":"uint256","name":"timestamp","type":"uint256"}],"internalType":"struct MedSafe.Patient[]","name":"","type":"tuple[]"}],"stateMutability":"view","type":"function"},{"inputs":[{"internalType":"string","name":"userId","type":"string"}],"name":"getPhysician","outputs":[{"components":[{"internalType":"string","name":"userId","type":"string"},{"internalType":"string","name":"firstName","type":"string"},{"internalType":"string","name":"lastName","type":"string"},{"internalType":"string","name":"email","type":"string"},{"internalType":"string","name":"gender","type":"string"},{"internalType":"string","name":"specialty","type":"string"},{"internalType":"uint256","name":"timestamp","type":"uint256"}],"internalType":"struct MedSafe.Physician","name":"","type":"tuple"}],"stateMutability":"view","type":"function"},{"inputs":[{"internalType":"address","name":"patientAddress","type":"address"}],"name":"getPhysicianByAddress","outputs":[{"components":[{"internalType":"string","name":"userId","type":"string"},{"internalType":"string","name":"firstName","type":"string"},{"internalType":"string","name":"lastName","type":"string"},{"internalType":"string","name":"email","type":"string"},{"internalType":"string","name":"gender","type":"string"},{"internalType":"string","name":"specialty","type":"string"},{"internalType":"uint256","name":"timestamp","type":"uint256"}],"internalType":"struct MedSafe.Physician","name":"","type":"tuple"}],"stateMutability":"view","type":"function"},{"inputs":[{"internalType":"string","name":"userId","type":"string"}],"name":"getUserRole","outputs":[{"internalType":"uint8","name":"","type":"uint8"}],"stateMutability":"view","type":"function"},{"inputs":[{"internalType":"string","name":"patientUserId","type":"string"},{"internalType":"string","name":"physicianUserId","type":"string"}],"name":"setPatientAuthorisedPhysician","outputs":[],"stateMutability":"nonpayable","type":"function"},{"inputs":[],"name":"unsetPatientAuthorisedPhysician","outputs":[],"stateMutability":"nonpayable","type":"function"}],"evm":{"bytecode":{"linkReferences":{},"object":"60806040526001600060146101000a81548160ff021916908360ff1602179055506002600060156101000a81548160ff021916908360ff16021790555034801561004857600080fd5b50336000806101000a81548173ffffffffffffffffffffffffffffffffffffffff021916908373ffffffffffffffffffffffffffffffffffffffff1602179055506153cb806100986000396000f3fe608060405234801561001057600080fd5b50600436106100f55760003560e01c806388650fe011610097578063dd09842211610066578063dd09842214610270578063e79a7a2e1461028e578063ecb41054146102be578063f1729092146102ee576100f5565b806388650fe0146101ea578063ae4bcba214610206578063ba5c033514610222578063c452538614610252576100f5565b80632fced321116100d35780632fced32114610150578063357e129e1461016c578063442890d51461019c5780635cd40af5146101ba576100f5565b80630a76c7b8146100fa5780630a9a38281461012a5780631a0e960814610134575b600080fd5b610114600480360381019061010f9190613d07565b61031e565b6040516101219190613ea7565b60405180910390f35b610132610809565b005b61014e600480360381019061014991906140af565b610af5565b005b61016a60048036038101906101659190614127565b610d16565b005b61018660048036038101906101819190613d07565b610ed4565b60405161019391906141bb565b60405180910390f35b6101a4610f09565b6040516101b19190614217565b60405180910390f35b6101d460048036038101906101cf9190613d07565b610f32565b6040516101e19190614378565b60405180910390f35b61020460048036038101906101ff919061439a565b611396565b005b610220600480360381019061021b91906145db565b61151d565b005b61023c6004803603810190610237919061467f565b611798565b6040516102499190614800565b60405180910390f35b61025a611e70565b604051610267919061493b565b60405180910390f35b61027861281d565b6040516102859190613ea7565b60405180910390f35b6102a860048036038101906102a39190613d07565b612ec3565b6040516102b59190614800565b60405180910390f35b6102d860048036038101906102d3919061467f565b6134ce565b6040516102e59190614978565b60405180910390f35b6103086004803603810190610303919061467f565b613525565b6040516103159190613ea7565b60405180910390f35b610326613aa0565b6000600160003373ffffffffffffffffffffffffffffffffffffffff1673ffffffffffffffffffffffffffffffffffffffff1681526020019081526020016000208054610372906149c2565b80601f016020809104026020016040519081016040528092919081815260200182805461039e906149c2565b80156103eb5780601f106103c0576101008083540402835291602001916103eb565b820191906000526020600020905b8154815290600101906020018083116103ce57829003601f168201915b5050505050905080516006826040516104049190614a2f565b90815260200160405180910390206000018054610420906149c2565b905014610462576040517f08c379a000000000000000000000000000000000000000000000000000000000815260040161045990614aa3565b60405180910390fd5b6006836040516104729190614a2f565b90815260200160405180910390206040518060e001604052908160008201805461049b906149c2565b80601f01602080910402602001604051908101604052809291908181526020018280546104c7906149c2565b80156105145780601f106104e957610100808354040283529160200191610514565b820191906000526020600020905b8154815290600101906020018083116104f757829003601f168201915b5050505050815260200160018201805461052d906149c2565b80601f0160208091040260200160405190810160405280929190818152602001828054610559906149c2565b80156105a65780601f1061057b576101008083540402835291602001916105a6565b820191906000526020600020905b81548152906001019060200180831161058957829003601f168201915b505050505081526020016002820180546105bf906149c2565b80601f01602080910402602001604051908101604052809291908181526020018280546105eb906149c2565b80156106385780601f1061060d57610100808354040283529160200191610638565b820191906000526020600020905b81548152906001019060200180831161061b57829003601f168201915b50505050508152602001600382018054610651906149c2565b80601f016020809104026020016040519081016040528092919081815260200182805461067d906149c2565b80156106ca5780601f1061069f576101008083540402835291602001916106ca565b820191906000526020600020905b8154815290600101906020018083116106ad57829003601f168201915b505050505081526020016004820180546106e3906149c2565b80601f016020809104026020016040519081016040528092919081815260200182805461070f906149c2565b801561075c5780601f106107315761010080835404028352916020019161075c565b820191906000526020600020905b81548152906001019060200180831161073f57829003601f168201915b50505050508152602001600582018054610775906149c2565b80601f01602080910402602001604051908101604052809291908181526020018280546107a1906149c2565b80156107ee5780601f106107c3576101008083540402835291602001916107ee565b820191906000526020600020905b8154815290600101906020018083116107d157829003601f168201915b50505050508152602001600682015481525050915050919050565b6000600160003373ffffffffffffffffffffffffffffffffffffffff1673ffffffffffffffffffffffffffffffffffffffff1681526020019081526020016000208054610855906149c2565b80601f0160208091040260200160405190810160405280929190818152602001828054610881906149c2565b80156108ce5780601f106108a3576101008083540402835291602001916108ce565b820191906000526020600020905b8154815290600101906020018083116108b157829003601f168201915b5050505050905080516005826040516108e79190614a2f565b90815260200160405180910390206000018054610903906149c2565b905014610945576040517f08c379a000000000000000000000000000000000000000000000000000000000815260040161093c90614aa3565b60405180910390fd5b6000600160003373ffffffffffffffffffffffffffffffffffffffff1673ffffffffffffffffffffffffffffffffffffffff1681526020019081526020016000208054610991906149c2565b80601f01602080910402602001604051908101604052809291908181526020018280546109bd906149c2565b8015610a0a5780601f106109df57610100808354040283529160200191610a0a565b820191906000526020600020905b8154815290600101906020018083116109ed57829003601f168201915b505050505090506000600782604051610a239190614a2f565b90815260200160405180910390208054610a3c906149c2565b80601f0160208091040260200160405190810160405280929190818152602001828054610a68906149c2565b8015610ab55780601f10610a8a57610100808354040283529160200191610ab5565b820191906000526020600020905b815481529060010190602001808311610a9857829003601f168201915b50505050509050610ac681836139a0565b600782604051610ad69190614a2f565b90815260200160405180910390206000610af09190613add565b505050565b6000600583604051610b079190614a2f565b9081526020016040518091039020905082816000019081610b289190614c6f565b5081816001016000820151816000019081610b439190614c6f565b506020820151816001019081610b599190614c6f565b506040820151816002019081610b6f9190614c6f565b506060820151816003019081610b859190614c6f565b506080820151816004019081610b9b9190614c6f565b5060a0820151816005019081610bb19190614c6f565b5060c0820151816006019081610bc79190614c6f565b5060e0820151816007019081610bdd9190614c6f565b50610100820151816008019081610bf49190614c6f565b509050504281600a018190555082600160003373ffffffffffffffffffffffffffffffffffffffff1673ffffffffffffffffffffffffffffffffffffffff1681526020019081526020016000209081610c4d9190614c6f565b50600060149054906101000a900460ff16600284604051610c6e9190614a2f565b908152602001604051809103902060006101000a81548160ff021916908360ff1602179055507f01a8c025952a966c69d36fa7c6f5bb16aca9ed717770e073184c65071a764910816001016000018260010160010183600101600201846001016003018560010160040186600101600501876001016006018860010160070189600101600801604051610d0999989796959493929190614dc5565b60405180910390a1505050565b6000600160003373ffffffffffffffffffffffffffffffffffffffff1673ffffffffffffffffffffffffffffffffffffffff1681526020019081526020016000208054610d62906149c2565b80601f0160208091040260200160405190810160405280929190818152602001828054610d8e906149c2565b8015610ddb5780601f10610db057610100808354040283529160200191610ddb565b820191906000526020600020905b815481529060010190602001808311610dbe57829003601f168201915b505050505090508051600582604051610df49190614a2f565b90815260200160405180910390206000018054610e10906149c2565b905014610e52576040517f08c379a0000000000000000000000000000000000000000000000000000000008152600401610e4990614aa3565b60405180910390fd5b81600784604051610e639190614a2f565b90815260200160405180910390209081610e7d9190614c6f565b50600882604051610e8e9190614a2f565b908152602001604051809103902083908060018154018082558091505060019003906000526020600020016000909190919091509081610ece9190614c6f565b50505050565b6000600282604051610ee69190614a2f565b908152602001604051809103902060009054906101000a900460ff169050919050565b60008060009054906101000a900473ffffffffffffffffffffffffffffffffffffffff16905090565b60606000600160003373ffffffffffffffffffffffffffffffffffffffff1673ffffffffffffffffffffffffffffffffffffffff1681526020019081526020016000208054610f80906149c2565b80601f0160208091040260200160405190810160405280929190818152602001828054610fac906149c2565b8015610ff95780601f10610fce57610100808354040283529160200191610ff9565b820191906000526020600020905b815481529060010190602001808311610fdc57829003601f168201915b5050505050905060006002826040516110129190614a2f565b908152602001604051809103902060009054906101000a900460ff169050600060149054906101000a900460ff1660ff168160ff16036110c157815160058360405161105e9190614a2f565b9081526020016040518091039020600001805461107a906149c2565b9050146110bc576040517f08c379a00000000000000000000000000000000000000000000000000000000081526004016110b390614edd565b60405180910390fd5b61114f565b600060159054906101000a900460ff1660ff168160ff160361114e5781516006836040516110ef9190614a2f565b9081526020016040518091039020600001805461110b906149c2565b90501461114d576040517f08c379a000000000000000000000000000000000000000000000000000000000815260040161114490614f49565b60405180910390fd5b5b5b60038460405161115f9190614a2f565b9081526020016040518091039020805480602002602001604051908101604052809291908181526020016000905b8282101561138957838290600052602060002090600502016040518060a001604052908160008201548152602001600182015481526020016002820180546111d4906149c2565b80601f0160208091040260200160405190810160405280929190818152602001828054611200906149c2565b801561124d5780601f106112225761010080835404028352916020019161124d565b820191906000526020600020905b81548152906001019060200180831161123057829003601f168201915b50505050508152602001600382018054611266906149c2565b80601f0160208091040260200160405190810160405280929190818152602001828054611292906149c2565b80156112df5780601f106112b4576101008083540402835291602001916112df565b820191906000526020600020905b8154815290600101906020018083116112c257829003601f168201915b505050505081526020016004820180546112f8906149c2565b80601f0160208091040260200160405190810160405280929190818152602001828054611324906149c2565b80156113715780601f1061134657610100808354040283529160200191611371565b820191906000526020600020905b81548152906001019060200180831161135457829003601f168201915b5050505050815250508152602001906001019061118d565b5050505092505050919050565b60006006876040516113a89190614a2f565b90815260200160405180910390209050868160000190816113c99190614c6f565b50858160010190816113db9190614c6f565b50848160020190816113ed9190614c6f565b50838160030190816113ff9190614c6f565b50828160040190816114119190614c6f565b50818160050190816114239190614c6f565b5042816006018190555086600160003373ffffffffffffffffffffffffffffffffffffffff1673ffffffffffffffffffffffffffffffffffffffff16815260200190815260200160002090816114799190614c6f565b50600060159054906101000a900460ff1660028860405161149a9190614a2f565b908152602001604051809103902060006101000a81548160ff021916908360ff1602179055507f3451f868ab50a3ae497dd7479d4ffa96092d35abd6d66a27c665cb9f1d6084e68160010182600201836003018460040185600501866006015460405161150c96959493929190614f78565b60405180910390a150505050505050565b816000600160003373ffffffffffffffffffffffffffffffffffffffff1673ffffffffffffffffffffffffffffffffffffffff168152602001908152602001600020805461156a906149c2565b80601f0160208091040260200160405190810160405280929190818152602001828054611596906149c2565b80156115e35780601f106115b8576101008083540402835291602001916115e3565b820191906000526020600020905b8154815290600101906020018083116115c657829003601f168201915b5050505050905080516007836040516115fc9190614a2f565b90815260200160405180910390208054611615906149c2565b905014611657576040517f08c379a000000000000000000000000000000000000000000000000000000000815260040161164e9061506e565b60405180910390fd5b60006003856040516116699190614a2f565b9081526020016040518091039020905060006040518060a001604052806001848054905061169791906150bd565b815260200142815260200186604001518152602001866060015181526020018660800151815250905081819080600181540180825580915050600190039060005260206000209060050201600090919091909150600082015181600001556020820151816001015560408201518160020190816117149190614c6f565b50606082015181600301908161172a9190614c6f565b5060808201518160040190816117409190614c6f565b5050507f895595933c70a82909c268a32943034f17f463234ad5eac0a27f68bf4863d6908160200151826040015183606001518460800151604051611788949392919061512a565b60405180910390a1505050505050565b6117a0613b1d565b6000600160008473ffffffffffffffffffffffffffffffffffffffff1673ffffffffffffffffffffffffffffffffffffffff16815260200190815260200160002080546117ec906149c2565b80601f0160208091040260200160405190810160405280929190818152602001828054611818906149c2565b80156118655780601f1061183a57610100808354040283529160200191611865565b820191906000526020600020905b81548152906001019060200180831161184857829003601f168201915b5050505050905060058160405161187c9190614a2f565b90815260200160405180910390206040518060600160405290816000820180546118a5906149c2565b80601f01602080910402602001604051908101604052809291908181526020018280546118d1906149c2565b801561191e5780601f106118f35761010080835404028352916020019161191e565b820191906000526020600020905b81548152906001019060200180831161190157829003601f168201915b505050505081526020016001820160405180610120016040529081600082018054611948906149c2565b80601f0160208091040260200160405190810160405280929190818152602001828054611974906149c2565b80156119c15780601f10611996576101008083540402835291602001916119c1565b820191906000526020600020905b8154815290600101906020018083116119a457829003601f168201915b505050505081526020016001820180546119da906149c2565b80601f0160208091040260200160405190810160405280929190818152602001828054611a06906149c2565b8015611a535780601f10611a2857610100808354040283529160200191611a53565b820191906000526020600020905b815481529060010190602001808311611a3657829003601f168201915b50505050508152602001600282018054611a6c906149c2565b80601f0160208091040260200160405190810160405280929190818152602001828054611a98906149c2565b8015611ae55780601f10611aba57610100808354040283529160200191611ae5565b820191906000526020600020905b815481529060010190602001808311611ac857829003601f168201915b50505050508152602001600382018054611afe906149c2565b80601f0160208091040260200160405190810160405280929190818152602001828054611b2a906149c2565b8015611b775780601f10611b4c57610100808354040283529160200191611b77565b820191906000526020600020905b815481529060010190602001808311611b5a57829003601f168201915b50505050508152602001600482018054611b90906149c2565b80601f0160208091040260200160405190810160405280929190818152602001828054611bbc906149c2565b8015611c095780601f10611bde57610100808354040283529160200191611c09565b820191906000526020600020905b815481529060010190602001808311611bec57829003601f168201915b50505050508152602001600582018054611c22906149c2565b80601f0160208091040260200160405190810160405280929190818152602001828054611c4e906149c2565b8015611c9b5780601f10611c7057610100808354040283529160200191611c9b565b820191906000526020600020905b815481529060010190602001808311611c7e57829003601f168201915b50505050508152602001600682018054611cb4906149c2565b80601f0160208091040260200160405190810160405280929190818152602001828054611ce0906149c2565b8015611d2d5780601f10611d0257610100808354040283529160200191611d2d565b820191906000526020600020905b815481529060010190602001808311611d1057829003601f168201915b50505050508152602001600782018054611d46906149c2565b80601f0160208091040260200160405190810160405280929190818152602001828054611d72906149c2565b8015611dbf5780601f10611d9457610100808354040283529160200191611dbf565b820191906000526020600020905b815481529060010190602001808311611da257829003601f168201915b50505050508152602001600882018054611dd8906149c2565b80601f0160208091040260200160405190810160405280929190818152602001828054611e04906149c2565b8015611e515780601f10611e2657610100808354040283529160200191611e51565b820191906000526020600020905b815481529060010190602001808311611e3457829003601f168201915b5050505050815250508152602001600a82015481525050915050919050565b60606000600160003373ffffffffffffffffffffffffffffffffffffffff1673ffffffffffffffffffffffffffffffffffffffff1681526020019081526020016000208054611ebe906149c2565b80601f0160208091040260200160405190810160405280929190818152602001828054611eea906149c2565b8015611f375780601f10611f0c57610100808354040283529160200191611f37565b820191906000526020600020905b815481529060010190602001808311611f1a57829003601f168201915b505050505090508051600682604051611f509190614a2f565b90815260200160405180910390206000018054611f6c906149c2565b905014611fae576040517f08c379a0000000000000000000000000000000000000000000000000000000008152600401611fa590614aa3565b60405180910390fd5b6000600160003373ffffffffffffffffffffffffffffffffffffffff1673ffffffffffffffffffffffffffffffffffffffff1681526020019081526020016000208054611ffa906149c2565b80601f0160208091040260200160405190810160405280929190818152602001828054612026906149c2565b80156120735780601f1061204857610100808354040283529160200191612073565b820191906000526020600020905b81548152906001019060200180831161205657829003601f168201915b50505050509050600060088260405161208c9190614a2f565b9081526020016040518091039020805480602002602001604051908101604052809291908181526020016000905b828210156121665783829060005260206000200180546120d9906149c2565b80601f0160208091040260200160405190810160405280929190818152602001828054612105906149c2565b80156121525780601f1061212757610100808354040283529160200191612152565b820191906000526020600020905b81548152906001019060200180831161213557829003601f168201915b5050505050815260200190600101906120ba565b5050505090506000815167ffffffffffffffff81111561218957612188613bdc565b5b6040519080825280602002602001820160405280156121c257816020015b6121af613b1d565b8152602001906001900390816121a75790505b50905060005b82518110156128125760058382815181106121e6576121e5615184565b5b60200260200101516040516121fb9190614a2f565b9081526020016040518091039020604051806060016040529081600082018054612224906149c2565b80601f0160208091040260200160405190810160405280929190818152602001828054612250906149c2565b801561229d5780601f106122725761010080835404028352916020019161229d565b820191906000526020600020905b81548152906001019060200180831161228057829003601f168201915b5050505050815260200160018201604051806101200160405290816000820180546122c7906149c2565b80601f01602080910402602001604051908101604052809291908181526020018280546122f3906149c2565b80156123405780601f1061231557610100808354040283529160200191612340565b820191906000526020600020905b81548152906001019060200180831161232357829003601f168201915b50505050508152602001600182018054612359906149c2565b80601f0160208091040260200160405190810160405280929190818152602001828054612385906149c2565b80156123d25780601f106123a7576101008083540402835291602001916123d2565b820191906000526020600020905b8154815290600101906020018083116123b557829003601f168201915b505050505081526020016002820180546123eb906149c2565b80601f0160208091040260200160405190810160405280929190818152602001828054612417906149c2565b80156124645780601f1061243957610100808354040283529160200191612464565b820191906000526020600020905b81548152906001019060200180831161244757829003601f168201915b5050505050815260200160038201805461247d906149c2565b80601f01602080910402602001604051908101604052809291908181526020018280546124a9906149c2565b80156124f65780601f106124cb576101008083540402835291602001916124f6565b820191906000526020600020905b8154815290600101906020018083116124d957829003601f168201915b5050505050815260200160048201805461250f906149c2565b80601f016020809104026020016040519081016040528092919081815260200182805461253b906149c2565b80156125885780601f1061255d57610100808354040283529160200191612588565b820191906000526020600020905b81548152906001019060200180831161256b57829003601f168201915b505050505081526020016005820180546125a1906149c2565b80601f01602080910402602001604051908101604052809291908181526020018280546125cd906149c2565b801561261a5780601f106125ef5761010080835404028352916020019161261a565b820191906000526020600020905b8154815290600101906020018083116125fd57829003601f168201915b50505050508152602001600682018054612633906149c2565b80601f016020809104026020016040519081016040528092919081815260200182805461265f906149c2565b80156126ac5780601f10612681576101008083540402835291602001916126ac565b820191906000526020600020905b81548152906001019060200180831161268f57829003601f168201915b505050505081526020016007820180546126c5906149c2565b80601f01602080910402602001604051908101604052809291908181526020018280546126f1906149c2565b801561273e5780601f106127135761010080835404028352916020019161273e565b820191906000526020600020905b81548152906001019060200180831161272157829003601f168201915b50505050508152602001600882018054612757906149c2565b80601f0160208091040260200160405190810160405280929190818152602001828054612783906149c2565b80156127d05780601f106127a5576101008083540402835291602001916127d0565b820191906000526020600020905b8154815290600101906020018083116127b357829003601f168201915b5050505050815250508152602001600a820154815250508282815181106127fa576127f9615184565b5b602002602001018190525080806001019150506121c8565b508094505050505090565b612825613aa0565b6000600160003373ffffffffffffffffffffffffffffffffffffffff1673ffffffffffffffffffffffffffffffffffffffff1681526020019081526020016000208054612871906149c2565b80601f016020809104026020016040519081016040528092919081815260200182805461289d906149c2565b80156128ea5780601f106128bf576101008083540402835291602001916128ea565b820191906000526020600020905b8154815290600101906020018083116128cd57829003601f168201915b5050505050905080516005826040516129039190614a2f565b9081526020016040518091039020600001805461291f906149c2565b905014612961576040517f08c379a000000000000000000000000000000000000000000000000000000000815260040161295890614aa3565b60405180910390fd5b6000600160003373ffffffffffffffffffffffffffffffffffffffff1673ffffffffffffffffffffffffffffffffffffffff16815260200190815260200160002080546129ad906149c2565b80601f01602080910402602001604051908101604052809291908181526020018280546129d9906149c2565b8015612a265780601f106129fb57610100808354040283529160200191612a26565b820191906000526020600020905b815481529060010190602001808311612a0957829003601f168201915b505050505090506000600782604051612a3f9190614a2f565b90815260200160405180910390208054612a58906149c2565b80601f0160208091040260200160405190810160405280929190818152602001828054612a84906149c2565b8015612ad15780601f10612aa657610100808354040283529160200191612ad1565b820191906000526020600020905b815481529060010190602001808311612ab457829003601f168201915b505050505090506000815111612b1c576040517f08c379a0000000000000000000000000000000000000000000000000000000008152600401612b13906151ff565b60405180910390fd5b600681604051612b2c9190614a2f565b90815260200160405180910390206040518060e0016040529081600082018054612b55906149c2565b80601f0160208091040260200160405190810160405280929190818152602001828054612b81906149c2565b8015612bce5780601f10612ba357610100808354040283529160200191612bce565b820191906000526020600020905b815481529060010190602001808311612bb157829003601f168201915b50505050508152602001600182018054612be7906149c2565b80601f0160208091040260200160405190810160405280929190818152602001828054612c13906149c2565b8015612c605780601f10612c3557610100808354040283529160200191612c60565b820191906000526020600020905b815481529060010190602001808311612c4357829003601f168201915b50505050508152602001600282018054612c79906149c2565b80601f0160208091040260200160405190810160405280929190818152602001828054612ca5906149c2565b8015612cf25780601f10612cc757610100808354040283529160200191612cf2565b820191906000526020600020905b815481529060010190602001808311612cd557829003601f168201915b50505050508152602001600382018054612d0b906149c2565b80601f0160208091040260200160405190810160405280929190818152602001828054612d37906149c2565b8015612d845780601f10612d5957610100808354040283529160200191612d84565b820191906000526020600020905b815481529060010190602001808311612d6757829003601f168201915b50505050508152602001600482018054612d9d906149c2565b80601f0160208091040260200160405190810160405280929190818152602001828054612dc9906149c2565b8015612e165780601f10612deb57610100808354040283529160200191612e16565b820191906000526020600020905b815481529060010190602001808311612df957829003601f168201915b50505050508152602001600582018054612e2f906149c2565b80601f0160208091040260200160405190810160405280929190818152602001828054612e5b906149c2565b8015612ea85780601f10612e7d57610100808354040283529160200191612ea8565b820191906000526020600020905b815481529060010190602001808311612e8b57829003601f168201915b50505050508152602001600682015481525050935050505090565b612ecb613b1d565b600582604051612edb9190614a2f565b9081526020016040518091039020604051806060016040529081600082018054612f04906149c2565b80601f0160208091040260200160405190810160405280929190818152602001828054612f30906149c2565b8015612f7d5780601f10612f5257610100808354040283529160200191612f7d565b820191906000526020600020905b815481529060010190602001808311612f6057829003601f168201915b505050505081526020016001820160405180610120016040529081600082018054612fa7906149c2565b80601f0160208091040260200160405190810160405280929190818152602001828054612fd3906149c2565b80156130205780601f10612ff557610100808354040283529160200191613020565b820191906000526020600020905b81548152906001019060200180831161300357829003601f168201915b50505050508152602001600182018054613039906149c2565b80601f0160208091040260200160405190810160405280929190818152602001828054613065906149c2565b80156130b25780601f10613087576101008083540402835291602001916130b2565b820191906000526020600020905b81548152906001019060200180831161309557829003601f168201915b505050505081526020016002820180546130cb906149c2565b80601f01602080910402602001604051908101604052809291908181526020018280546130f7906149c2565b80156131445780601f1061311957610100808354040283529160200191613144565b820191906000526020600020905b81548152906001019060200180831161312757829003601f168201915b5050505050815260200160038201805461315d906149c2565b80601f0160208091040260200160405190810160405280929190818152602001828054613189906149c2565b80156131d65780601f106131ab576101008083540402835291602001916131d6565b820191906000526020600020905b8154815290600101906020018083116131b957829003601f168201915b505050505081526020016004820180546131ef906149c2565b80601f016020809104026020016040519081016040528092919081815260200182805461321b906149c2565b80156132685780601f1061323d57610100808354040283529160200191613268565b820191906000526020600020905b81548152906001019060200180831161324b57829003601f168201915b50505050508152602001600582018054613281906149c2565b80601f01602080910402602001604051908101604052809291908181526020018280546132ad906149c2565b80156132fa5780601f106132cf576101008083540402835291602001916132fa565b820191906000526020600020905b8154815290600101906020018083116132dd57829003601f168201915b50505050508152602001600682018054613313906149c2565b80601f016020809104026020016040519081016040528092919081815260200182805461333f906149c2565b801561338c5780601f106133615761010080835404028352916020019161338c565b820191906000526020600020905b81548152906001019060200180831161336f57829003601f168201915b505050505081526020016007820180546133a5906149c2565b80601f01602080910402602001604051908101604052809291908181526020018280546133d1906149c2565b801561341e5780601f106133f35761010080835404028352916020019161341e565b820191906000526020600020905b81548152906001019060200180831161340157829003601f168201915b50505050508152602001600882018054613437906149c2565b80601f0160208091040260200160405190810160405280929190818152602001828054613463906149c2565b80156134b05780601f10613485576101008083540402835291602001916134b0565b820191906000526020600020905b81548152906001019060200180831161349357829003601f168201915b5050505050815250508152602001600a820154815250509050919050565b600080600160008473ffffffffffffffffffffffffffffffffffffffff1673ffffffffffffffffffffffffffffffffffffffff168152602001908152602001600020805461351b906149c2565b9050119050919050565b61352d613aa0565b6000600160008473ffffffffffffffffffffffffffffffffffffffff1673ffffffffffffffffffffffffffffffffffffffff1681526020019081526020016000208054613579906149c2565b80601f01602080910402602001604051908101604052809291908181526020018280546135a5906149c2565b80156135f25780601f106135c7576101008083540402835291602001916135f2565b820191906000526020600020905b8154815290600101906020018083116135d557829003601f168201915b505050505090506006816040516136099190614a2f565b90815260200160405180910390206040518060e0016040529081600082018054613632906149c2565b80601f016020809104026020016040519081016040528092919081815260200182805461365e906149c2565b80156136ab5780601f10613680576101008083540402835291602001916136ab565b820191906000526020600020905b81548152906001019060200180831161368e57829003601f168201915b505050505081526020016001820180546136c4906149c2565b80601f01602080910402602001604051908101604052809291908181526020018280546136f0906149c2565b801561373d5780601f106137125761010080835404028352916020019161373d565b820191906000526020600020905b81548152906001019060200180831161372057829003601f168201915b50505050508152602001600282018054613756906149c2565b80601f0160208091040260200160405190810160405280929190818152602001828054613782906149c2565b80156137cf5780601f106137a4576101008083540402835291602001916137cf565b820191906000526020600020905b8154815290600101906020018083116137b257829003601f168201915b505050505081526020016003820180546137e8906149c2565b80601f0160208091040260200160405190810160405280929190818152602001828054613814906149c2565b80156138615780601f1061383657610100808354040283529160200191613861565b820191906000526020600020905b81548152906001019060200180831161384457829003601f168201915b5050505050815260200160048201805461387a906149c2565b80601f01602080910402602001604051908101604052809291908181526020018280546138a6906149c2565b80156138f35780601f106138c8576101008083540402835291602001916138f3565b820191906000526020600020905b8154815290600101906020018083116138d657829003601f168201915b5050505050815260200160058201805461390c906149c2565b80601f0160208091040260200160405190810160405280929190818152602001828054613938906149c2565b80156139855780601f1061395a57610100808354040283529160200191613985565b820191906000526020600020905b81548152906001019060200180831161396857829003601f168201915b50505050508152602001600682015481525050915050919050565b60006008836040516139b29190614a2f565b9081526020016040518091039020905060005b8180549050811015613a9a5782518282815481106139e6576139e5615184565b5b9060005260206000200180546139fb906149c2565b905003613a8d578160018380549050613a14919061521f565b81548110613a2557613a24615184565b5b90600052602060002001828281548110613a4257613a41615184565b5b906000526020600020019081613a58919061527e565b5081805480613a6a57613a69615366565b5b600190038181906000526020600020016000613a869190613add565b9055613a9a565b80806001019150506139c5565b50505050565b6040518060e00160405280606081526020016060815260200160608152602001606081526020016060815260200160608152602001600081525090565b508054613ae9906149c2565b6000825580601f10613afb5750613b1a565b601f016020900490600052602060002090810190613b199190613b44565b5b50565b604051806060016040528060608152602001613b37613b61565b8152602001600081525090565b5b80821115613b5d576000816000905550600101613b45565b5090565b6040518061012001604052806060815260200160608152602001606081526020016060815260200160608152602001606081526020016060815260200160608152602001606081525090565b6000604051905090565b600080fd5b600080fd5b600080fd5b600080fd5b6000601f19601f8301169050919050565b7f4e487b7100000000000000000000000000000000000000000000000000000000600052604160045260246000fd5b613c1482613bcb565b810181811067ffffffffffffffff82111715613c3357613c32613bdc565b5b80604052505050565b6000613c46613bad565b9050613c528282613c0b565b919050565b600067ffffffffffffffff821115613c7257613c71613bdc565b5b613c7b82613bcb565b9050602081019050919050565b82818337600083830152505050565b6000613caa613ca584613c57565b613c3c565b905082815260208101848484011115613cc657613cc5613bc6565b5b613cd1848285613c88565b509392505050565b600082601f830112613cee57613ced613bc1565b5b8135613cfe848260208601613c97565b91505092915050565b600060208284031215613d1d57613d1c613bb7565b5b600082013567ffffffffffffffff811115613d3b57613d3a613bbc565b5b613d4784828501613cd9565b91505092915050565b600081519050919050565b600082825260208201905092915050565b60005b83811015613d8a578082015181840152602081019050613d6f565b60008484015250505050565b6000613da182613d50565b613dab8185613d5b565b9350613dbb818560208601613d6c565b613dc481613bcb565b840191505092915050565b6000819050919050565b613de281613dcf565b82525050565b600060e0830160008301518482036000860152613e058282613d96565b91505060208301518482036020860152613e1f8282613d96565b91505060408301518482036040860152613e398282613d96565b91505060608301518482036060860152613e538282613d96565b91505060808301518482036080860152613e6d8282613d96565b91505060a083015184820360a0860152613e878282613d96565b91505060c0830151613e9c60c0860182613dd9565b508091505092915050565b60006020820190508181036000830152613ec18184613de8565b905092915050565b600080fd5b600080fd5b60006101208284031215613eea57613ee9613ec9565b5b613ef5610120613c3c565b9050600082013567ffffffffffffffff811115613f1557613f14613ece565b5b613f2184828501613cd9565b600083015250602082013567ffffffffffffffff811115613f4557613f44613ece565b5b613f5184828501613cd9565b602083015250604082013567ffffffffffffffff811115613f7557613f74613ece565b5b613f8184828501613cd9565b604083015250606082013567ffffffffffffffff811115613fa557613fa4613ece565b5b613fb184828501613cd9565b606083015250608082013567ffffffffffffffff811115613fd557613fd4613ece565b5b613fe184828501613cd9565b60808301525060a082013567ffffffffffffffff81111561400557614004613ece565b5b61401184828501613cd9565b60a08301525060c082013567ffffffffffffffff81111561403557614034613ece565b5b61404184828501613cd9565b60c08301525060e082013567ffffffffffffffff81111561406557614064613ece565b5b61407184828501613cd9565b60e08301525061010082013567ffffffffffffffff81111561409657614095613ece565b5b6140a284828501613cd9565b6101008301525092915050565b600080604083850312156140c6576140c5613bb7565b5b600083013567ffffffffffffffff8111156140e4576140e3613bbc565b5b6140f085828601613cd9565b925050602083013567ffffffffffffffff81111561411157614110613bbc565b5b61411d85828601613ed3565b9150509250929050565b6000806040838503121561413e5761413d613bb7565b5b600083013567ffffffffffffffff81111561415c5761415b613bbc565b5b61416885828601613cd9565b925050602083013567ffffffffffffffff81111561418957614188613bbc565b5b61419585828601613cd9565b9150509250929050565b600060ff82169050919050565b6141b58161419f565b82525050565b60006020820190506141d060008301846141ac565b92915050565b600073ffffffffffffffffffffffffffffffffffffffff82169050919050565b6000614201826141d6565b9050919050565b614211816141f6565b82525050565b600060208201905061422c6000830184614208565b92915050565b600081519050919050565b600082825260208201905092915050565b6000819050602082019050919050565b600060a0830160008301516142766000860182613dd9565b5060208301516142896020860182613dd9565b50604083015184820360408601526142a18282613d96565b915050606083015184820360608601526142bb8282613d96565b915050608083015184820360808601526142d58282613d96565b9150508091505092915050565b60006142ee838361425e565b905092915050565b6000602082019050919050565b600061430e82614232565b614318818561423d565b93508360208202850161432a8561424e565b8060005b85811015614366578484038952815161434785826142e2565b9450614352836142f6565b925060208a0199505060018101905061432e565b50829750879550505050505092915050565b600060208201905081810360008301526143928184614303565b905092915050565b60008060008060008060c087890312156143b7576143b6613bb7565b5b600087013567ffffffffffffffff8111156143d5576143d4613bbc565b5b6143e189828a01613cd9565b965050602087013567ffffffffffffffff81111561440257614401613bbc565b5b61440e89828a01613cd9565b955050604087013567ffffffffffffffff81111561442f5761442e613bbc565b5b61443b89828a01613cd9565b945050606087013567ffffffffffffffff81111561445c5761445b613bbc565b5b61446889828a01613cd9565b935050608087013567ffffffffffffffff81111561448957614488613bbc565b5b61449589828a01613cd9565b92505060a087013567ffffffffffffffff8111156144b6576144b5613bbc565b5b6144c289828a01613cd9565b9150509295509295509295565b6144d881613dcf565b81146144e357600080fd5b50565b6000813590506144f5816144cf565b92915050565b600060a0828403121561451157614510613ec9565b5b61451b60a0613c3c565b9050600061452b848285016144e6565b600083015250602061453f848285016144e6565b602083015250604082013567ffffffffffffffff81111561456357614562613ece565b5b61456f84828501613cd9565b604083015250606082013567ffffffffffffffff81111561459357614592613ece565b5b61459f84828501613cd9565b606083015250608082013567ffffffffffffffff8111156145c3576145c2613ece565b5b6145cf84828501613cd9565b60808301525092915050565b600080604083850312156145f2576145f1613bb7565b5b600083013567ffffffffffffffff8111156146105761460f613bbc565b5b61461c85828601613cd9565b925050602083013567ffffffffffffffff81111561463d5761463c613bbc565b5b614649858286016144fb565b9150509250929050565b61465c816141f6565b811461466757600080fd5b50565b60008135905061467981614653565b92915050565b60006020828403121561469557614694613bb7565b5b60006146a38482850161466a565b91505092915050565b60006101208301600083015184820360008601526146ca8282613d96565b915050602083015184820360208601526146e48282613d96565b915050604083015184820360408601526146fe8282613d96565b915050606083015184820360608601526147188282613d96565b915050608083015184820360808601526147328282613d96565b91505060a083015184820360a086015261474c8282613d96565b91505060c083015184820360c08601526147668282613d96565b91505060e083015184820360e08601526147808282613d96565b91505061010083015184820361010086015261479c8282613d96565b9150508091505092915050565b600060608301600083015184820360008601526147c68282613d96565b915050602083015184820360208601526147e082826146ac565b91505060408301516147f56040860182613dd9565b508091505092915050565b6000602082019050818103600083015261481a81846147a9565b905092915050565b600081519050919050565b600082825260208201905092915050565b6000819050602082019050919050565b6000606083016000830151848203600086015261486b8282613d96565b9150506020830151848203602086015261488582826146ac565b915050604083015161489a6040860182613dd9565b508091505092915050565b60006148b1838361484e565b905092915050565b6000602082019050919050565b60006148d182614822565b6148db818561482d565b9350836020820285016148ed8561483e565b8060005b85811015614929578484038952815161490a85826148a5565b9450614915836148b9565b925060208a019950506001810190506148f1565b50829750879550505050505092915050565b6000602082019050818103600083015261495581846148c6565b905092915050565b60008115159050919050565b6149728161495d565b82525050565b600060208201905061498d6000830184614969565b92915050565b7f4e487b7100000000000000000000000000000000000000000000000000000000600052602260045260246000fd5b600060028204905060018216806149da57607f821691505b6020821081036149ed576149ec614993565b5b50919050565b600081905092915050565b6000614a0982613d50565b614a1381856149f3565b9350614a23818560208601613d6c565b80840191505092915050565b6000614a3b82846149fe565b915081905092915050565b600082825260208201905092915050565b7f55736572206e6f7420616c6c6f77656421000000000000000000000000000000600082015250565b6000614a8d601183614a46565b9150614a9882614a57565b602082019050919050565b60006020820190508181036000830152614abc81614a80565b9050919050565b60008190508160005260206000209050919050565b60006020601f8301049050919050565b600082821b905092915050565b600060088302614b257fffffffffffffffffffffffffffffffffffffffffffffffffffffffffffffffff82614ae8565b614b2f8683614ae8565b95508019841693508086168417925050509392505050565b6000819050919050565b6000614b6c614b67614b6284613dcf565b614b47565b613dcf565b9050919050565b6000819050919050565b614b8683614b51565b614b9a614b9282614b73565b848454614af5565b825550505050565b600090565b614baf614ba2565b614bba818484614b7d565b505050565b5b81811015614bde57614bd3600082614ba7565b600181019050614bc0565b5050565b601f821115614c2357614bf481614ac3565b614bfd84614ad8565b81016020851015614c0c578190505b614c20614c1885614ad8565b830182614bbf565b50505b505050565b600082821c905092915050565b6000614c4660001984600802614c28565b1980831691505092915050565b6000614c5f8383614c35565b9150826002028217905092915050565b614c7882613d50565b67ffffffffffffffff811115614c9157614c90613bdc565b5b614c9b82546149c2565b614ca6828285614be2565b600060209050601f831160018114614cd95760008415614cc7578287015190505b614cd18582614c53565b865550614d39565b601f198416614ce786614ac3565b60005b82811015614d0f57848901518255600182019150602085019450602081019050614cea565b86831015614d2c5784890151614d28601f891682614c35565b8355505b6001600288020188555050505b505050505050565b60008154614d4e816149c2565b614d588186614a46565b94506001821660008114614d735760018114614d8957614dbc565b60ff198316865281151560200286019350614dbc565b614d9285614ac3565b60005b83811015614db457815481890152600182019150602081019050614d95565b808801955050505b50505092915050565b6000610120820190508181036000830152614de0818c614d41565b90508181036020830152614df4818b614d41565b90508181036040830152614e08818a614d41565b90508181036060830152614e1c8189614d41565b90508181036080830152614e308188614d41565b905081810360a0830152614e448187614d41565b905081810360c0830152614e588186614d41565b905081810360e0830152614e6c8185614d41565b9050818103610100830152614e818184614d41565b90509a9950505050505050505050565b7f50617469656e74206e6f7420616c6c6f77656421000000000000000000000000600082015250565b6000614ec7601483614a46565b9150614ed282614e91565b602082019050919050565b60006020820190508181036000830152614ef681614eba565b9050919050565b7f50687973696369616e206e6f7420616c6c6f7765642100000000000000000000600082015250565b6000614f33601683614a46565b9150614f3e82614efd565b602082019050919050565b60006020820190508181036000830152614f6281614f26565b9050919050565b614f7281613dcf565b82525050565b600060c0820190508181036000830152614f928189614d41565b90508181036020830152614fa68188614d41565b90508181036040830152614fba8187614d41565b90508181036060830152614fce8186614d41565b90508181036080830152614fe28185614d41565b9050614ff160a0830184614f69565b979650505050505050565b7f50687973696369616e206973206e6f7420617574686f7269736564206279207060008201527f617469656e740000000000000000000000000000000000000000000000000000602082015250565b6000615058602683614a46565b915061506382614ffc565b604082019050919050565b600060208201905081810360008301526150878161504b565b9050919050565b7f4e487b7100000000000000000000000000000000000000000000000000000000600052601160045260246000fd5b60006150c882613dcf565b91506150d383613dcf565b92508282019050808211156150eb576150ea61508e565b5b92915050565b60006150fc82613d50565b6151068185614a46565b9350615116818560208601613d6c565b61511f81613bcb565b840191505092915050565b600060808201905061513f6000830187614f69565b818103602083015261515181866150f1565b9050818103604083015261516581856150f1565b9050818103606083015261517981846150f1565b905095945050505050565b7f4e487b7100000000000000000000000000000000000000000000000000000000600052603260045260246000fd5b7f4e6f2061737369676e65642070687973696369616e20666f756e642100000000600082015250565b60006151e9601c83614a46565b91506151f4826151b3565b602082019050919050565b60006020820190508181036000830152615218816151dc565b9050919050565b600061522a82613dcf565b915061523583613dcf565b925082820390508181111561524d5761524c61508e565b5b92915050565b600081549050615262816149c2565b9050919050565b60008190508160005260206000209050919050565b81810361528c575050615364565b61529582615253565b67ffffffffffffffff8111156152ae576152ad613bdc565b5b6152b882546149c2565b6152c3828285614be2565b6000601f8311600181146152f257600084156152e0578287015490505b6152ea8582614c53565b86555061535d565b601f19841661530087615269565b965061530b86614ac3565b60005b828110156153335784890154825560018201915060018501945060208101905061530e565b86831015615350578489015461534c601f891682614c35565b8355505b6001600288020188555050505b5050505050505b565b7f4e487b7100000000000000000000000000000000000000000000000000000000600052603160045260246000fdfea26469706673582212200a983f3bbb1233f8602b72126c0f7a9b2c95b46fc21fc0087a78e39473be019364736f6c63430008180033","opcodes":"PUSH1 0x80 PUSH1 0x40 MSTORE PUSH1 0x1 PUSH1 0x0 PUSH1 0x14 PUSH2 0x100 EXP DUP2 SLOAD DUP2 PUSH1 0xFF MUL NOT AND SWAP1 DUP4 PUSH1 0xFF AND MUL OR SWAP1 SSTORE POP PUSH1 0x2 PUSH1 0x0 PUSH1 0x15 PUSH2 0x100 EXP DUP2 SLOAD DUP2 PUSH1 0xFF MUL NOT AND SWAP1 DUP4 PUSH1 0xFF AND MUL OR SWAP1 SSTORE POP CALLVALUE DUP1 ISZERO PUSH2 0x48 JUMPI PUSH1 0x0 DUP1 REVERT JUMPDEST POP CALLER PUSH1 0x0 DUP1 PUSH2 0x100 EXP DUP2 SLOAD DUP2 PUSH20 0xFFFFFFFFFFFFFFFFFFFFFFFFFFFFFFFFFFFFFFFF MUL NOT AND SWAP1 DUP4 PUSH20 0xFFFFFFFFFFFFFFFFFFFFFFFFFFFFFFFFFFFFFFFF AND MUL OR SWAP1 SSTORE POP PUSH2 0x53CB DUP1 PUSH2 0x98 PUSH1 0x0 CODECOPY PUSH1 0x0 RETURN INVALID PUSH1 0x80 PUSH1 0x40 MSTORE CALLVALUE DUP1 ISZERO PUSH2 0x10 JUMPI PUSH1 0x0 DUP1 REVERT JUMPDEST POP PUSH1 0x4 CALLDATASIZE LT PUSH2 0xF5 JUMPI PUSH1 0x0 CALLDATALOAD PUSH1 0xE0 SHR DUP1 PUSH4 0x88650FE0 GT PUSH2 0x97 JUMPI DUP1 PUSH4 0xDD098422 GT PUSH2 0x66 JUMPI DUP1 PUSH4 0xDD098422 EQ PUSH2 0x270 JUMPI DUP1 PUSH4 0xE79A7A2E EQ PUSH2 0x28E JUMPI DUP1 PUSH4 0xECB41054 EQ PUSH2 0x2BE JUMPI DUP1 PUSH4 0xF1729092 EQ PUSH2 0x2EE JUMPI PUSH2 0xF5 JUMP JUMPDEST DUP1 PUSH4 0x88650FE0 EQ PUSH2 0x1EA JUMPI DUP1 PUSH4 0xAE4BCBA2 EQ PUSH2 0x206 JUMPI DUP1 PUSH4 0xBA5C0335 EQ PUSH2 0x222 JUMPI DUP1 PUSH4 0xC4525386 EQ PUSH2 0x252 JUMPI PUSH2 0xF5 JUMP JUMPDEST DUP1 PUSH4 0x2FCED321 GT PUSH2 0xD3 JUMPI DUP1 PUSH4 0x2FCED321 EQ PUSH2 0x150 JUMPI DUP1 PUSH4 0x357E129E EQ PUSH2 0x16C JUMPI DUP1 PUSH4 0x442890D5 EQ PUSH2 0x19C JUMPI DUP1 PUSH4 0x5CD40AF5 EQ PUSH2 0x1BA JUMPI PUSH2 0xF5 JUMP JUMPDEST DUP1 PUSH4 0xA76C7B8 EQ PUSH2 0xFA JUMPI DUP1 PUSH4 0xA9A3828 EQ PUSH2 0x12A JUMPI DUP1 PUSH4 0x1A0E9608 EQ PUSH2 0x134 JUMPI JUMPDEST PUSH1 0x0 DUP1 REVERT JUMPDEST PUSH2 0x114 PUSH1 0x4 DUP1 CALLDATASIZE SUB DUP2 ADD SWAP1 PUSH2 0x10F SWAP2 SWAP1 PUSH2 0x3D07 JUMP JUMPDEST PUSH2 0x31E JUMP JUMPDEST PUSH1 0x40 MLOAD PUSH2 0x121 SWAP2 SWAP1 PUSH2 0x3EA7 JUMP JUMPDEST PUSH1 0x40 MLOAD DUP1 SWAP2 SUB SWAP1 RETURN JUMPDEST PUSH2 0x132 PUSH2 0x809 JUMP JUMPDEST STOP JUMPDEST PUSH2 0x14E PUSH1 0x4 DUP1 CALLDATASIZE SUB DUP2 ADD SWAP1 PUSH2 0x149 SWAP2 SWAP1 PUSH2 0x40AF JUMP JUMPDEST PUSH2 0xAF5 JUMP JUMPDEST STOP JUMPDEST PUSH2 0x16A PUSH1 0x4 DUP1 CALLDATASIZE SUB DUP2 ADD SWAP1 PUSH2 0x165 SWAP2 SWAP1 PUSH2 0x4127 JUMP JUMPDEST PUSH2 0xD16 JUMP JUMPDEST STOP JUMPDEST PUSH2 0x186 PUSH1 0x4 DUP1 CALLDATASIZE SUB DUP2 ADD SWAP1 PUSH2 0x181 SWAP2 SWAP1 PUSH2 0x3D07 JUMP JUMPDEST PUSH2 0xED4 JUMP JUMPDEST PUSH1 0x40 MLOAD PUSH2 0x193 SWAP2 SWAP1 PUSH2 0x41BB JUMP JUMPDEST PUSH1 0x40 MLOAD DUP1 SWAP2 SUB SWAP1 RETURN JUMPDEST PUSH2 0x1A4 PUSH2 0xF09 JUMP JUMPDEST PUSH1 0x40 MLOAD PUSH2 0x1B1 SWAP2 SWAP1 PUSH2 0x4217 JUMP JUMPDEST PUSH1 0x40 MLOAD DUP1 SWAP2 SUB SWAP1 RETURN JUMPDEST PUSH2 0x1D4 PUSH1 0x4 DUP1 CALLDATASIZE SUB DUP2 ADD SWAP1 PUSH2 0x1CF SWAP2 SWAP1 PUSH2 0x3D07 JUMP JUMPDEST PUSH2 0xF32 JUMP JUMPDEST PUSH1 0x40 MLOAD PUSH2 0x1E1 SWAP2 SWAP1 PUSH2 0x4378 JUMP JUMPDEST PUSH1 0x40 MLOAD DUP1 SWAP2 SUB SWAP1 RETURN JUMPDEST PUSH2 0x204 PUSH1 0x4 DUP1 CALLDATASIZE SUB DUP2 ADD SWAP1 PUSH2 0x1FF SWAP2 SWAP1 PUSH2 0x439A JUMP JUMPDEST PUSH2 0x1396 JUMP JUMPDEST STOP JUMPDEST PUSH2 0x220 PUSH1 0x4 DUP1 CALLDATASIZE SUB DUP2 ADD SWAP1 PUSH2 0x21B SWAP2 SWAP1 PUSH2 0x45DB JUMP JUMPDEST PUSH2 0x151D JUMP JUMPDEST STOP JUMPDEST PUSH2 0x23C PUSH1 0x4 DUP1 CALLDATASIZE SUB DUP2 ADD SWAP1 PUSH2 0x237 SWAP2 SWAP1 PUSH2 0x467F JUMP JUMPDEST PUSH2 0x1798 JUMP JUMPDEST PUSH1 0x40 MLOAD PUSH2 0x249 SWAP2 SWAP1 PUSH2 0x4800 JUMP JUMPDEST PUSH1 0x40 MLOAD DUP1 SWAP2 SUB SWAP1 RETURN JUMPDEST PUSH2 0x25A PUSH2 0x1E70 JUMP JUMPDEST PUSH1 0x40 MLOAD PUSH2 0x267 SWAP2 SWAP1 PUSH2 0x493B JUMP JUMPDEST PUSH1 0x40 MLOAD DUP1 SWAP2 SUB SWAP1 RETURN JUMPDEST PUSH2 0x278 PUSH2 0x281D JUMP JUMPDEST PUSH1 0x40 MLOAD PUSH2 0x285 SWAP2 SWAP1 PUSH2 0x3EA7 JUMP JUMPDEST PUSH1 0x40 MLOAD DUP1 SWAP2 SUB SWAP1 RETURN JUMPDEST PUSH2 0x2A8 PUSH1 0x4 DUP1 CALLDATASIZE SUB DUP2 ADD SWAP1 PUSH2 0x2A3 SWAP2 SWAP1 PUSH2 0x3D07 JUMP JUMPDEST PUSH2 0x2EC3 JUMP JUMPDEST PUSH1 0x40 MLOAD PUSH2 0x2B5 SWAP2 SWAP1 PUSH2 0x4800 JUMP JUMPDEST PUSH1 0x40 MLOAD DUP1 SWAP2 SUB SWAP1 RETURN JUMPDEST PUSH2 0x2D8 PUSH1 0x4 DUP1 CALLDATASIZE SUB DUP2 ADD SWAP1 PUSH2 0x2D3 SWAP2 SWAP1 PUSH2 0x467F JUMP JUMPDEST PUSH2 0x34CE JUMP JUMPDEST PUSH1 0x40 MLOAD PUSH2 0x2E5 SWAP2 SWAP1 PUSH2 0x4978 JUMP JUMPDEST PUSH1 0x40 MLOAD DUP1 SWAP2 SUB SWAP1 RETURN JUMPDEST PUSH2 0x308 PUSH1 0x4 DUP1 CALLDATASIZE SUB DUP2 ADD SWAP1 PUSH2 0x303 SWAP2 SWAP1 PUSH2 0x467F JUMP JUMPDEST PUSH2 0x3525 JUMP JUMPDEST PUSH1 0x40 MLOAD PUSH2 0x315 SWAP2 SWAP1 PUSH2 0x3EA7 JUMP JUMPDEST PUSH1 0x40 MLOAD DUP1 SWAP2 SUB SWAP1 RETURN JUMPDEST PUSH2 0x326 PUSH2 0x3AA0 JUMP JUMPDEST PUSH1 0x0 PUSH1 0x1 PUSH1 0x0 CALLER PUSH20 0xFFFFFFFFFFFFFFFFFFFFFFFFFFFFFFFFFFFFFFFF AND PUSH20 0xFFFFFFFFFFFFFFFFFFFFFFFFFFFFFFFFFFFFFFFF AND DUP2 MSTORE PUSH1 0x20 ADD SWAP1 DUP2 MSTORE PUSH1 0x20 ADD PUSH1 0x0 KECCAK256 DUP1 SLOAD PUSH2 0x372 SWAP1 PUSH2 0x49C2 JUMP JUMPDEST DUP1 PUSH1 0x1F ADD PUSH1 0x20 DUP1 SWAP2 DIV MUL PUSH1 0x20 ADD PUSH1 0x40 MLOAD SWAP1 DUP2 ADD PUSH1 0x40 MSTORE DUP1 SWAP3 SWAP2 SWAP1 DUP2 DUP2 MSTORE PUSH1 0x20 ADD DUP3 DUP1 SLOAD PUSH2 0x39E SWAP1 PUSH2 0x49C2 JUMP JUMPDEST DUP1 ISZERO PUSH2 0x3EB JUMPI DUP1 PUSH1 0x1F LT PUSH2 0x3C0 JUMPI PUSH2 0x100 DUP1 DUP4 SLOAD DIV MUL DUP4 MSTORE SWAP2 PUSH1 0x20 ADD SWAP2 PUSH2 0x3EB JUMP JUMPDEST DUP3 ADD SWAP2 SWAP1 PUSH1 0x0 MSTORE PUSH1 0x20 PUSH1 0x0 KECCAK256 SWAP1 JUMPDEST DUP2 SLOAD DUP2 MSTORE SWAP1 PUSH1 0x1 ADD SWAP1 PUSH1 0x20 ADD DUP1 DUP4 GT PUSH2 0x3CE JUMPI DUP3 SWAP1 SUB PUSH1 0x1F AND DUP3 ADD SWAP2 JUMPDEST POP POP POP POP POP SWAP1 POP DUP1 MLOAD PUSH1 0x6 DUP3 PUSH1 0x40 MLOAD PUSH2 0x404 SWAP2 SWAP1 PUSH2 0x4A2F JUMP JUMPDEST SWAP1 DUP2 MSTORE PUSH1 0x20 ADD PUSH1 0x40 MLOAD DUP1 SWAP2 SUB SWAP1 KECCAK256 PUSH1 0x0 ADD DUP1 SLOAD PUSH2 0x420 SWAP1 PUSH2 0x49C2 JUMP JUMPDEST SWAP1 POP EQ PUSH2 0x462 JUMPI PUSH1 0x40 MLOAD PUSH32 0x8C379A000000000000000000000000000000000000000000000000000000000 DUP2 MSTORE PUSH1 0x4 ADD PUSH2 0x459 SWAP1 PUSH2 0x4AA3 JUMP JUMPDEST PUSH1 0x40 MLOAD DUP1 SWAP2 SUB SWAP1 REVERT JUMPDEST PUSH1 0x6 DUP4 PUSH1 0x40 MLOAD PUSH2 0x472 SWAP2 SWAP1 PUSH2 0x4A2F JUMP JUMPDEST SWAP1 DUP2 MSTORE PUSH1 0x20 ADD PUSH1 0x40 MLOAD DUP1 SWAP2 SUB SWAP1 KECCAK256 PUSH1 0x40 MLOAD DUP1 PUSH1 0xE0 ADD PUSH1 0x40 MSTORE SWAP1 DUP2 PUSH1 0x0 DUP3 ADD DUP1 SLOAD PUSH2 0x49B SWAP1 PUSH2 0x49C2 JUMP JUMPDEST DUP1 PUSH1 0x1F ADD PUSH1 0x20 DUP1 SWAP2 DIV MUL PUSH1 0x20 ADD PUSH1 0x40 MLOAD SWAP1 DUP2 ADD PUSH1 0x40 MSTORE DUP1 SWAP3 SWAP2 SWAP1 DUP2 DUP2 MSTORE PUSH1 0x20 ADD DUP3 DUP1 SLOAD PUSH2 0x4C7 SWAP1 PUSH2 0x49C2 JUMP JUMPDEST DUP1 ISZERO PUSH2 0x514 JUMPI DUP1 PUSH1 0x1F LT PUSH2 0x4E9 JUMPI PUSH2 0x100 DUP1 DUP4 SLOAD DIV MUL DUP4 MSTORE SWAP2 PUSH1 0x20 ADD SWAP2 PUSH2 0x514 JUMP JUMPDEST DUP3 ADD SWAP2 SWAP1 PUSH1 0x0 MSTORE PUSH1 0x20 PUSH1 0x0 KECCAK256 SWAP1 JUMPDEST DUP2 SLOAD DUP2 MSTORE SWAP1 PUSH1 0x1 ADD SWAP1 PUSH1 0x20 ADD DUP1 DUP4 GT PUSH2 0x4F7 JUMPI DUP3 SWAP1 SUB PUSH1 0x1F AND DUP3 ADD SWAP2 JUMPDEST POP POP POP POP POP DUP2 MSTORE PUSH1 0x20 ADD PUSH1 0x1 DUP3 ADD DUP1 SLOAD PUSH2 0x52D SWAP1 PUSH2 0x49C2 JUMP JUMPDEST DUP1 PUSH1 0x1F ADD PUSH1 0x20 DUP1 SWAP2 DIV MUL PUSH1 0x20 ADD PUSH1 0x40 MLOAD SWAP1 DUP2 ADD PUSH1 0x40 MSTORE DUP1 SWAP3 SWAP2 SWAP1 DUP2 DUP2 MSTORE PUSH1 0x20 ADD DUP3 DUP1 SLOAD PUSH2 0x559 SWAP1 PUSH2 0x49C2 JUMP JUMPDEST DUP1 ISZERO PUSH2 0x5A6 JUMPI DUP1 PUSH1 0x1F LT PUSH2 0x57B JUMPI PUSH2 0x100 DUP1 DUP4 SLOAD DIV MUL DUP4 MSTORE SWAP2 PUSH1 0x20 ADD SWAP2 PUSH2 0x5A6 JUMP JUMPDEST DUP3 ADD SWAP2 SWAP1 PUSH1 0x0 MSTORE PUSH1 0x20 PUSH1 0x0 KECCAK256 SWAP1 JUMPDEST DUP2 SLOAD DUP2 MSTORE SWAP1 PUSH1 0x1 ADD SWAP1 PUSH1 0x20 ADD DUP1 DUP4 GT PUSH2 0x589 JUMPI DUP3 SWAP1 SUB PUSH1 0x1F AND DUP3 ADD SWAP2 JUMPDEST POP POP POP POP POP DUP2 MSTORE PUSH1 0x20 ADD PUSH1 0x2 DUP3 ADD DUP1 SLOAD PUSH2 0x5BF SWAP1 PUSH2 0x49C2 JUMP JUMPDEST DUP1 PUSH1 0x1F ADD PUSH1 0x20 DUP1 SWAP2 DIV MUL PUSH1 0x20 ADD PUSH1 0x40 MLOAD SWAP1 DUP2 ADD PUSH1 0x40 MSTORE DUP1 SWAP3 SWAP2 SWAP1 DUP2 DUP2 MSTORE PUSH1 0x20 ADD DUP3 DUP1 SLOAD PUSH2 0x5EB SWAP1 PUSH2 0x49C2 JUMP JUMPDEST DUP1 ISZERO PUSH2 0x638 JUMPI DUP1 PUSH1 0x1F LT PUSH2 0x60D JUMPI PUSH2 0x100 DUP1 DUP4 SLOAD DIV MUL DUP4 MSTORE SWAP2 PUSH1 0x20 ADD SWAP2 PUSH2 0x638 JUMP JUMPDEST DUP3 ADD SWAP2 SWAP1 PUSH1 0x0 MSTORE PUSH1 0x20 PUSH1 0x0 KECCAK256 SWAP1 JUMPDEST DUP2 SLOAD DUP2 MSTORE SWAP1 PUSH1 0x1 ADD SWAP1 PUSH1 0x20 ADD DUP1 DUP4 GT PUSH2 0x61B JUMPI DUP3 SWAP1 SUB PUSH1 0x1F AND DUP3 ADD SWAP2 JUMPDEST POP POP POP POP POP DUP2 MSTORE PUSH1 0x20 ADD PUSH1 0x3 DUP3 ADD DUP1 SLOAD PUSH2 0x651 SWAP1 PUSH2 0x49C2 JUMP JUMPDEST DUP1 PUSH1 0x1F ADD PUSH1 0x20 DUP1 SWAP2 DIV MUL PUSH1 0x20 ADD PUSH1 0x40 MLOAD SWAP1 DUP2 ADD PUSH1 0x40 MSTORE DUP1 SWAP3 SWAP2 SWAP1 DUP2 DUP2 MSTORE PUSH1 0x20 ADD DUP3 DUP1 SLOAD PUSH2 0x67D SWAP1 PUSH2 0x49C2 JUMP JUMPDEST DUP1 ISZERO PUSH2 0x6CA JUMPI DUP1 PUSH1 0x1F LT PUSH2 0x69F JUMPI PUSH2 0x100 DUP1 DUP4 SLOAD DIV MUL DUP4 MSTORE SWAP2 PUSH1 0x20 ADD SWAP2 PUSH2 0x6CA JUMP JUMPDEST DUP3 ADD SWAP2 SWAP1 PUSH1 0x0 MSTORE PUSH1 0x20 PUSH1 0x0 KECCAK256 SWAP1 JUMPDEST DUP2 SLOAD DUP2 MSTORE SWAP1 PUSH1 0x1 ADD SWAP1 PUSH1 0x20 ADD DUP1 DUP4 GT PUSH2 0x6AD JUMPI DUP3 SWAP1 SUB PUSH1 0x1F AND DUP3 ADD SWAP2 JUMPDEST POP POP POP POP POP DUP2 MSTORE PUSH1 0x20 ADD PUSH1 0x4 DUP3 ADD DUP1 SLOAD PUSH2 0x6E3 SWAP1 PUSH2 0x49C2 JUMP JUMPDEST DUP1 PUSH1 0x1F ADD PUSH1 0x20 DUP1 SWAP2 DIV MUL PUSH1 0x20 ADD PUSH1 0x40 MLOAD SWAP1 DUP2 ADD PUSH1 0x40 MSTORE DUP1 SWAP3 SWAP2 SWAP1 DUP2 DUP2 MSTORE PUSH1 0x20 ADD DUP3 DUP1 SLOAD PUSH2 0x70F SWAP1 PUSH2 0x49C2 JUMP JUMPDEST DUP1 ISZERO PUSH2 0x75C JUMPI DUP1 PUSH1 0x1F LT PUSH2 0x731 JUMPI PUSH2 0x100 DUP1 DUP4 SLOAD DIV MUL DUP4 MSTORE SWAP2 PUSH1 0x20 ADD SWAP2 PUSH2 0x75C JUMP JUMPDEST DUP3 ADD SWAP2 SWAP1 PUSH1 0x0 MSTORE PUSH1 0x20 PUSH1 0x0 KECCAK256 SWAP1 JUMPDEST DUP2 SLOAD DUP2 MSTORE SWAP1 PUSH1 0x1 ADD SWAP1 PUSH1 0x20 ADD DUP1 DUP4 GT PUSH2 0x73F JUMPI DUP3 SWAP1 SUB PUSH1 0x1F AND DUP3 ADD SWAP2 JUMPDEST POP POP POP POP POP DUP2 MSTORE PUSH1 0x20 ADD PUSH1 0x5 DUP3 ADD DUP1 SLOAD PUSH2 0x775 SWAP1 PUSH2 0x49C2 JUMP JUMPDEST DUP1 PUSH1 0x1F ADD PUSH1 0x20 DUP1 SWAP2 DIV MUL PUSH1 0x20 ADD PUSH1 0x40 MLOAD SWAP1 DUP2 ADD PUSH1 0x40 MSTORE DUP1 SWAP3 SWAP2 SWAP1 DUP2 DUP2 MSTORE PUSH1 0x20 ADD DUP3 DUP1 SLOAD PUSH2 0x7A1 SWAP1 PUSH2 0x49C2 JUMP JUMPDEST DUP1 ISZERO PUSH2 0x7EE JUMPI DUP1 PUSH1 0x1F LT PUSH2 0x7C3 JUMPI PUSH2 0x100 DUP1 DUP4 SLOAD DIV MUL DUP4 MSTORE SWAP2 PUSH1 0x20 ADD SWAP2 PUSH2 0x7EE JUMP JUMPDEST DUP3 ADD SWAP2 SWAP1 PUSH1 0x0 MSTORE PUSH1 0x20 PUSH1 0x0 KECCAK256 SWAP1 JUMPDEST DUP2 SLOAD DUP2 MSTORE SWAP1 PUSH1 0x1 ADD SWAP1 PUSH1 0x20 ADD DUP1 DUP4 GT PUSH2 0x7D1 JUMPI DUP3 SWAP1 SUB PUSH1 0x1F AND DUP3 ADD SWAP2 JUMPDEST POP POP POP POP POP DUP2 MSTORE PUSH1 0x20 ADD PUSH1 0x6 DUP3 ADD SLOAD DUP2 MSTORE POP POP SWAP2 POP POP SWAP2 SWAP1 POP JUMP JUMPDEST PUSH1 0x0 PUSH1 0x1 PUSH1 0x0 CALLER PUSH20 0xFFFFFFFFFFFFFFFFFFFFFFFFFFFFFFFFFFFFFFFF AND PUSH20 0xFFFFFFFFFFFFFFFFFFFFFFFFFFFFFFFFFFFFFFFF AND DUP2 MSTORE PUSH1 0x20 ADD SWAP1 DUP2 MSTORE PUSH1 0x20 ADD PUSH1 0x0 KECCAK256 DUP1 SLOAD PUSH2 0x855 SWAP1 PUSH2 0x49C2 JUMP JUMPDEST DUP1 PUSH1 0x1F ADD PUSH1 0x20 DUP1 SWAP2 DIV MUL PUSH1 0x20 ADD PUSH1 0x40 MLOAD SWAP1 DUP2 ADD PUSH1 0x40 MSTORE DUP1 SWAP3 SWAP2 SWAP1 DUP2 DUP2 MSTORE PUSH1 0x20 ADD DUP3 DUP1 SLOAD PUSH2 0x881 SWAP1 PUSH2 0x49C2 JUMP JUMPDEST DUP1 ISZERO PUSH2 0x8CE JUMPI DUP1 PUSH1 0x1F LT PUSH2 0x8A3 JUMPI PUSH2 0x100 DUP1 DUP4 SLOAD DIV MUL DUP4 MSTORE SWAP2 PUSH1 0x20 ADD SWAP2 PUSH2 0x8CE JUMP JUMPDEST DUP3 ADD SWAP2 SWAP1 PUSH1 0x0 MSTORE PUSH1 0x20 PUSH1 0x0 KECCAK256 SWAP1 JUMPDEST DUP2 SLOAD DUP2 MSTORE SWAP1 PUSH1 0x1 ADD SWAP1 PUSH1 0x20 ADD DUP1 DUP4 GT PUSH2 0x8B1 JUMPI DUP3 SWAP1 SUB PUSH1 0x1F AND DUP3 ADD SWAP2 JUMPDEST POP POP POP POP POP SWAP1 POP DUP1 MLOAD PUSH1 0x5 DUP3 PUSH1 0x40 MLOAD PUSH2 0x8E7 SWAP2 SWAP1 PUSH2 0x4A2F JUMP JUMPDEST SWAP1 DUP2 MSTORE PUSH1 0x20 ADD PUSH1 0x40 MLOAD DUP1 SWAP2 SUB SWAP1 KECCAK256 PUSH1 0x0 ADD DUP1 SLOAD PUSH2 0x903 SWAP1 PUSH2 0x49C2 JUMP JUMPDEST SWAP1 POP EQ PUSH2 0x945 JUMPI PUSH1 0x40 MLOAD PUSH32 0x8C379A000000000000000000000000000000000000000000000000000000000 DUP2 MSTORE PUSH1 0x4 ADD PUSH2 0x93C SWAP1 PUSH2 0x4AA3 JUMP JUMPDEST PUSH1 0x40 MLOAD DUP1 SWAP2 SUB SWAP1 REVERT JUMPDEST PUSH1 0x0 PUSH1 0x1 PUSH1 0x0 CALLER PUSH20 0xFFFFFFFFFFFFFFFFFFFFFFFFFFFFFFFFFFFFFFFF AND PUSH20 0xFFFFFFFFFFFFFFFFFFFFFFFFFFFFFFFFFFFFFFFF AND DUP2 MSTORE PUSH1 0x20 ADD SWAP1 DUP2 MSTORE PUSH1 0x20 ADD PUSH1 0x0 KECCAK256 DUP1 SLOAD PUSH2 0x991 SWAP1 PUSH2 0x49C2 JUMP JUMPDEST DUP1 PUSH1 0x1F ADD PUSH1 0x20 DUP1 SWAP2 DIV MUL PUSH1 0x20 ADD PUSH1 0x40 MLOAD SWAP1 DUP2 ADD PUSH1 0x40 MSTORE DUP1 SWAP3 SWAP2 SWAP1 DUP2 DUP2 MSTORE PUSH1 0x20 ADD DUP3 DUP1 SLOAD PUSH2 0x9BD SWAP1 PUSH2 0x49C2 JUMP JUMPDEST DUP1 ISZERO PUSH2 0xA0A JUMPI DUP1 PUSH1 0x1F LT PUSH2 0x9DF JUMPI PUSH2 0x100 DUP1 DUP4 SLOAD DIV MUL DUP4 MSTORE SWAP2 PUSH1 0x20 ADD SWAP2 PUSH2 0xA0A JUMP JUMPDEST DUP3 ADD SWAP2 SWAP1 PUSH1 0x0 MSTORE PUSH1 0x20 PUSH1 0x0 KECCAK256 SWAP1 JUMPDEST DUP2 SLOAD DUP2 MSTORE SWAP1 PUSH1 0x1 ADD SWAP1 PUSH1 0x20 ADD DUP1 DUP4 GT PUSH2 0x9ED JUMPI DUP3 SWAP1 SUB PUSH1 0x1F AND DUP3 ADD SWAP2 JUMPDEST POP POP POP POP POP SWAP1 POP PUSH1 0x0 PUSH1 0x7 DUP3 PUSH1 0x40 MLOAD PUSH2 0xA23 SWAP2 SWAP1 PUSH2 0x4A2F JUMP JUMPDEST SWAP1 DUP2 MSTORE PUSH1 0x20 ADD PUSH1 0x40 MLOAD DUP1 SWAP2 SUB SWAP1 KECCAK256 DUP1 SLOAD PUSH2 0xA3C SWAP1 PUSH2 0x49C2 JUMP JUMPDEST DUP1 PUSH1 0x1F ADD PUSH1 0x20 DUP1 SWAP2 DIV MUL PUSH1 0x20 ADD PUSH1 0x40 MLOAD SWAP1 DUP2 ADD PUSH1 0x40 MSTORE DUP1 SWAP3 SWAP2 SWAP1 DUP2 DUP2 MSTORE PUSH1 0x20 ADD DUP3 DUP1 SLOAD PUSH2 0xA68 SWAP1 PUSH2 0x49C2 JUMP JUMPDEST DUP1 ISZERO PUSH2 0xAB5 JUMPI DUP1 PUSH1 0x1F LT PUSH2 0xA8A JUMPI PUSH2 0x100 DUP1 DUP4 SLOAD DIV MUL DUP4 MSTORE SWAP2 PUSH1 0x20 ADD SWAP2 PUSH2 0xAB5 JUMP JUMPDEST DUP3 ADD SWAP2 SWAP1 PUSH1 0x0 MSTORE PUSH1 0x20 PUSH1 0x0 KECCAK256 SWAP1 JUMPDEST DUP2 SLOAD DUP2 MSTORE SWAP1 PUSH1 0x1 ADD SWAP1 PUSH1 0x20 ADD DUP1 DUP4 GT PUSH2 0xA98 JUMPI DUP3 SWAP1 SUB PUSH1 0x1F AND DUP3 ADD SWAP2 JUMPDEST POP POP POP POP POP SWAP1 POP PUSH2 0xAC6 DUP2 DUP4 PUSH2 0x39A0 JUMP JUMPDEST PUSH1 0x7 DUP3 PUSH1 0x40 MLOAD PUSH2 0xAD6 SWAP2 SWAP1 PUSH2 0x4A2F JUMP JUMPDEST SWAP1 DUP2 MSTORE PUSH1 0x20 ADD PUSH1 0x40 MLOAD DUP1 SWAP2 SUB SWAP1 KECCAK256 PUSH1 0x0 PUSH2 0xAF0 SWAP2 SWAP1 PUSH2 0x3ADD JUMP JUMPDEST POP POP POP JUMP JUMPDEST PUSH1 0x0 PUSH1 0x5 DUP4 PUSH1 0x40 MLOAD PUSH2 0xB07 SWAP2 SWAP1 PUSH2 0x4A2F JUMP JUMPDEST SWAP1 DUP2 MSTORE PUSH1 0x20 ADD PUSH1 0x40 MLOAD DUP1 SWAP2 SUB SWAP1 KECCAK256 SWAP1 POP DUP3 DUP2 PUSH1 0x0 ADD SWAP1 DUP2 PUSH2 0xB28 SWAP2 SWAP1 PUSH2 0x4C6F JUMP JUMPDEST POP DUP2 DUP2 PUSH1 0x1 ADD PUSH1 0x0 DUP3 ADD MLOAD DUP2 PUSH1 0x0 ADD SWAP1 DUP2 PUSH2 0xB43 SWAP2 SWAP1 PUSH2 0x4C6F JUMP JUMPDEST POP PUSH1 0x20 DUP3 ADD MLOAD DUP2 PUSH1 0x1 ADD SWAP1 DUP2 PUSH2 0xB59 SWAP2 SWAP1 PUSH2 0x4C6F JUMP JUMPDEST POP PUSH1 0x40 DUP3 ADD MLOAD DUP2 PUSH1 0x2 ADD SWAP1 DUP2 PUSH2 0xB6F SWAP2 SWAP1 PUSH2 0x4C6F JUMP JUMPDEST POP PUSH1 0x60 DUP3 ADD MLOAD DUP2 PUSH1 0x3 ADD SWAP1 DUP2 PUSH2 0xB85 SWAP2 SWAP1 PUSH2 0x4C6F JUMP JUMPDEST POP PUSH1 0x80 DUP3 ADD MLOAD DUP2 PUSH1 0x4 ADD SWAP1 DUP2 PUSH2 0xB9B SWAP2 SWAP1 PUSH2 0x4C6F JUMP JUMPDEST POP PUSH1 0xA0 DUP3 ADD MLOAD DUP2 PUSH1 0x5 ADD SWAP1 DUP2 PUSH2 0xBB1 SWAP2 SWAP1 PUSH2 0x4C6F JUMP JUMPDEST POP PUSH1 0xC0 DUP3 ADD MLOAD DUP2 PUSH1 0x6 ADD SWAP1 DUP2 PUSH2 0xBC7 SWAP2 SWAP1 PUSH2 0x4C6F JUMP JUMPDEST POP PUSH1 0xE0 DUP3 ADD MLOAD DUP2 PUSH1 0x7 ADD SWAP1 DUP2 PUSH2 0xBDD SWAP2 SWAP1 PUSH2 0x4C6F JUMP JUMPDEST POP PUSH2 0x100 DUP3 ADD MLOAD DUP2 PUSH1 0x8 ADD SWAP1 DUP2 PUSH2 0xBF4 SWAP2 SWAP1 PUSH2 0x4C6F JUMP JUMPDEST POP SWAP1 POP POP TIMESTAMP DUP2 PUSH1 0xA ADD DUP2 SWAP1 SSTORE POP DUP3 PUSH1 0x1 PUSH1 0x0 CALLER PUSH20 0xFFFFFFFFFFFFFFFFFFFFFFFFFFFFFFFFFFFFFFFF AND PUSH20 0xFFFFFFFFFFFFFFFFFFFFFFFFFFFFFFFFFFFFFFFF AND DUP2 MSTORE PUSH1 0x20 ADD SWAP1 DUP2 MSTORE PUSH1 0x20 ADD PUSH1 0x0 KECCAK256 SWAP1 DUP2 PUSH2 0xC4D SWAP2 SWAP1 PUSH2 0x4C6F JUMP JUMPDEST POP PUSH1 0x0 PUSH1 0x14 SWAP1 SLOAD SWAP1 PUSH2 0x100 EXP SWAP1 DIV PUSH1 0xFF AND PUSH1 0x2 DUP5 PUSH1 0x40 MLOAD PUSH2 0xC6E SWAP2 SWAP1 PUSH2 0x4A2F JUMP JUMPDEST SWAP1 DUP2 MSTORE PUSH1 0x20 ADD PUSH1 0x40 MLOAD DUP1 SWAP2 SUB SWAP1 KECCAK256 PUSH1 0x0 PUSH2 0x100 EXP DUP2 SLOAD DUP2 PUSH1 0xFF MUL NOT AND SWAP1 DUP4 PUSH1 0xFF AND MUL OR SWAP1 SSTORE POP PUSH32 0x1A8C025952A966C69D36FA7C6F5BB16ACA9ED717770E073184C65071A764910 DUP2 PUSH1 0x1 ADD PUSH1 0x0 ADD DUP3 PUSH1 0x1 ADD PUSH1 0x1 ADD DUP4 PUSH1 0x1 ADD PUSH1 0x2 ADD DUP5 PUSH1 0x1 ADD PUSH1 0x3 ADD DUP6 PUSH1 0x1 ADD PUSH1 0x4 ADD DUP7 PUSH1 0x1 ADD PUSH1 0x5 ADD DUP8 PUSH1 0x1 ADD PUSH1 0x6 ADD DUP9 PUSH1 0x1 ADD PUSH1 0x7 ADD DUP10 PUSH1 0x1 ADD PUSH1 0x8 ADD PUSH1 0x40 MLOAD PUSH2 0xD09 SWAP10 SWAP9 SWAP8 SWAP7 SWAP6 SWAP5 SWAP4 SWAP3 SWAP2 SWAP1 PUSH2 0x4DC5 JUMP JUMPDEST PUSH1 0x40 MLOAD DUP1 SWAP2 SUB SWAP1 LOG1 POP POP POP JUMP JUMPDEST PUSH1 0x0 PUSH1 0x1 PUSH1 0x0 CALLER PUSH20 0xFFFFFFFFFFFFFFFFFFFFFFFFFFFFFFFFFFFFFFFF AND PUSH20 0xFFFFFFFFFFFFFFFFFFFFFFFFFFFFFFFFFFFFFFFF AND DUP2 MSTORE PUSH1 0x20 ADD SWAP1 DUP2 MSTORE PUSH1 0x20 ADD PUSH1 0x0 KECCAK256 DUP1 SLOAD PUSH2 0xD62 SWAP1 PUSH2 0x49C2 JUMP JUMPDEST DUP1 PUSH1 0x1F ADD PUSH1 0x20 DUP1 SWAP2 DIV MUL PUSH1 0x20 ADD PUSH1 0x40 MLOAD SWAP1 DUP2 ADD PUSH1 0x40 MSTORE DUP1 SWAP3 SWAP2 SWAP1 DUP2 DUP2 MSTORE PUSH1 0x20 ADD DUP3 DUP1 SLOAD PUSH2 0xD8E SWAP1 PUSH2 0x49C2 JUMP JUMPDEST DUP1 ISZERO PUSH2 0xDDB JUMPI DUP1 PUSH1 0x1F LT PUSH2 0xDB0 JUMPI PUSH2 0x100 DUP1 DUP4 SLOAD DIV MUL DUP4 MSTORE SWAP2 PUSH1 0x20 ADD SWAP2 PUSH2 0xDDB JUMP JUMPDEST DUP3 ADD SWAP2 SWAP1 PUSH1 0x0 MSTORE PUSH1 0x20 PUSH1 0x0 KECCAK256 SWAP1 JUMPDEST DUP2 SLOAD DUP2 MSTORE SWAP1 PUSH1 0x1 ADD SWAP1 PUSH1 0x20 ADD DUP1 DUP4 GT PUSH2 0xDBE JUMPI DUP3 SWAP1 SUB PUSH1 0x1F AND DUP3 ADD SWAP2 JUMPDEST POP POP POP POP POP SWAP1 POP DUP1 MLOAD PUSH1 0x5 DUP3 PUSH1 0x40 MLOAD PUSH2 0xDF4 SWAP2 SWAP1 PUSH2 0x4A2F JUMP JUMPDEST SWAP1 DUP2 MSTORE PUSH1 0x20 ADD PUSH1 0x40 MLOAD DUP1 SWAP2 SUB SWAP1 KECCAK256 PUSH1 0x0 ADD DUP1 SLOAD PUSH2 0xE10 SWAP1 PUSH2 0x49C2 JUMP JUMPDEST SWAP1 POP EQ PUSH2 0xE52 JUMPI PUSH1 0x40 MLOAD PUSH32 0x8C379A000000000000000000000000000000000000000000000000000000000 DUP2 MSTORE PUSH1 0x4 ADD PUSH2 0xE49 SWAP1 PUSH2 0x4AA3 JUMP JUMPDEST PUSH1 0x40 MLOAD DUP1 SWAP2 SUB SWAP1 REVERT JUMPDEST DUP2 PUSH1 0x7 DUP5 PUSH1 0x40 MLOAD PUSH2 0xE63 SWAP2 SWAP1 PUSH2 0x4A2F JUMP JUMPDEST SWAP1 DUP2 MSTORE PUSH1 0x20 ADD PUSH1 0x40 MLOAD DUP1 SWAP2 SUB SWAP1 KECCAK256 SWAP1 DUP2 PUSH2 0xE7D SWAP2 SWAP1 PUSH2 0x4C6F JUMP JUMPDEST POP PUSH1 0x8 DUP3 PUSH1 0x40 MLOAD PUSH2 0xE8E SWAP2 SWAP1 PUSH2 0x4A2F JUMP JUMPDEST SWAP1 DUP2 MSTORE PUSH1 0x20 ADD PUSH1 0x40 MLOAD DUP1 SWAP2 SUB SWAP1 KECCAK256 DUP4 SWAP1 DUP1 PUSH1 0x1 DUP2 SLOAD ADD DUP1 DUP3 SSTORE DUP1 SWAP2 POP POP PUSH1 0x1 SWAP1 SUB SWAP1 PUSH1 0x0 MSTORE PUSH1 0x20 PUSH1 0x0 KECCAK256 ADD PUSH1 0x0 SWAP1 SWAP2 SWAP1 SWAP2 SWAP1 SWAP2 POP SWAP1 DUP2 PUSH2 0xECE SWAP2 SWAP1 PUSH2 0x4C6F JUMP JUMPDEST POP POP POP POP JUMP JUMPDEST PUSH1 0x0 PUSH1 0x2 DUP3 PUSH1 0x40 MLOAD PUSH2 0xEE6 SWAP2 SWAP1 PUSH2 0x4A2F JUMP JUMPDEST SWAP1 DUP2 MSTORE PUSH1 0x20 ADD PUSH1 0x40 MLOAD DUP1 SWAP2 SUB SWAP1 KECCAK256 PUSH1 0x0 SWAP1 SLOAD SWAP1 PUSH2 0x100 EXP SWAP1 DIV PUSH1 0xFF AND SWAP1 POP SWAP2 SWAP1 POP JUMP JUMPDEST PUSH1 0x0 DUP1 PUSH1 0x0 SWAP1 SLOAD SWAP1 PUSH2 0x100 EXP SWAP1 DIV PUSH20 0xFFFFFFFFFFFFFFFFFFFFFFFFFFFFFFFFFFFFFFFF AND SWAP1 POP SWAP1 JUMP JUMPDEST PUSH1 0x60 PUSH1 0x0 PUSH1 0x1 PUSH1 0x0 CALLER PUSH20 0xFFFFFFFFFFFFFFFFFFFFFFFFFFFFFFFFFFFFFFFF AND PUSH20 0xFFFFFFFFFFFFFFFFFFFFFFFFFFFFFFFFFFFFFFFF AND DUP2 MSTORE PUSH1 0x20 ADD SWAP1 DUP2 MSTORE PUSH1 0x20 ADD PUSH1 0x0 KECCAK256 DUP1 SLOAD PUSH2 0xF80 SWAP1 PUSH2 0x49C2 JUMP JUMPDEST DUP1 PUSH1 0x1F ADD PUSH1 0x20 DUP1 SWAP2 DIV MUL PUSH1 0x20 ADD PUSH1 0x40 MLOAD SWAP1 DUP2 ADD PUSH1 0x40 MSTORE DUP1 SWAP3 SWAP2 SWAP1 DUP2 DUP2 MSTORE PUSH1 0x20 ADD DUP3 DUP1 SLOAD PUSH2 0xFAC SWAP1 PUSH2 0x49C2 JUMP JUMPDEST DUP1 ISZERO PUSH2 0xFF9 JUMPI DUP1 PUSH1 0x1F LT PUSH2 0xFCE JUMPI PUSH2 0x100 DUP1 DUP4 SLOAD DIV MUL DUP4 MSTORE SWAP2 PUSH1 0x20 ADD SWAP2 PUSH2 0xFF9 JUMP JUMPDEST DUP3 ADD SWAP2 SWAP1 PUSH1 0x0 MSTORE PUSH1 0x20 PUSH1 0x0 KECCAK256 SWAP1 JUMPDEST DUP2 SLOAD DUP2 MSTORE SWAP1 PUSH1 0x1 ADD SWAP1 PUSH1 0x20 ADD DUP1 DUP4 GT PUSH2 0xFDC JUMPI DUP3 SWAP1 SUB PUSH1 0x1F AND DUP3 ADD SWAP2 JUMPDEST POP POP POP POP POP SWAP1 POP PUSH1 0x0 PUSH1 0x2 DUP3 PUSH1 0x40 MLOAD PUSH2 0x1012 SWAP2 SWAP1 PUSH2 0x4A2F JUMP JUMPDEST SWAP1 DUP2 MSTORE PUSH1 0x20 ADD PUSH1 0x40 MLOAD DUP1 SWAP2 SUB SWAP1 KECCAK256 PUSH1 0x0 SWAP1 SLOAD SWAP1 PUSH2 0x100 EXP SWAP1 DIV PUSH1 0xFF AND SWAP1 POP PUSH1 0x0 PUSH1 0x14 SWAP1 SLOAD SWAP1 PUSH2 0x100 EXP SWAP1 DIV PUSH1 0xFF AND PUSH1 0xFF AND DUP2 PUSH1 0xFF AND SUB PUSH2 0x10C1 JUMPI DUP2 MLOAD PUSH1 0x5 DUP4 PUSH1 0x40 MLOAD PUSH2 0x105E SWAP2 SWAP1 PUSH2 0x4A2F JUMP JUMPDEST SWAP1 DUP2 MSTORE PUSH1 0x20 ADD PUSH1 0x40 MLOAD DUP1 SWAP2 SUB SWAP1 KECCAK256 PUSH1 0x0 ADD DUP1 SLOAD PUSH2 0x107A SWAP1 PUSH2 0x49C2 JUMP JUMPDEST SWAP1 POP EQ PUSH2 0x10BC JUMPI PUSH1 0x40 MLOAD PUSH32 0x8C379A000000000000000000000000000000000000000000000000000000000 DUP2 MSTORE PUSH1 0x4 ADD PUSH2 0x10B3 SWAP1 PUSH2 0x4EDD JUMP JUMPDEST PUSH1 0x40 MLOAD DUP1 SWAP2 SUB SWAP1 REVERT JUMPDEST PUSH2 0x114F JUMP JUMPDEST PUSH1 0x0 PUSH1 0x15 SWAP1 SLOAD SWAP1 PUSH2 0x100 EXP SWAP1 DIV PUSH1 0xFF AND PUSH1 0xFF AND DUP2 PUSH1 0xFF AND SUB PUSH2 0x114E JUMPI DUP2 MLOAD PUSH1 0x6 DUP4 PUSH1 0x40 MLOAD PUSH2 0x10EF SWAP2 SWAP1 PUSH2 0x4A2F JUMP JUMPDEST SWAP1 DUP2 MSTORE PUSH1 0x20 ADD PUSH1 0x40 MLOAD DUP1 SWAP2 SUB SWAP1 KECCAK256 PUSH1 0x0 ADD DUP1 SLOAD PUSH2 0x110B SWAP1 PUSH2 0x49C2 JUMP JUMPDEST SWAP1 POP EQ PUSH2 0x114D JUMPI PUSH1 0x40 MLOAD PUSH32 0x8C379A000000000000000000000000000000000000000000000000000000000 DUP2 MSTORE PUSH1 0x4 ADD PUSH2 0x1144 SWAP1 PUSH2 0x4F49 JUMP JUMPDEST PUSH1 0x40 MLOAD DUP1 SWAP2 SUB SWAP1 REVERT JUMPDEST JUMPDEST JUMPDEST PUSH1 0x3 DUP5 PUSH1 0x40 MLOAD PUSH2 0x115F SWAP2 SWAP1 PUSH2 0x4A2F JUMP JUMPDEST SWAP1 DUP2 MSTORE PUSH1 0x20 ADD PUSH1 0x40 MLOAD DUP1 SWAP2 SUB SWAP1 KECCAK256 DUP1 SLOAD DUP1 PUSH1 0x20 MUL PUSH1 0x20 ADD PUSH1 0x40 MLOAD SWAP1 DUP2 ADD PUSH1 0x40 MSTORE DUP1 SWAP3 SWAP2 SWAP1 DUP2 DUP2 MSTORE PUSH1 0x20 ADD PUSH1 0x0 SWAP1 JUMPDEST DUP3 DUP3 LT ISZERO PUSH2 0x1389 JUMPI DUP4 DUP3 SWAP1 PUSH1 0x0 MSTORE PUSH1 0x20 PUSH1 0x0 KECCAK256 SWAP1 PUSH1 0x5 MUL ADD PUSH1 0x40 MLOAD DUP1 PUSH1 0xA0 ADD PUSH1 0x40 MSTORE SWAP1 DUP2 PUSH1 0x0 DUP3 ADD SLOAD DUP2 MSTORE PUSH1 0x20 ADD PUSH1 0x1 DUP3 ADD SLOAD DUP2 MSTORE PUSH1 0x20 ADD PUSH1 0x2 DUP3 ADD DUP1 SLOAD PUSH2 0x11D4 SWAP1 PUSH2 0x49C2 JUMP JUMPDEST DUP1 PUSH1 0x1F ADD PUSH1 0x20 DUP1 SWAP2 DIV MUL PUSH1 0x20 ADD PUSH1 0x40 MLOAD SWAP1 DUP2 ADD PUSH1 0x40 MSTORE DUP1 SWAP3 SWAP2 SWAP1 DUP2 DUP2 MSTORE PUSH1 0x20 ADD DUP3 DUP1 SLOAD PUSH2 0x1200 SWAP1 PUSH2 0x49C2 JUMP JUMPDEST DUP1 ISZERO PUSH2 0x124D JUMPI DUP1 PUSH1 0x1F LT PUSH2 0x1222 JUMPI PUSH2 0x100 DUP1 DUP4 SLOAD DIV MUL DUP4 MSTORE SWAP2 PUSH1 0x20 ADD SWAP2 PUSH2 0x124D JUMP JUMPDEST DUP3 ADD SWAP2 SWAP1 PUSH1 0x0 MSTORE PUSH1 0x20 PUSH1 0x0 KECCAK256 SWAP1 JUMPDEST DUP2 SLOAD DUP2 MSTORE SWAP1 PUSH1 0x1 ADD SWAP1 PUSH1 0x20 ADD DUP1 DUP4 GT PUSH2 0x1230 JUMPI DUP3 SWAP1 SUB PUSH1 0x1F AND DUP3 ADD SWAP2 JUMPDEST POP POP POP POP POP DUP2 MSTORE PUSH1 0x20 ADD PUSH1 0x3 DUP3 ADD DUP1 SLOAD PUSH2 0x1266 SWAP1 PUSH2 0x49C2 JUMP JUMPDEST DUP1 PUSH1 0x1F ADD PUSH1 0x20 DUP1 SWAP2 DIV MUL PUSH1 0x20 ADD PUSH1 0x40 MLOAD SWAP1 DUP2 ADD PUSH1 0x40 MSTORE DUP1 SWAP3 SWAP2 SWAP1 DUP2 DUP2 MSTORE PUSH1 0x20 ADD DUP3 DUP1 SLOAD PUSH2 0x1292 SWAP1 PUSH2 0x49C2 JUMP JUMPDEST DUP1 ISZERO PUSH2 0x12DF JUMPI DUP1 PUSH1 0x1F LT PUSH2 0x12B4 JUMPI PUSH2 0x100 DUP1 DUP4 SLOAD DIV MUL DUP4 MSTORE SWAP2 PUSH1 0x20 ADD SWAP2 PUSH2 0x12DF JUMP JUMPDEST DUP3 ADD SWAP2 SWAP1 PUSH1 0x0 MSTORE PUSH1 0x20 PUSH1 0x0 KECCAK256 SWAP1 JUMPDEST DUP2 SLOAD DUP2 MSTORE SWAP1 PUSH1 0x1 ADD SWAP1 PUSH1 0x20 ADD DUP1 DUP4 GT PUSH2 0x12C2 JUMPI DUP3 SWAP1 SUB PUSH1 0x1F AND DUP3 ADD SWAP2 JUMPDEST POP POP POP POP POP DUP2 MSTORE PUSH1 0x20 ADD PUSH1 0x4 DUP3 ADD DUP1 SLOAD PUSH2 0x12F8 SWAP1 PUSH2 0x49C2 JUMP JUMPDEST DUP1 PUSH1 0x1F ADD PUSH1 0x20 DUP1 SWAP2 DIV MUL PUSH1 0x20 ADD PUSH1 0x40 MLOAD SWAP1 DUP2 ADD PUSH1 0x40 MSTORE DUP1 SWAP3 SWAP2 SWAP1 DUP2 DUP2 MSTORE PUSH1 0x20 ADD DUP3 DUP1 SLOAD PUSH2 0x1324 SWAP1 PUSH2 0x49C2 JUMP JUMPDEST DUP1 ISZERO PUSH2 0x1371 JUMPI DUP1 PUSH1 0x1F LT PUSH2 0x1346 JUMPI PUSH2 0x100 DUP1 DUP4 SLOAD DIV MUL DUP4 MSTORE SWAP2 PUSH1 0x20 ADD SWAP2 PUSH2 0x1371 JUMP JUMPDEST DUP3 ADD SWAP2 SWAP1 PUSH1 0x0 MSTORE PUSH1 0x20 PUSH1 0x0 KECCAK256 SWAP1 JUMPDEST DUP2 SLOAD DUP2 MSTORE SWAP1 PUSH1 0x1 ADD SWAP1 PUSH1 0x20 ADD DUP1 DUP4 GT PUSH2 0x1354 JUMPI DUP3 SWAP1 SUB PUSH1 0x1F AND DUP3 ADD SWAP2 JUMPDEST POP POP POP POP POP DUP2 MSTORE POP POP DUP2 MSTORE PUSH1 0x20 ADD SWAP1 PUSH1 0x1 ADD SWAP1 PUSH2 0x118D JUMP JUMPDEST POP POP POP POP SWAP3 POP POP POP SWAP2 SWAP1 POP JUMP JUMPDEST PUSH1 0x0 PUSH1 0x6 DUP8 PUSH1 0x40 MLOAD PUSH2 0x13A8 SWAP2 SWAP1 PUSH2 0x4A2F JUMP JUMPDEST SWAP1 DUP2 MSTORE PUSH1 0x20 ADD PUSH1 0x40 MLOAD DUP1 SWAP2 SUB SWAP1 KECCAK256 SWAP1 POP DUP7 DUP2 PUSH1 0x0 ADD SWAP1 DUP2 PUSH2 0x13C9 SWAP2 SWAP1 PUSH2 0x4C6F JUMP JUMPDEST POP DUP6 DUP2 PUSH1 0x1 ADD SWAP1 DUP2 PUSH2 0x13DB SWAP2 SWAP1 PUSH2 0x4C6F JUMP JUMPDEST POP DUP5 DUP2 PUSH1 0x2 ADD SWAP1 DUP2 PUSH2 0x13ED SWAP2 SWAP1 PUSH2 0x4C6F JUMP JUMPDEST POP DUP4 DUP2 PUSH1 0x3 ADD SWAP1 DUP2 PUSH2 0x13FF SWAP2 SWAP1 PUSH2 0x4C6F JUMP JUMPDEST POP DUP3 DUP2 PUSH1 0x4 ADD SWAP1 DUP2 PUSH2 0x1411 SWAP2 SWAP1 PUSH2 0x4C6F JUMP JUMPDEST POP DUP2 DUP2 PUSH1 0x5 ADD SWAP1 DUP2 PUSH2 0x1423 SWAP2 SWAP1 PUSH2 0x4C6F JUMP JUMPDEST POP TIMESTAMP DUP2 PUSH1 0x6 ADD DUP2 SWAP1 SSTORE POP DUP7 PUSH1 0x1 PUSH1 0x0 CALLER PUSH20 0xFFFFFFFFFFFFFFFFFFFFFFFFFFFFFFFFFFFFFFFF AND PUSH20 0xFFFFFFFFFFFFFFFFFFFFFFFFFFFFFFFFFFFFFFFF AND DUP2 MSTORE PUSH1 0x20 ADD SWAP1 DUP2 MSTORE PUSH1 0x20 ADD PUSH1 0x0 KECCAK256 SWAP1 DUP2 PUSH2 0x1479 SWAP2 SWAP1 PUSH2 0x4C6F JUMP JUMPDEST POP PUSH1 0x0 PUSH1 0x15 SWAP1 SLOAD SWAP1 PUSH2 0x100 EXP SWAP1 DIV PUSH1 0xFF AND PUSH1 0x2 DUP9 PUSH1 0x40 MLOAD PUSH2 0x149A SWAP2 SWAP1 PUSH2 0x4A2F JUMP JUMPDEST SWAP1 DUP2 MSTORE PUSH1 0x20 ADD PUSH1 0x40 MLOAD DUP1 SWAP2 SUB SWAP1 KECCAK256 PUSH1 0x0 PUSH2 0x100 EXP DUP2 SLOAD DUP2 PUSH1 0xFF MUL NOT AND SWAP1 DUP4 PUSH1 0xFF AND MUL OR SWAP1 SSTORE POP PUSH32 0x3451F868AB50A3AE497DD7479D4FFA96092D35ABD6D66A27C665CB9F1D6084E6 DUP2 PUSH1 0x1 ADD DUP3 PUSH1 0x2 ADD DUP4 PUSH1 0x3 ADD DUP5 PUSH1 0x4 ADD DUP6 PUSH1 0x5 ADD DUP7 PUSH1 0x6 ADD SLOAD PUSH1 0x40 MLOAD PUSH2 0x150C SWAP7 SWAP6 SWAP5 SWAP4 SWAP3 SWAP2 SWAP1 PUSH2 0x4F78 JUMP JUMPDEST PUSH1 0x40 MLOAD DUP1 SWAP2 SUB SWAP1 LOG1 POP POP POP POP POP POP POP JUMP JUMPDEST DUP2 PUSH1 0x0 PUSH1 0x1 PUSH1 0x0 CALLER PUSH20 0xFFFFFFFFFFFFFFFFFFFFFFFFFFFFFFFFFFFFFFFF AND PUSH20 0xFFFFFFFFFFFFFFFFFFFFFFFFFFFFFFFFFFFFFFFF AND DUP2 MSTORE PUSH1 0x20 ADD SWAP1 DUP2 MSTORE PUSH1 0x20 ADD PUSH1 0x0 KECCAK256 DUP1 SLOAD PUSH2 0x156A SWAP1 PUSH2 0x49C2 JUMP JUMPDEST DUP1 PUSH1 0x1F ADD PUSH1 0x20 DUP1 SWAP2 DIV MUL PUSH1 0x20 ADD PUSH1 0x40 MLOAD SWAP1 DUP2 ADD PUSH1 0x40 MSTORE DUP1 SWAP3 SWAP2 SWAP1 DUP2 DUP2 MSTORE PUSH1 0x20 ADD DUP3 DUP1 SLOAD PUSH2 0x1596 SWAP1 PUSH2 0x49C2 JUMP JUMPDEST DUP1 ISZERO PUSH2 0x15E3 JUMPI DUP1 PUSH1 0x1F LT PUSH2 0x15B8 JUMPI PUSH2 0x100 DUP1 DUP4 SLOAD DIV MUL DUP4 MSTORE SWAP2 PUSH1 0x20 ADD SWAP2 PUSH2 0x15E3 JUMP JUMPDEST DUP3 ADD SWAP2 SWAP1 PUSH1 0x0 MSTORE PUSH1 0x20 PUSH1 0x0 KECCAK256 SWAP1 JUMPDEST DUP2 SLOAD DUP2 MSTORE SWAP1 PUSH1 0x1 ADD SWAP1 PUSH1 0x20 ADD DUP1 DUP4 GT PUSH2 0x15C6 JUMPI DUP3 SWAP1 SUB PUSH1 0x1F AND DUP3 ADD SWAP2 JUMPDEST POP POP POP POP POP SWAP1 POP DUP1 MLOAD PUSH1 0x7 DUP4 PUSH1 0x40 MLOAD PUSH2 0x15FC SWAP2 SWAP1 PUSH2 0x4A2F JUMP JUMPDEST SWAP1 DUP2 MSTORE PUSH1 0x20 ADD PUSH1 0x40 MLOAD DUP1 SWAP2 SUB SWAP1 KECCAK256 DUP1 SLOAD PUSH2 0x1615 SWAP1 PUSH2 0x49C2 JUMP JUMPDEST SWAP1 POP EQ PUSH2 0x1657 JUMPI PUSH1 0x40 MLOAD PUSH32 0x8C379A000000000000000000000000000000000000000000000000000000000 DUP2 MSTORE PUSH1 0x4 ADD PUSH2 0x164E SWAP1 PUSH2 0x506E JUMP JUMPDEST PUSH1 0x40 MLOAD DUP1 SWAP2 SUB SWAP1 REVERT JUMPDEST PUSH1 0x0 PUSH1 0x3 DUP6 PUSH1 0x40 MLOAD PUSH2 0x1669 SWAP2 SWAP1 PUSH2 0x4A2F JUMP JUMPDEST SWAP1 DUP2 MSTORE PUSH1 0x20 ADD PUSH1 0x40 MLOAD DUP1 SWAP2 SUB SWAP1 KECCAK256 SWAP1 POP PUSH1 0x0 PUSH1 0x40 MLOAD DUP1 PUSH1 0xA0 ADD PUSH1 0x40 MSTORE DUP1 PUSH1 0x1 DUP5 DUP1 SLOAD SWAP1 POP PUSH2 0x1697 SWAP2 SWAP1 PUSH2 0x50BD JUMP JUMPDEST DUP2 MSTORE PUSH1 0x20 ADD TIMESTAMP DUP2 MSTORE PUSH1 0x20 ADD DUP7 PUSH1 0x40 ADD MLOAD DUP2 MSTORE PUSH1 0x20 ADD DUP7 PUSH1 0x60 ADD MLOAD DUP2 MSTORE PUSH1 0x20 ADD DUP7 PUSH1 0x80 ADD MLOAD DUP2 MSTORE POP SWAP1 POP DUP2 DUP2 SWAP1 DUP1 PUSH1 0x1 DUP2 SLOAD ADD DUP1 DUP3 SSTORE DUP1 SWAP2 POP POP PUSH1 0x1 SWAP1 SUB SWAP1 PUSH1 0x0 MSTORE PUSH1 0x20 PUSH1 0x0 KECCAK256 SWAP1 PUSH1 0x5 MUL ADD PUSH1 0x0 SWAP1 SWAP2 SWAP1 SWAP2 SWAP1 SWAP2 POP PUSH1 0x0 DUP3 ADD MLOAD DUP2 PUSH1 0x0 ADD SSTORE PUSH1 0x20 DUP3 ADD MLOAD DUP2 PUSH1 0x1 ADD SSTORE PUSH1 0x40 DUP3 ADD MLOAD DUP2 PUSH1 0x2 ADD SWAP1 DUP2 PUSH2 0x1714 SWAP2 SWAP1 PUSH2 0x4C6F JUMP JUMPDEST POP PUSH1 0x60 DUP3 ADD MLOAD DUP2 PUSH1 0x3 ADD SWAP1 DUP2 PUSH2 0x172A SWAP2 SWAP1 PUSH2 0x4C6F JUMP JUMPDEST POP PUSH1 0x80 DUP3 ADD MLOAD DUP2 PUSH1 0x4 ADD SWAP1 DUP2 PUSH2 0x1740 SWAP2 SWAP1 PUSH2 0x4C6F JUMP JUMPDEST POP POP POP PUSH32 0x895595933C70A82909C268A32943034F17F463234AD5EAC0A27F68BF4863D690 DUP2 PUSH1 0x20 ADD MLOAD DUP3 PUSH1 0x40 ADD MLOAD DUP4 PUSH1 0x60 ADD MLOAD DUP5 PUSH1 0x80 ADD MLOAD PUSH1 0x40 MLOAD PUSH2 0x1788 SWAP5 SWAP4 SWAP3 SWAP2 SWAP1 PUSH2 0x512A JUMP JUMPDEST PUSH1 0x40 MLOAD DUP1 SWAP2 SUB SWAP1 LOG1 POP POP POP POP POP POP JUMP JUMPDEST PUSH2 0x17A0 PUSH2 0x3B1D JUMP JUMPDEST PUSH1 0x0 PUSH1 0x1 PUSH1 0x0 DUP5 PUSH20 0xFFFFFFFFFFFFFFFFFFFFFFFFFFFFFFFFFFFFFFFF AND PUSH20 0xFFFFFFFFFFFFFFFFFFFFFFFFFFFFFFFFFFFFFFFF AND DUP2 MSTORE PUSH1 0x20 ADD SWAP1 DUP2 MSTORE PUSH1 0x20 ADD PUSH1 0x0 KECCAK256 DUP1 SLOAD PUSH2 0x17EC SWAP1 PUSH2 0x49C2 JUMP JUMPDEST DUP1 PUSH1 0x1F ADD PUSH1 0x20 DUP1 SWAP2 DIV MUL PUSH1 0x20 ADD PUSH1 0x40 MLOAD SWAP1 DUP2 ADD PUSH1 0x40 MSTORE DUP1 SWAP3 SWAP2 SWAP1 DUP2 DUP2 MSTORE PUSH1 0x20 ADD DUP3 DUP1 SLOAD PUSH2 0x1818 SWAP1 PUSH2 0x49C2 JUMP JUMPDEST DUP1 ISZERO PUSH2 0x1865 JUMPI DUP1 PUSH1 0x1F LT PUSH2 0x183A JUMPI PUSH2 0x100 DUP1 DUP4 SLOAD DIV MUL DUP4 MSTORE SWAP2 PUSH1 0x20 ADD SWAP2 PUSH2 0x1865 JUMP JUMPDEST DUP3 ADD SWAP2 SWAP1 PUSH1 0x0 MSTORE PUSH1 0x20 PUSH1 0x0 KECCAK256 SWAP1 JUMPDEST DUP2 SLOAD DUP2 MSTORE SWAP1 PUSH1 0x1 ADD SWAP1 PUSH1 0x20 ADD DUP1 DUP4 GT PUSH2 0x1848 JUMPI DUP3 SWAP1 SUB PUSH1 0x1F AND DUP3 ADD SWAP2 JUMPDEST POP POP POP POP POP SWAP1 POP PUSH1 0x5 DUP2 PUSH1 0x40 MLOAD PUSH2 0x187C SWAP2 SWAP1 PUSH2 0x4A2F JUMP JUMPDEST SWAP1 DUP2 MSTORE PUSH1 0x20 ADD PUSH1 0x40 MLOAD DUP1 SWAP2 SUB SWAP1 KECCAK256 PUSH1 0x40 MLOAD DUP1 PUSH1 0x60 ADD PUSH1 0x40 MSTORE SWAP1 DUP2 PUSH1 0x0 DUP3 ADD DUP1 SLOAD PUSH2 0x18A5 SWAP1 PUSH2 0x49C2 JUMP JUMPDEST DUP1 PUSH1 0x1F ADD PUSH1 0x20 DUP1 SWAP2 DIV MUL PUSH1 0x20 ADD PUSH1 0x40 MLOAD SWAP1 DUP2 ADD PUSH1 0x40 MSTORE DUP1 SWAP3 SWAP2 SWAP1 DUP2 DUP2 MSTORE PUSH1 0x20 ADD DUP3 DUP1 SLOAD PUSH2 0x18D1 SWAP1 PUSH2 0x49C2 JUMP JUMPDEST DUP1 ISZERO PUSH2 0x191E JUMPI DUP1 PUSH1 0x1F LT PUSH2 0x18F3 JUMPI PUSH2 0x100 DUP1 DUP4 SLOAD DIV MUL DUP4 MSTORE SWAP2 PUSH1 0x20 ADD SWAP2 PUSH2 0x191E JUMP JUMPDEST DUP3 ADD SWAP2 SWAP1 PUSH1 0x0 MSTORE PUSH1 0x20 PUSH1 0x0 KECCAK256 SWAP1 JUMPDEST DUP2 SLOAD DUP2 MSTORE SWAP1 PUSH1 0x1 ADD SWAP1 PUSH1 0x20 ADD DUP1 DUP4 GT PUSH2 0x1901 JUMPI DUP3 SWAP1 SUB PUSH1 0x1F AND DUP3 ADD SWAP2 JUMPDEST POP POP POP POP POP DUP2 MSTORE PUSH1 0x20 ADD PUSH1 0x1 DUP3 ADD PUSH1 0x40 MLOAD DUP1 PUSH2 0x120 ADD PUSH1 0x40 MSTORE SWAP1 DUP2 PUSH1 0x0 DUP3 ADD DUP1 SLOAD PUSH2 0x1948 SWAP1 PUSH2 0x49C2 JUMP JUMPDEST DUP1 PUSH1 0x1F ADD PUSH1 0x20 DUP1 SWAP2 DIV MUL PUSH1 0x20 ADD PUSH1 0x40 MLOAD SWAP1 DUP2 ADD PUSH1 0x40 MSTORE DUP1 SWAP3 SWAP2 SWAP1 DUP2 DUP2 MSTORE PUSH1 0x20 ADD DUP3 DUP1 SLOAD PUSH2 0x1974 SWAP1 PUSH2 0x49C2 JUMP JUMPDEST DUP1 ISZERO PUSH2 0x19C1 JUMPI DUP1 PUSH1 0x1F LT PUSH2 0x1996 JUMPI PUSH2 0x100 DUP1 DUP4 SLOAD DIV MUL DUP4 MSTORE SWAP2 PUSH1 0x20 ADD SWAP2 PUSH2 0x19C1 JUMP JUMPDEST DUP3 ADD SWAP2 SWAP1 PUSH1 0x0 MSTORE PUSH1 0x20 PUSH1 0x0 KECCAK256 SWAP1 JUMPDEST DUP2 SLOAD DUP2 MSTORE SWAP1 PUSH1 0x1 ADD SWAP1 PUSH1 0x20 ADD DUP1 DUP4 GT PUSH2 0x19A4 JUMPI DUP3 SWAP1 SUB PUSH1 0x1F AND DUP3 ADD SWAP2 JUMPDEST POP POP POP POP POP DUP2 MSTORE PUSH1 0x20 ADD PUSH1 0x1 DUP3 ADD DUP1 SLOAD PUSH2 0x19DA SWAP1 PUSH2 0x49C2 JUMP JUMPDEST DUP1 PUSH1 0x1F ADD PUSH1 0x20 DUP1 SWAP2 DIV MUL PUSH1 0x20 ADD PUSH1 0x40 MLOAD SWAP1 DUP2 ADD PUSH1 0x40 MSTORE DUP1 SWAP3 SWAP2 SWAP1 DUP2 DUP2 MSTORE PUSH1 0x20 ADD DUP3 DUP1 SLOAD PUSH2 0x1A06 SWAP1 PUSH2 0x49C2 JUMP JUMPDEST DUP1 ISZERO PUSH2 0x1A53 JUMPI DUP1 PUSH1 0x1F LT PUSH2 0x1A28 JUMPI PUSH2 0x100 DUP1 DUP4 SLOAD DIV MUL DUP4 MSTORE SWAP2 PUSH1 0x20 ADD SWAP2 PUSH2 0x1A53 JUMP JUMPDEST DUP3 ADD SWAP2 SWAP1 PUSH1 0x0 MSTORE PUSH1 0x20 PUSH1 0x0 KECCAK256 SWAP1 JUMPDEST DUP2 SLOAD DUP2 MSTORE SWAP1 PUSH1 0x1 ADD SWAP1 PUSH1 0x20 ADD DUP1 DUP4 GT PUSH2 0x1A36 JUMPI DUP3 SWAP1 SUB PUSH1 0x1F AND DUP3 ADD SWAP2 JUMPDEST POP POP POP POP POP DUP2 MSTORE PUSH1 0x20 ADD PUSH1 0x2 DUP3 ADD DUP1 SLOAD PUSH2 0x1A6C SWAP1 PUSH2 0x49C2 JUMP JUMPDEST DUP1 PUSH1 0x1F ADD PUSH1 0x20 DUP1 SWAP2 DIV MUL PUSH1 0x20 ADD PUSH1 0x40 MLOAD SWAP1 DUP2 ADD PUSH1 0x40 MSTORE DUP1 SWAP3 SWAP2 SWAP1 DUP2 DUP2 MSTORE PUSH1 0x20 ADD DUP3 DUP1 SLOAD PUSH2 0x1A98 SWAP1 PUSH2 0x49C2 JUMP JUMPDEST DUP1 ISZERO PUSH2 0x1AE5 JUMPI DUP1 PUSH1 0x1F LT PUSH2 0x1ABA JUMPI PUSH2 0x100 DUP1 DUP4 SLOAD DIV MUL DUP4 MSTORE SWAP2 PUSH1 0x20 ADD SWAP2 PUSH2 0x1AE5 JUMP JUMPDEST DUP3 ADD SWAP2 SWAP1 PUSH1 0x0 MSTORE PUSH1 0x20 PUSH1 0x0 KECCAK256 SWAP1 JUMPDEST DUP2 SLOAD DUP2 MSTORE SWAP1 PUSH1 0x1 ADD SWAP1 PUSH1 0x20 ADD DUP1 DUP4 GT PUSH2 0x1AC8 JUMPI DUP3 SWAP1 SUB PUSH1 0x1F AND DUP3 ADD SWAP2 JUMPDEST POP POP POP POP POP DUP2 MSTORE PUSH1 0x20 ADD PUSH1 0x3 DUP3 ADD DUP1 SLOAD PUSH2 0x1AFE SWAP1 PUSH2 0x49C2 JUMP JUMPDEST DUP1 PUSH1 0x1F ADD PUSH1 0x20 DUP1 SWAP2 DIV MUL PUSH1 0x20 ADD PUSH1 0x40 MLOAD SWAP1 DUP2 ADD PUSH1 0x40 MSTORE DUP1 SWAP3 SWAP2 SWAP1 DUP2 DUP2 MSTORE PUSH1 0x20 ADD DUP3 DUP1 SLOAD PUSH2 0x1B2A SWAP1 PUSH2 0x49C2 JUMP JUMPDEST DUP1 ISZERO PUSH2 0x1B77 JUMPI DUP1 PUSH1 0x1F LT PUSH2 0x1B4C JUMPI PUSH2 0x100 DUP1 DUP4 SLOAD DIV MUL DUP4 MSTORE SWAP2 PUSH1 0x20 ADD SWAP2 PUSH2 0x1B77 JUMP JUMPDEST DUP3 ADD SWAP2 SWAP1 PUSH1 0x0 MSTORE PUSH1 0x20 PUSH1 0x0 KECCAK256 SWAP1 JUMPDEST DUP2 SLOAD DUP2 MSTORE SWAP1 PUSH1 0x1 ADD SWAP1 PUSH1 0x20 ADD DUP1 DUP4 GT PUSH2 0x1B5A JUMPI DUP3 SWAP1 SUB PUSH1 0x1F AND DUP3 ADD SWAP2 JUMPDEST POP POP POP POP POP DUP2 MSTORE PUSH1 0x20 ADD PUSH1 0x4 DUP3 ADD DUP1 SLOAD PUSH2 0x1B90 SWAP1 PUSH2 0x49C2 JUMP JUMPDEST DUP1 PUSH1 0x1F ADD PUSH1 0x20 DUP1 SWAP2 DIV MUL PUSH1 0x20 ADD PUSH1 0x40 MLOAD SWAP1 DUP2 ADD PUSH1 0x40 MSTORE DUP1 SWAP3 SWAP2 SWAP1 DUP2 DUP2 MSTORE PUSH1 0x20 ADD DUP3 DUP1 SLOAD PUSH2 0x1BBC SWAP1 PUSH2 0x49C2 JUMP JUMPDEST DUP1 ISZERO PUSH2 0x1C09 JUMPI DUP1 PUSH1 0x1F LT PUSH2 0x1BDE JUMPI PUSH2 0x100 DUP1 DUP4 SLOAD DIV MUL DUP4 MSTORE SWAP2 PUSH1 0x20 ADD SWAP2 PUSH2 0x1C09 JUMP JUMPDEST DUP3 ADD SWAP2 SWAP1 PUSH1 0x0 MSTORE PUSH1 0x20 PUSH1 0x0 KECCAK256 SWAP1 JUMPDEST DUP2 SLOAD DUP2 MSTORE SWAP1 PUSH1 0x1 ADD SWAP1 PUSH1 0x20 ADD DUP1 DUP4 GT PUSH2 0x1BEC JUMPI DUP3 SWAP1 SUB PUSH1 0x1F AND DUP3 ADD SWAP2 JUMPDEST POP POP POP POP POP DUP2 MSTORE PUSH1 0x20 ADD PUSH1 0x5 DUP3 ADD DUP1 SLOAD PUSH2 0x1C22 SWAP1 PUSH2 0x49C2 JUMP JUMPDEST DUP1 PUSH1 0x1F ADD PUSH1 0x20 DUP1 SWAP2 DIV MUL PUSH1 0x20 ADD PUSH1 0x40 MLOAD SWAP1 DUP2 ADD PUSH1 0x40 MSTORE DUP1 SWAP3 SWAP2 SWAP1 DUP2 DUP2 MSTORE PUSH1 0x20 ADD DUP3 DUP1 SLOAD PUSH2 0x1C4E SWAP1 PUSH2 0x49C2 JUMP JUMPDEST DUP1 ISZERO PUSH2 0x1C9B JUMPI DUP1 PUSH1 0x1F LT PUSH2 0x1C70 JUMPI PUSH2 0x100 DUP1 DUP4 SLOAD DIV MUL DUP4 MSTORE SWAP2 PUSH1 0x20 ADD SWAP2 PUSH2 0x1C9B JUMP JUMPDEST DUP3 ADD SWAP2 SWAP1 PUSH1 0x0 MSTORE PUSH1 0x20 PUSH1 0x0 KECCAK256 SWAP1 JUMPDEST DUP2 SLOAD DUP2 MSTORE SWAP1 PUSH1 0x1 ADD SWAP1 PUSH1 0x20 ADD DUP1 DUP4 GT PUSH2 0x1C7E JUMPI DUP3 SWAP1 SUB PUSH1 0x1F AND DUP3 ADD SWAP2 JUMPDEST POP POP POP POP POP DUP2 MSTORE PUSH1 0x20 ADD PUSH1 0x6 DUP3 ADD DUP1 SLOAD PUSH2 0x1CB4 SWAP1 PUSH2 0x49C2 JUMP JUMPDEST DUP1 PUSH1 0x1F ADD PUSH1 0x20 DUP1 SWAP2 DIV MUL PUSH1 0x20 ADD PUSH1 0x40 MLOAD SWAP1 DUP2 ADD PUSH1 0x40 MSTORE DUP1 SWAP3 SWAP2 SWAP1 DUP2 DUP2 MSTORE PUSH1 0x20 ADD DUP3 DUP1 SLOAD PUSH2 0x1CE0 SWAP1 PUSH2 0x49C2 JUMP JUMPDEST DUP1 ISZERO PUSH2 0x1D2D JUMPI DUP1 PUSH1 0x1F LT PUSH2 0x1D02 JUMPI PUSH2 0x100 DUP1 DUP4 SLOAD DIV MUL DUP4 MSTORE SWAP2 PUSH1 0x20 ADD SWAP2 PUSH2 0x1D2D JUMP JUMPDEST DUP3 ADD SWAP2 SWAP1 PUSH1 0x0 MSTORE PUSH1 0x20 PUSH1 0x0 KECCAK256 SWAP1 JUMPDEST DUP2 SLOAD DUP2 MSTORE SWAP1 PUSH1 0x1 ADD SWAP1 PUSH1 0x20 ADD DUP1 DUP4 GT PUSH2 0x1D10 JUMPI DUP3 SWAP1 SUB PUSH1 0x1F AND DUP3 ADD SWAP2 JUMPDEST POP POP POP POP POP DUP2 MSTORE PUSH1 0x20 ADD PUSH1 0x7 DUP3 ADD DUP1 SLOAD PUSH2 0x1D46 SWAP1 PUSH2 0x49C2 JUMP JUMPDEST DUP1 PUSH1 0x1F ADD PUSH1 0x20 DUP1 SWAP2 DIV MUL PUSH1 0x20 ADD PUSH1 0x40 MLOAD SWAP1 DUP2 ADD PUSH1 0x40 MSTORE DUP1 SWAP3 SWAP2 SWAP1 DUP2 DUP2 MSTORE PUSH1 0x20 ADD DUP3 DUP1 SLOAD PUSH2 0x1D72 SWAP1 PUSH2 0x49C2 JUMP JUMPDEST DUP1 ISZERO PUSH2 0x1DBF JUMPI DUP1 PUSH1 0x1F LT PUSH2 0x1D94 JUMPI PUSH2 0x100 DUP1 DUP4 SLOAD DIV MUL DUP4 MSTORE SWAP2 PUSH1 0x20 ADD SWAP2 PUSH2 0x1DBF JUMP JUMPDEST DUP3 ADD SWAP2 SWAP1 PUSH1 0x0 MSTORE PUSH1 0x20 PUSH1 0x0 KECCAK256 SWAP1 JUMPDEST DUP2 SLOAD DUP2 MSTORE SWAP1 PUSH1 0x1 ADD SWAP1 PUSH1 0x20 ADD DUP1 DUP4 GT PUSH2 0x1DA2 JUMPI DUP3 SWAP1 SUB PUSH1 0x1F AND DUP3 ADD SWAP2 JUMPDEST POP POP POP POP POP DUP2 MSTORE PUSH1 0x20 ADD PUSH1 0x8 DUP3 ADD DUP1 SLOAD PUSH2 0x1DD8 SWAP1 PUSH2 0x49C2 JUMP JUMPDEST DUP1 PUSH1 0x1F ADD PUSH1 0x20 DUP1 SWAP2 DIV MUL PUSH1 0x20 ADD PUSH1 0x40 MLOAD SWAP1 DUP2 ADD PUSH1 0x40 MSTORE DUP1 SWAP3 SWAP2 SWAP1 DUP2 DUP2 MSTORE PUSH1 0x20 ADD DUP3 DUP1 SLOAD PUSH2 0x1E04 SWAP1 PUSH2 0x49C2 JUMP JUMPDEST DUP1 ISZERO PUSH2 0x1E51 JUMPI DUP1 PUSH1 0x1F LT PUSH2 0x1E26 JUMPI PUSH2 0x100 DUP1 DUP4 SLOAD DIV MUL DUP4 MSTORE SWAP2 PUSH1 0x20 ADD SWAP2 PUSH2 0x1E51 JUMP JUMPDEST DUP3 ADD SWAP2 SWAP1 PUSH1 0x0 MSTORE PUSH1 0x20 PUSH1 0x0 KECCAK256 SWAP1 JUMPDEST DUP2 SLOAD DUP2 MSTORE SWAP1 PUSH1 0x1 ADD SWAP1 PUSH1 0x20 ADD DUP1 DUP4 GT PUSH2 0x1E34 JUMPI DUP3 SWAP1 SUB PUSH1 0x1F AND DUP3 ADD SWAP2 JUMPDEST POP POP POP POP POP DUP2 MSTORE POP POP DUP2 MSTORE PUSH1 0x20 ADD PUSH1 0xA DUP3 ADD SLOAD DUP2 MSTORE POP POP SWAP2 POP POP SWAP2 SWAP1 POP JUMP JUMPDEST PUSH1 0x60 PUSH1 0x0 PUSH1 0x1 PUSH1 0x0 CALLER PUSH20 0xFFFFFFFFFFFFFFFFFFFFFFFFFFFFFFFFFFFFFFFF AND PUSH20 0xFFFFFFFFFFFFFFFFFFFFFFFFFFFFFFFFFFFFFFFF AND DUP2 MSTORE PUSH1 0x20 ADD SWAP1 DUP2 MSTORE PUSH1 0x20 ADD PUSH1 0x0 KECCAK256 DUP1 SLOAD PUSH2 0x1EBE SWAP1 PUSH2 0x49C2 JUMP JUMPDEST DUP1 PUSH1 0x1F ADD PUSH1 0x20 DUP1 SWAP2 DIV MUL PUSH1 0x20 ADD PUSH1 0x40 MLOAD SWAP1 DUP2 ADD PUSH1 0x40 MSTORE DUP1 SWAP3 SWAP2 SWAP1 DUP2 DUP2 MSTORE PUSH1 0x20 ADD DUP3 DUP1 SLOAD PUSH2 0x1EEA SWAP1 PUSH2 0x49C2 JUMP JUMPDEST DUP1 ISZERO PUSH2 0x1F37 JUMPI DUP1 PUSH1 0x1F LT PUSH2 0x1F0C JUMPI PUSH2 0x100 DUP1 DUP4 SLOAD DIV MUL DUP4 MSTORE SWAP2 PUSH1 0x20 ADD SWAP2 PUSH2 0x1F37 JUMP JUMPDEST DUP3 ADD SWAP2 SWAP1 PUSH1 0x0 MSTORE PUSH1 0x20 PUSH1 0x0 KECCAK256 SWAP1 JUMPDEST DUP2 SLOAD DUP2 MSTORE SWAP1 PUSH1 0x1 ADD SWAP1 PUSH1 0x20 ADD DUP1 DUP4 GT PUSH2 0x1F1A JUMPI DUP3 SWAP1 SUB PUSH1 0x1F AND DUP3 ADD SWAP2 JUMPDEST POP POP POP POP POP SWAP1 POP DUP1 MLOAD PUSH1 0x6 DUP3 PUSH1 0x40 MLOAD PUSH2 0x1F50 SWAP2 SWAP1 PUSH2 0x4A2F JUMP JUMPDEST SWAP1 DUP2 MSTORE PUSH1 0x20 ADD PUSH1 0x40 MLOAD DUP1 SWAP2 SUB SWAP1 KECCAK256 PUSH1 0x0 ADD DUP1 SLOAD PUSH2 0x1F6C SWAP1 PUSH2 0x49C2 JUMP JUMPDEST SWAP1 POP EQ PUSH2 0x1FAE JUMPI PUSH1 0x40 MLOAD PUSH32 0x8C379A000000000000000000000000000000000000000000000000000000000 DUP2 MSTORE PUSH1 0x4 ADD PUSH2 0x1FA5 SWAP1 PUSH2 0x4AA3 JUMP JUMPDEST PUSH1 0x40 MLOAD DUP1 SWAP2 SUB SWAP1 REVERT JUMPDEST PUSH1 0x0 PUSH1 0x1 PUSH1 0x0 CALLER PUSH20 0xFFFFFFFFFFFFFFFFFFFFFFFFFFFFFFFFFFFFFFFF AND PUSH20 0xFFFFFFFFFFFFFFFFFFFFFFFFFFFFFFFFFFFFFFFF AND DUP2 MSTORE PUSH1 0x20 ADD SWAP1 DUP2 MSTORE PUSH1 0x20 ADD PUSH1 0x0 KECCAK256 DUP1 SLOAD PUSH2 0x1FFA SWAP1 PUSH2 0x49C2 JUMP JUMPDEST DUP1 PUSH1 0x1F ADD PUSH1 0x20 DUP1 SWAP2 DIV MUL PUSH1 0x20 ADD PUSH1 0x40 MLOAD SWAP1 DUP2 ADD PUSH1 0x40 MSTORE DUP1 SWAP3 SWAP2 SWAP1 DUP2 DUP2 MSTORE PUSH1 0x20 ADD DUP3 DUP1 SLOAD PUSH2 0x2026 SWAP1 PUSH2 0x49C2 JUMP JUMPDEST DUP1 ISZERO PUSH2 0x2073 JUMPI DUP1 PUSH1 0x1F LT PUSH2 0x2048 JUMPI PUSH2 0x100 DUP1 DUP4 SLOAD DIV MUL DUP4 MSTORE SWAP2 PUSH1 0x20 ADD SWAP2 PUSH2 0x2073 JUMP JUMPDEST DUP3 ADD SWAP2 SWAP1 PUSH1 0x0 MSTORE PUSH1 0x20 PUSH1 0x0 KECCAK256 SWAP1 JUMPDEST DUP2 SLOAD DUP2 MSTORE SWAP1 PUSH1 0x1 ADD SWAP1 PUSH1 0x20 ADD DUP1 DUP4 GT PUSH2 0x2056 JUMPI DUP3 SWAP1 SUB PUSH1 0x1F AND DUP3 ADD SWAP2 JUMPDEST POP POP POP POP POP SWAP1 POP PUSH1 0x0 PUSH1 0x8 DUP3 PUSH1 0x40 MLOAD PUSH2 0x208C SWAP2 SWAP1 PUSH2 0x4A2F JUMP JUMPDEST SWAP1 DUP2 MSTORE PUSH1 0x20 ADD PUSH1 0x40 MLOAD DUP1 SWAP2 SUB SWAP1 KECCAK256 DUP1 SLOAD DUP1 PUSH1 0x20 MUL PUSH1 0x20 ADD PUSH1 0x40 MLOAD SWAP1 DUP2 ADD PUSH1 0x40 MSTORE DUP1 SWAP3 SWAP2 SWAP1 DUP2 DUP2 MSTORE PUSH1 0x20 ADD PUSH1 0x0 SWAP1 JUMPDEST DUP3 DUP3 LT ISZERO PUSH2 0x2166 JUMPI DUP4 DUP3 SWAP1 PUSH1 0x0 MSTORE PUSH1 0x20 PUSH1 0x0 KECCAK256 ADD DUP1 SLOAD PUSH2 0x20D9 SWAP1 PUSH2 0x49C2 JUMP JUMPDEST DUP1 PUSH1 0x1F ADD PUSH1 0x20 DUP1 SWAP2 DIV MUL PUSH1 0x20 ADD PUSH1 0x40 MLOAD SWAP1 DUP2 ADD PUSH1 0x40 MSTORE DUP1 SWAP3 SWAP2 SWAP1 DUP2 DUP2 MSTORE PUSH1 0x20 ADD DUP3 DUP1 SLOAD PUSH2 0x2105 SWAP1 PUSH2 0x49C2 JUMP JUMPDEST DUP1 ISZERO PUSH2 0x2152 JUMPI DUP1 PUSH1 0x1F LT PUSH2 0x2127 JUMPI PUSH2 0x100 DUP1 DUP4 SLOAD DIV MUL DUP4 MSTORE SWAP2 PUSH1 0x20 ADD SWAP2 PUSH2 0x2152 JUMP JUMPDEST DUP3 ADD SWAP2 SWAP1 PUSH1 0x0 MSTORE PUSH1 0x20 PUSH1 0x0 KECCAK256 SWAP1 JUMPDEST DUP2 SLOAD DUP2 MSTORE SWAP1 PUSH1 0x1 ADD SWAP1 PUSH1 0x20 ADD DUP1 DUP4 GT PUSH2 0x2135 JUMPI DUP3 SWAP1 SUB PUSH1 0x1F AND DUP3 ADD SWAP2 JUMPDEST POP POP POP POP POP DUP2 MSTORE PUSH1 0x20 ADD SWAP1 PUSH1 0x1 ADD SWAP1 PUSH2 0x20BA JUMP JUMPDEST POP POP POP POP SWAP1 POP PUSH1 0x0 DUP2 MLOAD PUSH8 0xFFFFFFFFFFFFFFFF DUP2 GT ISZERO PUSH2 0x2189 JUMPI PUSH2 0x2188 PUSH2 0x3BDC JUMP JUMPDEST JUMPDEST PUSH1 0x40 MLOAD SWAP1 DUP1 DUP3 MSTORE DUP1 PUSH1 0x20 MUL PUSH1 0x20 ADD DUP3 ADD PUSH1 0x40 MSTORE DUP1 ISZERO PUSH2 0x21C2 JUMPI DUP2 PUSH1 0x20 ADD JUMPDEST PUSH2 0x21AF PUSH2 0x3B1D JUMP JUMPDEST DUP2 MSTORE PUSH1 0x20 ADD SWAP1 PUSH1 0x1 SWAP1 SUB SWAP1 DUP2 PUSH2 0x21A7 JUMPI SWAP1 POP JUMPDEST POP SWAP1 POP PUSH1 0x0 JUMPDEST DUP3 MLOAD DUP2 LT ISZERO PUSH2 0x2812 JUMPI PUSH1 0x5 DUP4 DUP3 DUP2 MLOAD DUP2 LT PUSH2 0x21E6 JUMPI PUSH2 0x21E5 PUSH2 0x5184 JUMP JUMPDEST JUMPDEST PUSH1 0x20 MUL PUSH1 0x20 ADD ADD MLOAD PUSH1 0x40 MLOAD PUSH2 0x21FB SWAP2 SWAP1 PUSH2 0x4A2F JUMP JUMPDEST SWAP1 DUP2 MSTORE PUSH1 0x20 ADD PUSH1 0x40 MLOAD DUP1 SWAP2 SUB SWAP1 KECCAK256 PUSH1 0x40 MLOAD DUP1 PUSH1 0x60 ADD PUSH1 0x40 MSTORE SWAP1 DUP2 PUSH1 0x0 DUP3 ADD DUP1 SLOAD PUSH2 0x2224 SWAP1 PUSH2 0x49C2 JUMP JUMPDEST DUP1 PUSH1 0x1F ADD PUSH1 0x20 DUP1 SWAP2 DIV MUL PUSH1 0x20 ADD PUSH1 0x40 MLOAD SWAP1 DUP2 ADD PUSH1 0x40 MSTORE DUP1 SWAP3 SWAP2 SWAP1 DUP2 DUP2 MSTORE PUSH1 0x20 ADD DUP3 DUP1 SLOAD PUSH2 0x2250 SWAP1 PUSH2 0x49C2 JUMP JUMPDEST DUP1 ISZERO PUSH2 0x229D JUMPI DUP1 PUSH1 0x1F LT PUSH2 0x2272 JUMPI PUSH2 0x100 DUP1 DUP4 SLOAD DIV MUL DUP4 MSTORE SWAP2 PUSH1 0x20 ADD SWAP2 PUSH2 0x229D JUMP JUMPDEST DUP3 ADD SWAP2 SWAP1 PUSH1 0x0 MSTORE PUSH1 0x20 PUSH1 0x0 KECCAK256 SWAP1 JUMPDEST DUP2 SLOAD DUP2 MSTORE SWAP1 PUSH1 0x1 ADD SWAP1 PUSH1 0x20 ADD DUP1 DUP4 GT PUSH2 0x2280 JUMPI DUP3 SWAP1 SUB PUSH1 0x1F AND DUP3 ADD SWAP2 JUMPDEST POP POP POP POP POP DUP2 MSTORE PUSH1 0x20 ADD PUSH1 0x1 DUP3 ADD PUSH1 0x40 MLOAD DUP1 PUSH2 0x120 ADD PUSH1 0x40 MSTORE SWAP1 DUP2 PUSH1 0x0 DUP3 ADD DUP1 SLOAD PUSH2 0x22C7 SWAP1 PUSH2 0x49C2 JUMP JUMPDEST DUP1 PUSH1 0x1F ADD PUSH1 0x20 DUP1 SWAP2 DIV MUL PUSH1 0x20 ADD PUSH1 0x40 MLOAD SWAP1 DUP2 ADD PUSH1 0x40 MSTORE DUP1 SWAP3 SWAP2 SWAP1 DUP2 DUP2 MSTORE PUSH1 0x20 ADD DUP3 DUP1 SLOAD PUSH2 0x22F3 SWAP1 PUSH2 0x49C2 JUMP JUMPDEST DUP1 ISZERO PUSH2 0x2340 JUMPI DUP1 PUSH1 0x1F LT PUSH2 0x2315 JUMPI PUSH2 0x100 DUP1 DUP4 SLOAD DIV MUL DUP4 MSTORE SWAP2 PUSH1 0x20 ADD SWAP2 PUSH2 0x2340 JUMP JUMPDEST DUP3 ADD SWAP2 SWAP1 PUSH1 0x0 MSTORE PUSH1 0x20 PUSH1 0x0 KECCAK256 SWAP1 JUMPDEST DUP2 SLOAD DUP2 MSTORE SWAP1 PUSH1 0x1 ADD SWAP1 PUSH1 0x20 ADD DUP1 DUP4 GT PUSH2 0x2323 JUMPI DUP3 SWAP1 SUB PUSH1 0x1F AND DUP3 ADD SWAP2 JUMPDEST POP POP POP POP POP DUP2 MSTORE PUSH1 0x20 ADD PUSH1 0x1 DUP3 ADD DUP1 SLOAD PUSH2 0x2359 SWAP1 PUSH2 0x49C2 JUMP JUMPDEST DUP1 PUSH1 0x1F ADD PUSH1 0x20 DUP1 SWAP2 DIV MUL PUSH1 0x20 ADD PUSH1 0x40 MLOAD SWAP1 DUP2 ADD PUSH1 0x40 MSTORE DUP1 SWAP3 SWAP2 SWAP1 DUP2 DUP2 MSTORE PUSH1 0x20 ADD DUP3 DUP1 SLOAD PUSH2 0x2385 SWAP1 PUSH2 0x49C2 JUMP JUMPDEST DUP1 ISZERO PUSH2 0x23D2 JUMPI DUP1 PUSH1 0x1F LT PUSH2 0x23A7 JUMPI PUSH2 0x100 DUP1 DUP4 SLOAD DIV MUL DUP4 MSTORE SWAP2 PUSH1 0x20 ADD SWAP2 PUSH2 0x23D2 JUMP JUMPDEST DUP3 ADD SWAP2 SWAP1 PUSH1 0x0 MSTORE PUSH1 0x20 PUSH1 0x0 KECCAK256 SWAP1 JUMPDEST DUP2 SLOAD DUP2 MSTORE SWAP1 PUSH1 0x1 ADD SWAP1 PUSH1 0x20 ADD DUP1 DUP4 GT PUSH2 0x23B5 JUMPI DUP3 SWAP1 SUB PUSH1 0x1F AND DUP3 ADD SWAP2 JUMPDEST POP POP POP POP POP DUP2 MSTORE PUSH1 0x20 ADD PUSH1 0x2 DUP3 ADD DUP1 SLOAD PUSH2 0x23EB SWAP1 PUSH2 0x49C2 JUMP JUMPDEST DUP1 PUSH1 0x1F ADD PUSH1 0x20 DUP1 SWAP2 DIV MUL PUSH1 0x20 ADD PUSH1 0x40 MLOAD SWAP1 DUP2 ADD PUSH1 0x40 MSTORE DUP1 SWAP3 SWAP2 SWAP1 DUP2 DUP2 MSTORE PUSH1 0x20 ADD DUP3 DUP1 SLOAD PUSH2 0x2417 SWAP1 PUSH2 0x49C2 JUMP JUMPDEST DUP1 ISZERO PUSH2 0x2464 JUMPI DUP1 PUSH1 0x1F LT PUSH2 0x2439 JUMPI PUSH2 0x100 DUP1 DUP4 SLOAD DIV MUL DUP4 MSTORE SWAP2 PUSH1 0x20 ADD SWAP2 PUSH2 0x2464 JUMP JUMPDEST DUP3 ADD SWAP2 SWAP1 PUSH1 0x0 MSTORE PUSH1 0x20 PUSH1 0x0 KECCAK256 SWAP1 JUMPDEST DUP2 SLOAD DUP2 MSTORE SWAP1 PUSH1 0x1 ADD SWAP1 PUSH1 0x20 ADD DUP1 DUP4 GT PUSH2 0x2447 JUMPI DUP3 SWAP1 SUB PUSH1 0x1F AND DUP3 ADD SWAP2 JUMPDEST POP POP POP POP POP DUP2 MSTORE PUSH1 0x20 ADD PUSH1 0x3 DUP3 ADD DUP1 SLOAD PUSH2 0x247D SWAP1 PUSH2 0x49C2 JUMP JUMPDEST DUP1 PUSH1 0x1F ADD PUSH1 0x20 DUP1 SWAP2 DIV MUL PUSH1 0x20 ADD PUSH1 0x40 MLOAD SWAP1 DUP2 ADD PUSH1 0x40 MSTORE DUP1 SWAP3 SWAP2 SWAP1 DUP2 DUP2 MSTORE PUSH1 0x20 ADD DUP3 DUP1 SLOAD PUSH2 0x24A9 SWAP1 PUSH2 0x49C2 JUMP JUMPDEST DUP1 ISZERO PUSH2 0x24F6 JUMPI DUP1 PUSH1 0x1F LT PUSH2 0x24CB JUMPI PUSH2 0x100 DUP1 DUP4 SLOAD DIV MUL DUP4 MSTORE SWAP2 PUSH1 0x20 ADD SWAP2 PUSH2 0x24F6 JUMP JUMPDEST DUP3 ADD SWAP2 SWAP1 PUSH1 0x0 MSTORE PUSH1 0x20 PUSH1 0x0 KECCAK256 SWAP1 JUMPDEST DUP2 SLOAD DUP2 MSTORE SWAP1 PUSH1 0x1 ADD SWAP1 PUSH1 0x20 ADD DUP1 DUP4 GT PUSH2 0x24D9 JUMPI DUP3 SWAP1 SUB PUSH1 0x1F AND DUP3 ADD SWAP2 JUMPDEST POP POP POP POP POP DUP2 MSTORE PUSH1 0x20 ADD PUSH1 0x4 DUP3 ADD DUP1 SLOAD PUSH2 0x250F SWAP1 PUSH2 0x49C2 JUMP JUMPDEST DUP1 PUSH1 0x1F ADD PUSH1 0x20 DUP1 SWAP2 DIV MUL PUSH1 0x20 ADD PUSH1 0x40 MLOAD SWAP1 DUP2 ADD PUSH1 0x40 MSTORE DUP1 SWAP3 SWAP2 SWAP1 DUP2 DUP2 MSTORE PUSH1 0x20 ADD DUP3 DUP1 SLOAD PUSH2 0x253B SWAP1 PUSH2 0x49C2 JUMP JUMPDEST DUP1 ISZERO PUSH2 0x2588 JUMPI DUP1 PUSH1 0x1F LT PUSH2 0x255D JUMPI PUSH2 0x100 DUP1 DUP4 SLOAD DIV MUL DUP4 MSTORE SWAP2 PUSH1 0x20 ADD SWAP2 PUSH2 0x2588 JUMP JUMPDEST DUP3 ADD SWAP2 SWAP1 PUSH1 0x0 MSTORE PUSH1 0x20 PUSH1 0x0 KECCAK256 SWAP1 JUMPDEST DUP2 SLOAD DUP2 MSTORE SWAP1 PUSH1 0x1 ADD SWAP1 PUSH1 0x20 ADD DUP1 DUP4 GT PUSH2 0x256B JUMPI DUP3 SWAP1 SUB PUSH1 0x1F AND DUP3 ADD SWAP2 JUMPDEST POP POP POP POP POP DUP2 MSTORE PUSH1 0x20 ADD PUSH1 0x5 DUP3 ADD DUP1 SLOAD PUSH2 0x25A1 SWAP1 PUSH2 0x49C2 JUMP JUMPDEST DUP1 PUSH1 0x1F ADD PUSH1 0x20 DUP1 SWAP2 DIV MUL PUSH1 0x20 ADD PUSH1 0x40 MLOAD SWAP1 DUP2 ADD PUSH1 0x40 MSTORE DUP1 SWAP3 SWAP2 SWAP1 DUP2 DUP2 MSTORE PUSH1 0x20 ADD DUP3 DUP1 SLOAD PUSH2 0x25CD SWAP1 PUSH2 0x49C2 JUMP JUMPDEST DUP1 ISZERO PUSH2 0x261A JUMPI DUP1 PUSH1 0x1F LT PUSH2 0x25EF JUMPI PUSH2 0x100 DUP1 DUP4 SLOAD DIV MUL DUP4 MSTORE SWAP2 PUSH1 0x20 ADD SWAP2 PUSH2 0x261A JUMP JUMPDEST DUP3 ADD SWAP2 SWAP1 PUSH1 0x0 MSTORE PUSH1 0x20 PUSH1 0x0 KECCAK256 SWAP1 JUMPDEST DUP2 SLOAD DUP2 MSTORE SWAP1 PUSH1 0x1 ADD SWAP1 PUSH1 0x20 ADD DUP1 DUP4 GT PUSH2 0x25FD JUMPI DUP3 SWAP1 SUB PUSH1 0x1F AND DUP3 ADD SWAP2 JUMPDEST POP POP POP POP POP DUP2 MSTORE PUSH1 0x20 ADD PUSH1 0x6 DUP3 ADD DUP1 SLOAD PUSH2 0x2633 SWAP1 PUSH2 0x49C2 JUMP JUMPDEST DUP1 PUSH1 0x1F ADD PUSH1 0x20 DUP1 SWAP2 DIV MUL PUSH1 0x20 ADD PUSH1 0x40 MLOAD SWAP1 DUP2 ADD PUSH1 0x40 MSTORE DUP1 SWAP3 SWAP2 SWAP1 DUP2 DUP2 MSTORE PUSH1 0x20 ADD DUP3 DUP1 SLOAD PUSH2 0x265F SWAP1 PUSH2 0x49C2 JUMP JUMPDEST DUP1 ISZERO PUSH2 0x26AC JUMPI DUP1 PUSH1 0x1F LT PUSH2 0x2681 JUMPI PUSH2 0x100 DUP1 DUP4 SLOAD DIV MUL DUP4 MSTORE SWAP2 PUSH1 0x20 ADD SWAP2 PUSH2 0x26AC JUMP JUMPDEST DUP3 ADD SWAP2 SWAP1 PUSH1 0x0 MSTORE PUSH1 0x20 PUSH1 0x0 KECCAK256 SWAP1 JUMPDEST DUP2 SLOAD DUP2 MSTORE SWAP1 PUSH1 0x1 ADD SWAP1 PUSH1 0x20 ADD DUP1 DUP4 GT PUSH2 0x268F JUMPI DUP3 SWAP1 SUB PUSH1 0x1F AND DUP3 ADD SWAP2 JUMPDEST POP POP POP POP POP DUP2 MSTORE PUSH1 0x20 ADD PUSH1 0x7 DUP3 ADD DUP1 SLOAD PUSH2 0x26C5 SWAP1 PUSH2 0x49C2 JUMP JUMPDEST DUP1 PUSH1 0x1F ADD PUSH1 0x20 DUP1 SWAP2 DIV MUL PUSH1 0x20 ADD PUSH1 0x40 MLOAD SWAP1 DUP2 ADD PUSH1 0x40 MSTORE DUP1 SWAP3 SWAP2 SWAP1 DUP2 DUP2 MSTORE PUSH1 0x20 ADD DUP3 DUP1 SLOAD PUSH2 0x26F1 SWAP1 PUSH2 0x49C2 JUMP JUMPDEST DUP1 ISZERO PUSH2 0x273E JUMPI DUP1 PUSH1 0x1F LT PUSH2 0x2713 JUMPI PUSH2 0x100 DUP1 DUP4 SLOAD DIV MUL DUP4 MSTORE SWAP2 PUSH1 0x20 ADD SWAP2 PUSH2 0x273E JUMP JUMPDEST DUP3 ADD SWAP2 SWAP1 PUSH1 0x0 MSTORE PUSH1 0x20 PUSH1 0x0 KECCAK256 SWAP1 JUMPDEST DUP2 SLOAD DUP2 MSTORE SWAP1 PUSH1 0x1 ADD SWAP1 PUSH1 0x20 ADD DUP1 DUP4 GT PUSH2 0x2721 JUMPI DUP3 SWAP1 SUB PUSH1 0x1F AND DUP3 ADD SWAP2 JUMPDEST POP POP POP POP POP DUP2 MSTORE PUSH1 0x20 ADD PUSH1 0x8 DUP3 ADD DUP1 SLOAD PUSH2 0x2757 SWAP1 PUSH2 0x49C2 JUMP JUMPDEST DUP1 PUSH1 0x1F ADD PUSH1 0x20 DUP1 SWAP2 DIV MUL PUSH1 0x20 ADD PUSH1 0x40 MLOAD SWAP1 DUP2 ADD PUSH1 0x40 MSTORE DUP1 SWAP3 SWAP2 SWAP1 DUP2 DUP2 MSTORE PUSH1 0x20 ADD DUP3 DUP1 SLOAD PUSH2 0x2783 SWAP1 PUSH2 0x49C2 JUMP JUMPDEST DUP1 ISZERO PUSH2 0x27D0 JUMPI DUP1 PUSH1 0x1F LT PUSH2 0x27A5 JUMPI PUSH2 0x100 DUP1 DUP4 SLOAD DIV MUL DUP4 MSTORE SWAP2 PUSH1 0x20 ADD SWAP2 PUSH2 0x27D0 JUMP JUMPDEST DUP3 ADD SWAP2 SWAP1 PUSH1 0x0 MSTORE PUSH1 0x20 PUSH1 0x0 KECCAK256 SWAP1 JUMPDEST DUP2 SLOAD DUP2 MSTORE SWAP1 PUSH1 0x1 ADD SWAP1 PUSH1 0x20 ADD DUP1 DUP4 GT PUSH2 0x27B3 JUMPI DUP3 SWAP1 SUB PUSH1 0x1F AND DUP3 ADD SWAP2 JUMPDEST POP POP POP POP POP DUP2 MSTORE POP POP DUP2 MSTORE PUSH1 0x20 ADD PUSH1 0xA DUP3 ADD SLOAD DUP2 MSTORE POP POP DUP3 DUP3 DUP2 MLOAD DUP2 LT PUSH2 0x27FA JUMPI PUSH2 0x27F9 PUSH2 0x5184 JUMP JUMPDEST JUMPDEST PUSH1 0x20 MUL PUSH1 0x20 ADD ADD DUP2 SWAP1 MSTORE POP DUP1 DUP1 PUSH1 0x1 ADD SWAP2 POP POP PUSH2 0x21C8 JUMP JUMPDEST POP DUP1 SWAP5 POP POP POP POP POP SWAP1 JUMP JUMPDEST PUSH2 0x2825 PUSH2 0x3AA0 JUMP JUMPDEST PUSH1 0x0 PUSH1 0x1 PUSH1 0x0 CALLER PUSH20 0xFFFFFFFFFFFFFFFFFFFFFFFFFFFFFFFFFFFFFFFF AND PUSH20 0xFFFFFFFFFFFFFFFFFFFFFFFFFFFFFFFFFFFFFFFF AND DUP2 MSTORE PUSH1 0x20 ADD SWAP1 DUP2 MSTORE PUSH1 0x20 ADD PUSH1 0x0 KECCAK256 DUP1 SLOAD PUSH2 0x2871 SWAP1 PUSH2 0x49C2 JUMP JUMPDEST DUP1 PUSH1 0x1F ADD PUSH1 0x20 DUP1 SWAP2 DIV MUL PUSH1 0x20 ADD PUSH1 0x40 MLOAD SWAP1 DUP2 ADD PUSH1 0x40 MSTORE DUP1 SWAP3 SWAP2 SWAP1 DUP2 DUP2 MSTORE PUSH1 0x20 ADD DUP3 DUP1 SLOAD PUSH2 0x289D SWAP1 PUSH2 0x49C2 JUMP JUMPDEST DUP1 ISZERO PUSH2 0x28EA JUMPI DUP1 PUSH1 0x1F LT PUSH2 0x28BF JUMPI PUSH2 0x100 DUP1 DUP4 SLOAD DIV MUL DUP4 MSTORE SWAP2 PUSH1 0x20 ADD SWAP2 PUSH2 0x28EA JUMP JUMPDEST DUP3 ADD SWAP2 SWAP1 PUSH1 0x0 MSTORE PUSH1 0x20 PUSH1 0x0 KECCAK256 SWAP1 JUMPDEST DUP2 SLOAD DUP2 MSTORE SWAP1 PUSH1 0x1 ADD SWAP1 PUSH1 0x20 ADD DUP1 DUP4 GT PUSH2 0x28CD JUMPI DUP3 SWAP1 SUB PUSH1 0x1F AND DUP3 ADD SWAP2 JUMPDEST POP POP POP POP POP SWAP1 POP DUP1 MLOAD PUSH1 0x5 DUP3 PUSH1 0x40 MLOAD PUSH2 0x2903 SWAP2 SWAP1 PUSH2 0x4A2F JUMP JUMPDEST SWAP1 DUP2 MSTORE PUSH1 0x20 ADD PUSH1 0x40 MLOAD DUP1 SWAP2 SUB SWAP1 KECCAK256 PUSH1 0x0 ADD DUP1 SLOAD PUSH2 0x291F SWAP1 PUSH2 0x49C2 JUMP JUMPDEST SWAP1 POP EQ PUSH2 0x2961 JUMPI PUSH1 0x40 MLOAD PUSH32 0x8C379A000000000000000000000000000000000000000000000000000000000 DUP2 MSTORE PUSH1 0x4 ADD PUSH2 0x2958 SWAP1 PUSH2 0x4AA3 JUMP JUMPDEST PUSH1 0x40 MLOAD DUP1 SWAP2 SUB SWAP1 REVERT JUMPDEST PUSH1 0x0 PUSH1 0x1 PUSH1 0x0 CALLER PUSH20 0xFFFFFFFFFFFFFFFFFFFFFFFFFFFFFFFFFFFFFFFF AND PUSH20 0xFFFFFFFFFFFFFFFFFFFFFFFFFFFFFFFFFFFFFFFF AND DUP2 MSTORE PUSH1 0x20 ADD SWAP1 DUP2 MSTORE PUSH1 0x20 ADD PUSH1 0x0 KECCAK256 DUP1 SLOAD PUSH2 0x29AD SWAP1 PUSH2 0x49C2 JUMP JUMPDEST DUP1 PUSH1 0x1F ADD PUSH1 0x20 DUP1 SWAP2 DIV MUL PUSH1 0x20 ADD PUSH1 0x40 MLOAD SWAP1 DUP2 ADD PUSH1 0x40 MSTORE DUP1 SWAP3 SWAP2 SWAP1 DUP2 DUP2 MSTORE PUSH1 0x20 ADD DUP3 DUP1 SLOAD PUSH2 0x29D9 SWAP1 PUSH2 0x49C2 JUMP JUMPDEST DUP1 ISZERO PUSH2 0x2A26 JUMPI DUP1 PUSH1 0x1F LT PUSH2 0x29FB JUMPI PUSH2 0x100 DUP1 DUP4 SLOAD DIV MUL DUP4 MSTORE SWAP2 PUSH1 0x20 ADD SWAP2 PUSH2 0x2A26 JUMP JUMPDEST DUP3 ADD SWAP2 SWAP1 PUSH1 0x0 MSTORE PUSH1 0x20 PUSH1 0x0 KECCAK256 SWAP1 JUMPDEST DUP2 SLOAD DUP2 MSTORE SWAP1 PUSH1 0x1 ADD SWAP1 PUSH1 0x20 ADD DUP1 DUP4 GT PUSH2 0x2A09 JUMPI DUP3 SWAP1 SUB PUSH1 0x1F AND DUP3 ADD SWAP2 JUMPDEST POP POP POP POP POP SWAP1 POP PUSH1 0x0 PUSH1 0x7 DUP3 PUSH1 0x40 MLOAD PUSH2 0x2A3F SWAP2 SWAP1 PUSH2 0x4A2F JUMP JUMPDEST SWAP1 DUP2 MSTORE PUSH1 0x20 ADD PUSH1 0x40 MLOAD DUP1 SWAP2 SUB SWAP1 KECCAK256 DUP1 SLOAD PUSH2 0x2A58 SWAP1 PUSH2 0x49C2 JUMP JUMPDEST DUP1 PUSH1 0x1F ADD PUSH1 0x20 DUP1 SWAP2 DIV MUL PUSH1 0x20 ADD PUSH1 0x40 MLOAD SWAP1 DUP2 ADD PUSH1 0x40 MSTORE DUP1 SWAP3 SWAP2 SWAP1 DUP2 DUP2 MSTORE PUSH1 0x20 ADD DUP3 DUP1 SLOAD PUSH2 0x2A84 SWAP1 PUSH2 0x49C2 JUMP JUMPDEST DUP1 ISZERO PUSH2 0x2AD1 JUMPI DUP1 PUSH1 0x1F LT PUSH2 0x2AA6 JUMPI PUSH2 0x100 DUP1 DUP4 SLOAD DIV MUL DUP4 MSTORE SWAP2 PUSH1 0x20 ADD SWAP2 PUSH2 0x2AD1 JUMP JUMPDEST DUP3 ADD SWAP2 SWAP1 PUSH1 0x0 MSTORE PUSH1 0x20 PUSH1 0x0 KECCAK256 SWAP1 JUMPDEST DUP2 SLOAD DUP2 MSTORE SWAP1 PUSH1 0x1 ADD SWAP1 PUSH1 0x20 ADD DUP1 DUP4 GT PUSH2 0x2AB4 JUMPI DUP3 SWAP1 SUB PUSH1 0x1F AND DUP3 ADD SWAP2 JUMPDEST POP POP POP POP POP SWAP1 POP PUSH1 0x0 DUP2 MLOAD GT PUSH2 0x2B1C JUMPI PUSH1 0x40 MLOAD PUSH32 0x8C379A000000000000000000000000000000000000000000000000000000000 DUP2 MSTORE PUSH1 0x4 ADD PUSH2 0x2B13 SWAP1 PUSH2 0x51FF JUMP JUMPDEST PUSH1 0x40 MLOAD DUP1 SWAP2 SUB SWAP1 REVERT JUMPDEST PUSH1 0x6 DUP2 PUSH1 0x40 MLOAD PUSH2 0x2B2C SWAP2 SWAP1 PUSH2 0x4A2F JUMP JUMPDEST SWAP1 DUP2 MSTORE PUSH1 0x20 ADD PUSH1 0x40 MLOAD DUP1 SWAP2 SUB SWAP1 KECCAK256 PUSH1 0x40 MLOAD DUP1 PUSH1 0xE0 ADD PUSH1 0x40 MSTORE SWAP1 DUP2 PUSH1 0x0 DUP3 ADD DUP1 SLOAD PUSH2 0x2B55 SWAP1 PUSH2 0x49C2 JUMP JUMPDEST DUP1 PUSH1 0x1F ADD PUSH1 0x20 DUP1 SWAP2 DIV MUL PUSH1 0x20 ADD PUSH1 0x40 MLOAD SWAP1 DUP2 ADD PUSH1 0x40 MSTORE DUP1 SWAP3 SWAP2 SWAP1 DUP2 DUP2 MSTORE PUSH1 0x20 ADD DUP3 DUP1 SLOAD PUSH2 0x2B81 SWAP1 PUSH2 0x49C2 JUMP JUMPDEST DUP1 ISZERO PUSH2 0x2BCE JUMPI DUP1 PUSH1 0x1F LT PUSH2 0x2BA3 JUMPI PUSH2 0x100 DUP1 DUP4 SLOAD DIV MUL DUP4 MSTORE SWAP2 PUSH1 0x20 ADD SWAP2 PUSH2 0x2BCE JUMP JUMPDEST DUP3 ADD SWAP2 SWAP1 PUSH1 0x0 MSTORE PUSH1 0x20 PUSH1 0x0 KECCAK256 SWAP1 JUMPDEST DUP2 SLOAD DUP2 MSTORE SWAP1 PUSH1 0x1 ADD SWAP1 PUSH1 0x20 ADD DUP1 DUP4 GT PUSH2 0x2BB1 JUMPI DUP3 SWAP1 SUB PUSH1 0x1F AND DUP3 ADD SWAP2 JUMPDEST POP POP POP POP POP DUP2 MSTORE PUSH1 0x20 ADD PUSH1 0x1 DUP3 ADD DUP1 SLOAD PUSH2 0x2BE7 SWAP1 PUSH2 0x49C2 JUMP JUMPDEST DUP1 PUSH1 0x1F ADD PUSH1 0x20 DUP1 SWAP2 DIV MUL PUSH1 0x20 ADD PUSH1 0x40 MLOAD SWAP1 DUP2 ADD PUSH1 0x40 MSTORE DUP1 SWAP3 SWAP2 SWAP1 DUP2 DUP2 MSTORE PUSH1 0x20 ADD DUP3 DUP1 SLOAD PUSH2 0x2C13 SWAP1 PUSH2 0x49C2 JUMP JUMPDEST DUP1 ISZERO PUSH2 0x2C60 JUMPI DUP1 PUSH1 0x1F LT PUSH2 0x2C35 JUMPI PUSH2 0x100 DUP1 DUP4 SLOAD DIV MUL DUP4 MSTORE SWAP2 PUSH1 0x20 ADD SWAP2 PUSH2 0x2C60 JUMP JUMPDEST DUP3 ADD SWAP2 SWAP1 PUSH1 0x0 MSTORE PUSH1 0x20 PUSH1 0x0 KECCAK256 SWAP1 JUMPDEST DUP2 SLOAD DUP2 MSTORE SWAP1 PUSH1 0x1 ADD SWAP1 PUSH1 0x20 ADD DUP1 DUP4 GT PUSH2 0x2C43 JUMPI DUP3 SWAP1 SUB PUSH1 0x1F AND DUP3 ADD SWAP2 JUMPDEST POP POP POP POP POP DUP2 MSTORE PUSH1 0x20 ADD PUSH1 0x2 DUP3 ADD DUP1 SLOAD PUSH2 0x2C79 SWAP1 PUSH2 0x49C2 JUMP JUMPDEST DUP1 PUSH1 0x1F ADD PUSH1 0x20 DUP1 SWAP2 DIV MUL PUSH1 0x20 ADD PUSH1 0x40 MLOAD SWAP1 DUP2 ADD PUSH1 0x40 MSTORE DUP1 SWAP3 SWAP2 SWAP1 DUP2 DUP2 MSTORE PUSH1 0x20 ADD DUP3 DUP1 SLOAD PUSH2 0x2CA5 SWAP1 PUSH2 0x49C2 JUMP JUMPDEST DUP1 ISZERO PUSH2 0x2CF2 JUMPI DUP1 PUSH1 0x1F LT PUSH2 0x2CC7 JUMPI PUSH2 0x100 DUP1 DUP4 SLOAD DIV MUL DUP4 MSTORE SWAP2 PUSH1 0x20 ADD SWAP2 PUSH2 0x2CF2 JUMP JUMPDEST DUP3 ADD SWAP2 SWAP1 PUSH1 0x0 MSTORE PUSH1 0x20 PUSH1 0x0 KECCAK256 SWAP1 JUMPDEST DUP2 SLOAD DUP2 MSTORE SWAP1 PUSH1 0x1 ADD SWAP1 PUSH1 0x20 ADD DUP1 DUP4 GT PUSH2 0x2CD5 JUMPI DUP3 SWAP1 SUB PUSH1 0x1F AND DUP3 ADD SWAP2 JUMPDEST POP POP POP POP POP DUP2 MSTORE PUSH1 0x20 ADD PUSH1 0x3 DUP3 ADD DUP1 SLOAD PUSH2 0x2D0B SWAP1 PUSH2 0x49C2 JUMP JUMPDEST DUP1 PUSH1 0x1F ADD PUSH1 0x20 DUP1 SWAP2 DIV MUL PUSH1 0x20 ADD PUSH1 0x40 MLOAD SWAP1 DUP2 ADD PUSH1 0x40 MSTORE DUP1 SWAP3 SWAP2 SWAP1 DUP2 DUP2 MSTORE PUSH1 0x20 ADD DUP3 DUP1 SLOAD PUSH2 0x2D37 SWAP1 PUSH2 0x49C2 JUMP JUMPDEST DUP1 ISZERO PUSH2 0x2D84 JUMPI DUP1 PUSH1 0x1F LT PUSH2 0x2D59 JUMPI PUSH2 0x100 DUP1 DUP4 SLOAD DIV MUL DUP4 MSTORE SWAP2 PUSH1 0x20 ADD SWAP2 PUSH2 0x2D84 JUMP JUMPDEST DUP3 ADD SWAP2 SWAP1 PUSH1 0x0 MSTORE PUSH1 0x20 PUSH1 0x0 KECCAK256 SWAP1 JUMPDEST DUP2 SLOAD DUP2 MSTORE SWAP1 PUSH1 0x1 ADD SWAP1 PUSH1 0x20 ADD DUP1 DUP4 GT PUSH2 0x2D67 JUMPI DUP3 SWAP1 SUB PUSH1 0x1F AND DUP3 ADD SWAP2 JUMPDEST POP POP POP POP POP DUP2 MSTORE PUSH1 0x20 ADD PUSH1 0x4 DUP3 ADD DUP1 SLOAD PUSH2 0x2D9D SWAP1 PUSH2 0x49C2 JUMP JUMPDEST DUP1 PUSH1 0x1F ADD PUSH1 0x20 DUP1 SWAP2 DIV MUL PUSH1 0x20 ADD PUSH1 0x40 MLOAD SWAP1 DUP2 ADD PUSH1 0x40 MSTORE DUP1 SWAP3 SWAP2 SWAP1 DUP2 DUP2 MSTORE PUSH1 0x20 ADD DUP3 DUP1 SLOAD PUSH2 0x2DC9 SWAP1 PUSH2 0x49C2 JUMP JUMPDEST DUP1 ISZERO PUSH2 0x2E16 JUMPI DUP1 PUSH1 0x1F LT PUSH2 0x2DEB JUMPI PUSH2 0x100 DUP1 DUP4 SLOAD DIV MUL DUP4 MSTORE SWAP2 PUSH1 0x20 ADD SWAP2 PUSH2 0x2E16 JUMP JUMPDEST DUP3 ADD SWAP2 SWAP1 PUSH1 0x0 MSTORE PUSH1 0x20 PUSH1 0x0 KECCAK256 SWAP1 JUMPDEST DUP2 SLOAD DUP2 MSTORE SWAP1 PUSH1 0x1 ADD SWAP1 PUSH1 0x20 ADD DUP1 DUP4 GT PUSH2 0x2DF9 JUMPI DUP3 SWAP1 SUB PUSH1 0x1F AND DUP3 ADD SWAP2 JUMPDEST POP POP POP POP POP DUP2 MSTORE PUSH1 0x20 ADD PUSH1 0x5 DUP3 ADD DUP1 SLOAD PUSH2 0x2E2F SWAP1 PUSH2 0x49C2 JUMP JUMPDEST DUP1 PUSH1 0x1F ADD PUSH1 0x20 DUP1 SWAP2 DIV MUL PUSH1 0x20 ADD PUSH1 0x40 MLOAD SWAP1 DUP2 ADD PUSH1 0x40 MSTORE DUP1 SWAP3 SWAP2 SWAP1 DUP2 DUP2 MSTORE PUSH1 0x20 ADD DUP3 DUP1 SLOAD PUSH2 0x2E5B SWAP1 PUSH2 0x49C2 JUMP JUMPDEST DUP1 ISZERO PUSH2 0x2EA8 JUMPI DUP1 PUSH1 0x1F LT PUSH2 0x2E7D JUMPI PUSH2 0x100 DUP1 DUP4 SLOAD DIV MUL DUP4 MSTORE SWAP2 PUSH1 0x20 ADD SWAP2 PUSH2 0x2EA8 JUMP JUMPDEST DUP3 ADD SWAP2 SWAP1 PUSH1 0x0 MSTORE PUSH1 0x20 PUSH1 0x0 KECCAK256 SWAP1 JUMPDEST DUP2 SLOAD DUP2 MSTORE SWAP1 PUSH1 0x1 ADD SWAP1 PUSH1 0x20 ADD DUP1 DUP4 GT PUSH2 0x2E8B JUMPI DUP3 SWAP1 SUB PUSH1 0x1F AND DUP3 ADD SWAP2 JUMPDEST POP POP POP POP POP DUP2 MSTORE PUSH1 0x20 ADD PUSH1 0x6 DUP3 ADD SLOAD DUP2 MSTORE POP POP SWAP4 POP POP POP POP SWAP1 JUMP JUMPDEST PUSH2 0x2ECB PUSH2 0x3B1D JUMP JUMPDEST PUSH1 0x5 DUP3 PUSH1 0x40 MLOAD PUSH2 0x2EDB SWAP2 SWAP1 PUSH2 0x4A2F JUMP JUMPDEST SWAP1 DUP2 MSTORE PUSH1 0x20 ADD PUSH1 0x40 MLOAD DUP1 SWAP2 SUB SWAP1 KECCAK256 PUSH1 0x40 MLOAD DUP1 PUSH1 0x60 ADD PUSH1 0x40 MSTORE SWAP1 DUP2 PUSH1 0x0 DUP3 ADD DUP1 SLOAD PUSH2 0x2F04 SWAP1 PUSH2 0x49C2 JUMP JUMPDEST DUP1 PUSH1 0x1F ADD PUSH1 0x20 DUP1 SWAP2 DIV MUL PUSH1 0x20 ADD PUSH1 0x40 MLOAD SWAP1 DUP2 ADD PUSH1 0x40 MSTORE DUP1 SWAP3 SWAP2 SWAP1 DUP2 DUP2 MSTORE PUSH1 0x20 ADD DUP3 DUP1 SLOAD PUSH2 0x2F30 SWAP1 PUSH2 0x49C2 JUMP JUMPDEST DUP1 ISZERO PUSH2 0x2F7D JUMPI DUP1 PUSH1 0x1F LT PUSH2 0x2F52 JUMPI PUSH2 0x100 DUP1 DUP4 SLOAD DIV MUL DUP4 MSTORE SWAP2 PUSH1 0x20 ADD SWAP2 PUSH2 0x2F7D JUMP JUMPDEST DUP3 ADD SWAP2 SWAP1 PUSH1 0x0 MSTORE PUSH1 0x20 PUSH1 0x0 KECCAK256 SWAP1 JUMPDEST DUP2 SLOAD DUP2 MSTORE SWAP1 PUSH1 0x1 ADD SWAP1 PUSH1 0x20 ADD DUP1 DUP4 GT PUSH2 0x2F60 JUMPI DUP3 SWAP1 SUB PUSH1 0x1F AND DUP3 ADD SWAP2 JUMPDEST POP POP POP POP POP DUP2 MSTORE PUSH1 0x20 ADD PUSH1 0x1 DUP3 ADD PUSH1 0x40 MLOAD DUP1 PUSH2 0x120 ADD PUSH1 0x40 MSTORE SWAP1 DUP2 PUSH1 0x0 DUP3 ADD DUP1 SLOAD PUSH2 0x2FA7 SWAP1 PUSH2 0x49C2 JUMP JUMPDEST DUP1 PUSH1 0x1F ADD PUSH1 0x20 DUP1 SWAP2 DIV MUL PUSH1 0x20 ADD PUSH1 0x40 MLOAD SWAP1 DUP2 ADD PUSH1 0x40 MSTORE DUP1 SWAP3 SWAP2 SWAP1 DUP2 DUP2 MSTORE PUSH1 0x20 ADD DUP3 DUP1 SLOAD PUSH2 0x2FD3 SWAP1 PUSH2 0x49C2 JUMP JUMPDEST DUP1 ISZERO PUSH2 0x3020 JUMPI DUP1 PUSH1 0x1F LT PUSH2 0x2FF5 JUMPI PUSH2 0x100 DUP1 DUP4 SLOAD DIV MUL DUP4 MSTORE SWAP2 PUSH1 0x20 ADD SWAP2 PUSH2 0x3020 JUMP JUMPDEST DUP3 ADD SWAP2 SWAP1 PUSH1 0x0 MSTORE PUSH1 0x20 PUSH1 0x0 KECCAK256 SWAP1 JUMPDEST DUP2 SLOAD DUP2 MSTORE SWAP1 PUSH1 0x1 ADD SWAP1 PUSH1 0x20 ADD DUP1 DUP4 GT PUSH2 0x3003 JUMPI DUP3 SWAP1 SUB PUSH1 0x1F AND DUP3 ADD SWAP2 JUMPDEST POP POP POP POP POP DUP2 MSTORE PUSH1 0x20 ADD PUSH1 0x1 DUP3 ADD DUP1 SLOAD PUSH2 0x3039 SWAP1 PUSH2 0x49C2 JUMP JUMPDEST DUP1 PUSH1 0x1F ADD PUSH1 0x20 DUP1 SWAP2 DIV MUL PUSH1 0x20 ADD PUSH1 0x40 MLOAD SWAP1 DUP2 ADD PUSH1 0x40 MSTORE DUP1 SWAP3 SWAP2 SWAP1 DUP2 DUP2 MSTORE PUSH1 0x20 ADD DUP3 DUP1 SLOAD PUSH2 0x3065 SWAP1 PUSH2 0x49C2 JUMP JUMPDEST DUP1 ISZERO PUSH2 0x30B2 JUMPI DUP1 PUSH1 0x1F LT PUSH2 0x3087 JUMPI PUSH2 0x100 DUP1 DUP4 SLOAD DIV MUL DUP4 MSTORE SWAP2 PUSH1 0x20 ADD SWAP2 PUSH2 0x30B2 JUMP JUMPDEST DUP3 ADD SWAP2 SWAP1 PUSH1 0x0 MSTORE PUSH1 0x20 PUSH1 0x0 KECCAK256 SWAP1 JUMPDEST DUP2 SLOAD DUP2 MSTORE SWAP1 PUSH1 0x1 ADD SWAP1 PUSH1 0x20 ADD DUP1 DUP4 GT PUSH2 0x3095 JUMPI DUP3 SWAP1 SUB PUSH1 0x1F AND DUP3 ADD SWAP2 JUMPDEST POP POP POP POP POP DUP2 MSTORE PUSH1 0x20 ADD PUSH1 0x2 DUP3 ADD DUP1 SLOAD PUSH2 0x30CB SWAP1 PUSH2 0x49C2 JUMP JUMPDEST DUP1 PUSH1 0x1F ADD PUSH1 0x20 DUP1 SWAP2 DIV MUL PUSH1 0x20 ADD PUSH1 0x40 MLOAD SWAP1 DUP2 ADD PUSH1 0x40 MSTORE DUP1 SWAP3 SWAP2 SWAP1 DUP2 DUP2 MSTORE PUSH1 0x20 ADD DUP3 DUP1 SLOAD PUSH2 0x30F7 SWAP1 PUSH2 0x49C2 JUMP JUMPDEST DUP1 ISZERO PUSH2 0x3144 JUMPI DUP1 PUSH1 0x1F LT PUSH2 0x3119 JUMPI PUSH2 0x100 DUP1 DUP4 SLOAD DIV MUL DUP4 MSTORE SWAP2 PUSH1 0x20 ADD SWAP2 PUSH2 0x3144 JUMP JUMPDEST DUP3 ADD SWAP2 SWAP1 PUSH1 0x0 MSTORE PUSH1 0x20 PUSH1 0x0 KECCAK256 SWAP1 JUMPDEST DUP2 SLOAD DUP2 MSTORE SWAP1 PUSH1 0x1 ADD SWAP1 PUSH1 0x20 ADD DUP1 DUP4 GT PUSH2 0x3127 JUMPI DUP3 SWAP1 SUB PUSH1 0x1F AND DUP3 ADD SWAP2 JUMPDEST POP POP POP POP POP DUP2 MSTORE PUSH1 0x20 ADD PUSH1 0x3 DUP3 ADD DUP1 SLOAD PUSH2 0x315D SWAP1 PUSH2 0x49C2 JUMP JUMPDEST DUP1 PUSH1 0x1F ADD PUSH1 0x20 DUP1 SWAP2 DIV MUL PUSH1 0x20 ADD PUSH1 0x40 MLOAD SWAP1 DUP2 ADD PUSH1 0x40 MSTORE DUP1 SWAP3 SWAP2 SWAP1 DUP2 DUP2 MSTORE PUSH1 0x20 ADD DUP3 DUP1 SLOAD PUSH2 0x3189 SWAP1 PUSH2 0x49C2 JUMP JUMPDEST DUP1 ISZERO PUSH2 0x31D6 JUMPI DUP1 PUSH1 0x1F LT PUSH2 0x31AB JUMPI PUSH2 0x100 DUP1 DUP4 SLOAD DIV MUL DUP4 MSTORE SWAP2 PUSH1 0x20 ADD SWAP2 PUSH2 0x31D6 JUMP JUMPDEST DUP3 ADD SWAP2 SWAP1 PUSH1 0x0 MSTORE PUSH1 0x20 PUSH1 0x0 KECCAK256 SWAP1 JUMPDEST DUP2 SLOAD DUP2 MSTORE SWAP1 PUSH1 0x1 ADD SWAP1 PUSH1 0x20 ADD DUP1 DUP4 GT PUSH2 0x31B9 JUMPI DUP3 SWAP1 SUB PUSH1 0x1F AND DUP3 ADD SWAP2 JUMPDEST POP POP POP POP POP DUP2 MSTORE PUSH1 0x20 ADD PUSH1 0x4 DUP3 ADD DUP1 SLOAD PUSH2 0x31EF SWAP1 PUSH2 0x49C2 JUMP JUMPDEST DUP1 PUSH1 0x1F ADD PUSH1 0x20 DUP1 SWAP2 DIV MUL PUSH1 0x20 ADD PUSH1 0x40 MLOAD SWAP1 DUP2 ADD PUSH1 0x40 MSTORE DUP1 SWAP3 SWAP2 SWAP1 DUP2 DUP2 MSTORE PUSH1 0x20 ADD DUP3 DUP1 SLOAD PUSH2 0x321B SWAP1 PUSH2 0x49C2 JUMP JUMPDEST DUP1 ISZERO PUSH2 0x3268 JUMPI DUP1 PUSH1 0x1F LT PUSH2 0x323D JUMPI PUSH2 0x100 DUP1 DUP4 SLOAD DIV MUL DUP4 MSTORE SWAP2 PUSH1 0x20 ADD SWAP2 PUSH2 0x3268 JUMP JUMPDEST DUP3 ADD SWAP2 SWAP1 PUSH1 0x0 MSTORE PUSH1 0x20 PUSH1 0x0 KECCAK256 SWAP1 JUMPDEST DUP2 SLOAD DUP2 MSTORE SWAP1 PUSH1 0x1 ADD SWAP1 PUSH1 0x20 ADD DUP1 DUP4 GT PUSH2 0x324B JUMPI DUP3 SWAP1 SUB PUSH1 0x1F AND DUP3 ADD SWAP2 JUMPDEST POP POP POP POP POP DUP2 MSTORE PUSH1 0x20 ADD PUSH1 0x5 DUP3 ADD DUP1 SLOAD PUSH2 0x3281 SWAP1 PUSH2 0x49C2 JUMP JUMPDEST DUP1 PUSH1 0x1F ADD PUSH1 0x20 DUP1 SWAP2 DIV MUL PUSH1 0x20 ADD PUSH1 0x40 MLOAD SWAP1 DUP2 ADD PUSH1 0x40 MSTORE DUP1 SWAP3 SWAP2 SWAP1 DUP2 DUP2 MSTORE PUSH1 0x20 ADD DUP3 DUP1 SLOAD PUSH2 0x32AD SWAP1 PUSH2 0x49C2 JUMP JUMPDEST DUP1 ISZERO PUSH2 0x32FA JUMPI DUP1 PUSH1 0x1F LT PUSH2 0x32CF JUMPI PUSH2 0x100 DUP1 DUP4 SLOAD DIV MUL DUP4 MSTORE SWAP2 PUSH1 0x20 ADD SWAP2 PUSH2 0x32FA JUMP JUMPDEST DUP3 ADD SWAP2 SWAP1 PUSH1 0x0 MSTORE PUSH1 0x20 PUSH1 0x0 KECCAK256 SWAP1 JUMPDEST DUP2 SLOAD DUP2 MSTORE SWAP1 PUSH1 0x1 ADD SWAP1 PUSH1 0x20 ADD DUP1 DUP4 GT PUSH2 0x32DD JUMPI DUP3 SWAP1 SUB PUSH1 0x1F AND DUP3 ADD SWAP2 JUMPDEST POP POP POP POP POP DUP2 MSTORE PUSH1 0x20 ADD PUSH1 0x6 DUP3 ADD DUP1 SLOAD PUSH2 0x3313 SWAP1 PUSH2 0x49C2 JUMP JUMPDEST DUP1 PUSH1 0x1F ADD PUSH1 0x20 DUP1 SWAP2 DIV MUL PUSH1 0x20 ADD PUSH1 0x40 MLOAD SWAP1 DUP2 ADD PUSH1 0x40 MSTORE DUP1 SWAP3 SWAP2 SWAP1 DUP2 DUP2 MSTORE PUSH1 0x20 ADD DUP3 DUP1 SLOAD PUSH2 0x333F SWAP1 PUSH2 0x49C2 JUMP JUMPDEST DUP1 ISZERO PUSH2 0x338C JUMPI DUP1 PUSH1 0x1F LT PUSH2 0x3361 JUMPI PUSH2 0x100 DUP1 DUP4 SLOAD DIV MUL DUP4 MSTORE SWAP2 PUSH1 0x20 ADD SWAP2 PUSH2 0x338C JUMP JUMPDEST DUP3 ADD SWAP2 SWAP1 PUSH1 0x0 MSTORE PUSH1 0x20 PUSH1 0x0 KECCAK256 SWAP1 JUMPDEST DUP2 SLOAD DUP2 MSTORE SWAP1 PUSH1 0x1 ADD SWAP1 PUSH1 0x20 ADD DUP1 DUP4 GT PUSH2 0x336F JUMPI DUP3 SWAP1 SUB PUSH1 0x1F AND DUP3 ADD SWAP2 JUMPDEST POP POP POP POP POP DUP2 MSTORE PUSH1 0x20 ADD PUSH1 0x7 DUP3 ADD DUP1 SLOAD PUSH2 0x33A5 SWAP1 PUSH2 0x49C2 JUMP JUMPDEST DUP1 PUSH1 0x1F ADD PUSH1 0x20 DUP1 SWAP2 DIV MUL PUSH1 0x20 ADD PUSH1 0x40 MLOAD SWAP1 DUP2 ADD PUSH1 0x40 MSTORE DUP1 SWAP3 SWAP2 SWAP1 DUP2 DUP2 MSTORE PUSH1 0x20 ADD DUP3 DUP1 SLOAD PUSH2 0x33D1 SWAP1 PUSH2 0x49C2 JUMP JUMPDEST DUP1 ISZERO PUSH2 0x341E JUMPI DUP1 PUSH1 0x1F LT PUSH2 0x33F3 JUMPI PUSH2 0x100 DUP1 DUP4 SLOAD DIV MUL DUP4 MSTORE SWAP2 PUSH1 0x20 ADD SWAP2 PUSH2 0x341E JUMP JUMPDEST DUP3 ADD SWAP2 SWAP1 PUSH1 0x0 MSTORE PUSH1 0x20 PUSH1 0x0 KECCAK256 SWAP1 JUMPDEST DUP2 SLOAD DUP2 MSTORE SWAP1 PUSH1 0x1 ADD SWAP1 PUSH1 0x20 ADD DUP1 DUP4 GT PUSH2 0x3401 JUMPI DUP3 SWAP1 SUB PUSH1 0x1F AND DUP3 ADD SWAP2 JUMPDEST POP POP POP POP POP DUP2 MSTORE PUSH1 0x20 ADD PUSH1 0x8 DUP3 ADD DUP1 SLOAD PUSH2 0x3437 SWAP1 PUSH2 0x49C2 JUMP JUMPDEST DUP1 PUSH1 0x1F ADD PUSH1 0x20 DUP1 SWAP2 DIV MUL PUSH1 0x20 ADD PUSH1 0x40 MLOAD SWAP1 DUP2 ADD PUSH1 0x40 MSTORE DUP1 SWAP3 SWAP2 SWAP1 DUP2 DUP2 MSTORE PUSH1 0x20 ADD DUP3 DUP1 SLOAD PUSH2 0x3463 SWAP1 PUSH2 0x49C2 JUMP JUMPDEST DUP1 ISZERO PUSH2 0x34B0 JUMPI DUP1 PUSH1 0x1F LT PUSH2 0x3485 JUMPI PUSH2 0x100 DUP1 DUP4 SLOAD DIV MUL DUP4 MSTORE SWAP2 PUSH1 0x20 ADD SWAP2 PUSH2 0x34B0 JUMP JUMPDEST DUP3 ADD SWAP2 SWAP1 PUSH1 0x0 MSTORE PUSH1 0x20 PUSH1 0x0 KECCAK256 SWAP1 JUMPDEST DUP2 SLOAD DUP2 MSTORE SWAP1 PUSH1 0x1 ADD SWAP1 PUSH1 0x20 ADD DUP1 DUP4 GT PUSH2 0x3493 JUMPI DUP3 SWAP1 SUB PUSH1 0x1F AND DUP3 ADD SWAP2 JUMPDEST POP POP POP POP POP DUP2 MSTORE POP POP DUP2 MSTORE PUSH1 0x20 ADD PUSH1 0xA DUP3 ADD SLOAD DUP2 MSTORE POP POP SWAP1 POP SWAP2 SWAP1 POP JUMP JUMPDEST PUSH1 0x0 DUP1 PUSH1 0x1 PUSH1 0x0 DUP5 PUSH20 0xFFFFFFFFFFFFFFFFFFFFFFFFFFFFFFFFFFFFFFFF AND PUSH20 0xFFFFFFFFFFFFFFFFFFFFFFFFFFFFFFFFFFFFFFFF AND DUP2 MSTORE PUSH1 0x20 ADD SWAP1 DUP2 MSTORE PUSH1 0x20 ADD PUSH1 0x0 KECCAK256 DUP1 SLOAD PUSH2 0x351B SWAP1 PUSH2 0x49C2 JUMP JUMPDEST SWAP1 POP GT SWAP1 POP SWAP2 SWAP1 POP JUMP JUMPDEST PUSH2 0x352D PUSH2 0x3AA0 JUMP JUMPDEST PUSH1 0x0 PUSH1 0x1 PUSH1 0x0 DUP5 PUSH20 0xFFFFFFFFFFFFFFFFFFFFFFFFFFFFFFFFFFFFFFFF AND PUSH20 0xFFFFFFFFFFFFFFFFFFFFFFFFFFFFFFFFFFFFFFFF AND DUP2 MSTORE PUSH1 0x20 ADD SWAP1 DUP2 MSTORE PUSH1 0x20 ADD PUSH1 0x0 KECCAK256 DUP1 SLOAD PUSH2 0x3579 SWAP1 PUSH2 0x49C2 JUMP JUMPDEST DUP1 PUSH1 0x1F ADD PUSH1 0x20 DUP1 SWAP2 DIV MUL PUSH1 0x20 ADD PUSH1 0x40 MLOAD SWAP1 DUP2 ADD PUSH1 0x40 MSTORE DUP1 SWAP3 SWAP2 SWAP1 DUP2 DUP2 MSTORE PUSH1 0x20 ADD DUP3 DUP1 SLOAD PUSH2 0x35A5 SWAP1 PUSH2 0x49C2 JUMP JUMPDEST DUP1 ISZERO PUSH2 0x35F2 JUMPI DUP1 PUSH1 0x1F LT PUSH2 0x35C7 JUMPI PUSH2 0x100 DUP1 DUP4 SLOAD DIV MUL DUP4 MSTORE SWAP2 PUSH1 0x20 ADD SWAP2 PUSH2 0x35F2 JUMP JUMPDEST DUP3 ADD SWAP2 SWAP1 PUSH1 0x0 MSTORE PUSH1 0x20 PUSH1 0x0 KECCAK256 SWAP1 JUMPDEST DUP2 SLOAD DUP2 MSTORE SWAP1 PUSH1 0x1 ADD SWAP1 PUSH1 0x20 ADD DUP1 DUP4 GT PUSH2 0x35D5 JUMPI DUP3 SWAP1 SUB PUSH1 0x1F AND DUP3 ADD SWAP2 JUMPDEST POP POP POP POP POP SWAP1 POP PUSH1 0x6 DUP2 PUSH1 0x40 MLOAD PUSH2 0x3609 SWAP2 SWAP1 PUSH2 0x4A2F JUMP JUMPDEST SWAP1 DUP2 MSTORE PUSH1 0x20 ADD PUSH1 0x40 MLOAD DUP1 SWAP2 SUB SWAP1 KECCAK256 PUSH1 0x40 MLOAD DUP1 PUSH1 0xE0 ADD PUSH1 0x40 MSTORE SWAP1 DUP2 PUSH1 0x0 DUP3 ADD DUP1 SLOAD PUSH2 0x3632 SWAP1 PUSH2 0x49C2 JUMP JUMPDEST DUP1 PUSH1 0x1F ADD PUSH1 0x20 DUP1 SWAP2 DIV MUL PUSH1 0x20 ADD PUSH1 0x40 MLOAD SWAP1 DUP2 ADD PUSH1 0x40 MSTORE DUP1 SWAP3 SWAP2 SWAP1 DUP2 DUP2 MSTORE PUSH1 0x20 ADD DUP3 DUP1 SLOAD PUSH2 0x365E SWAP1 PUSH2 0x49C2 JUMP JUMPDEST DUP1 ISZERO PUSH2 0x36AB JUMPI DUP1 PUSH1 0x1F LT PUSH2 0x3680 JUMPI PUSH2 0x100 DUP1 DUP4 SLOAD DIV MUL DUP4 MSTORE SWAP2 PUSH1 0x20 ADD SWAP2 PUSH2 0x36AB JUMP JUMPDEST DUP3 ADD SWAP2 SWAP1 PUSH1 0x0 MSTORE PUSH1 0x20 PUSH1 0x0 KECCAK256 SWAP1 JUMPDEST DUP2 SLOAD DUP2 MSTORE SWAP1 PUSH1 0x1 ADD SWAP1 PUSH1 0x20 ADD DUP1 DUP4 GT PUSH2 0x368E JUMPI DUP3 SWAP1 SUB PUSH1 0x1F AND DUP3 ADD SWAP2 JUMPDEST POP POP POP POP POP DUP2 MSTORE PUSH1 0x20 ADD PUSH1 0x1 DUP3 ADD DUP1 SLOAD PUSH2 0x36C4 SWAP1 PUSH2 0x49C2 JUMP JUMPDEST DUP1 PUSH1 0x1F ADD PUSH1 0x20 DUP1 SWAP2 DIV MUL PUSH1 0x20 ADD PUSH1 0x40 MLOAD SWAP1 DUP2 ADD PUSH1 0x40 MSTORE DUP1 SWAP3 SWAP2 SWAP1 DUP2 DUP2 MSTORE PUSH1 0x20 ADD DUP3 DUP1 SLOAD PUSH2 0x36F0 SWAP1 PUSH2 0x49C2 JUMP JUMPDEST DUP1 ISZERO PUSH2 0x373D JUMPI DUP1 PUSH1 0x1F LT PUSH2 0x3712 JUMPI PUSH2 0x100 DUP1 DUP4 SLOAD DIV MUL DUP4 MSTORE SWAP2 PUSH1 0x20 ADD SWAP2 PUSH2 0x373D JUMP JUMPDEST DUP3 ADD SWAP2 SWAP1 PUSH1 0x0 MSTORE PUSH1 0x20 PUSH1 0x0 KECCAK256 SWAP1 JUMPDEST DUP2 SLOAD DUP2 MSTORE SWAP1 PUSH1 0x1 ADD SWAP1 PUSH1 0x20 ADD DUP1 DUP4 GT PUSH2 0x3720 JUMPI DUP3 SWAP1 SUB PUSH1 0x1F AND DUP3 ADD SWAP2 JUMPDEST POP POP POP POP POP DUP2 MSTORE PUSH1 0x20 ADD PUSH1 0x2 DUP3 ADD DUP1 SLOAD PUSH2 0x3756 SWAP1 PUSH2 0x49C2 JUMP JUMPDEST DUP1 PUSH1 0x1F ADD PUSH1 0x20 DUP1 SWAP2 DIV MUL PUSH1 0x20 ADD PUSH1 0x40 MLOAD SWAP1 DUP2 ADD PUSH1 0x40 MSTORE DUP1 SWAP3 SWAP2 SWAP1 DUP2 DUP2 MSTORE PUSH1 0x20 ADD DUP3 DUP1 SLOAD PUSH2 0x3782 SWAP1 PUSH2 0x49C2 JUMP JUMPDEST DUP1 ISZERO PUSH2 0x37CF JUMPI DUP1 PUSH1 0x1F LT PUSH2 0x37A4 JUMPI PUSH2 0x100 DUP1 DUP4 SLOAD DIV MUL DUP4 MSTORE SWAP2 PUSH1 0x20 ADD SWAP2 PUSH2 0x37CF JUMP JUMPDEST DUP3 ADD SWAP2 SWAP1 PUSH1 0x0 MSTORE PUSH1 0x20 PUSH1 0x0 KECCAK256 SWAP1 JUMPDEST DUP2 SLOAD DUP2 MSTORE SWAP1 PUSH1 0x1 ADD SWAP1 PUSH1 0x20 ADD DUP1 DUP4 GT PUSH2 0x37B2 JUMPI DUP3 SWAP1 SUB PUSH1 0x1F AND DUP3 ADD SWAP2 JUMPDEST POP POP POP POP POP DUP2 MSTORE PUSH1 0x20 ADD PUSH1 0x3 DUP3 ADD DUP1 SLOAD PUSH2 0x37E8 SWAP1 PUSH2 0x49C2 JUMP JUMPDEST DUP1 PUSH1 0x1F ADD PUSH1 0x20 DUP1 SWAP2 DIV MUL PUSH1 0x20 ADD PUSH1 0x40 MLOAD SWAP1 DUP2 ADD PUSH1 0x40 MSTORE DUP1 SWAP3 SWAP2 SWAP1 DUP2 DUP2 MSTORE PUSH1 0x20 ADD DUP3 DUP1 SLOAD PUSH2 0x3814 SWAP1 PUSH2 0x49C2 JUMP JUMPDEST DUP1 ISZERO PUSH2 0x3861 JUMPI DUP1 PUSH1 0x1F LT PUSH2 0x3836 JUMPI PUSH2 0x100 DUP1 DUP4 SLOAD DIV MUL DUP4 MSTORE SWAP2 PUSH1 0x20 ADD SWAP2 PUSH2 0x3861 JUMP JUMPDEST DUP3 ADD SWAP2 SWAP1 PUSH1 0x0 MSTORE PUSH1 0x20 PUSH1 0x0 KECCAK256 SWAP1 JUMPDEST DUP2 SLOAD DUP2 MSTORE SWAP1 PUSH1 0x1 ADD SWAP1 PUSH1 0x20 ADD DUP1 DUP4 GT PUSH2 0x3844 JUMPI DUP3 SWAP1 SUB PUSH1 0x1F AND DUP3 ADD SWAP2 JUMPDEST POP POP POP POP POP DUP2 MSTORE PUSH1 0x20 ADD PUSH1 0x4 DUP3 ADD DUP1 SLOAD PUSH2 0x387A SWAP1 PUSH2 0x49C2 JUMP JUMPDEST DUP1 PUSH1 0x1F ADD PUSH1 0x20 DUP1 SWAP2 DIV MUL PUSH1 0x20 ADD PUSH1 0x40 MLOAD SWAP1 DUP2 ADD PUSH1 0x40 MSTORE DUP1 SWAP3 SWAP2 SWAP1 DUP2 DUP2 MSTORE PUSH1 0x20 ADD DUP3 DUP1 SLOAD PUSH2 0x38A6 SWAP1 PUSH2 0x49C2 JUMP JUMPDEST DUP1 ISZERO PUSH2 0x38F3 JUMPI DUP1 PUSH1 0x1F LT PUSH2 0x38C8 JUMPI PUSH2 0x100 DUP1 DUP4 SLOAD DIV MUL DUP4 MSTORE SWAP2 PUSH1 0x20 ADD SWAP2 PUSH2 0x38F3 JUMP JUMPDEST DUP3 ADD SWAP2 SWAP1 PUSH1 0x0 MSTORE PUSH1 0x20 PUSH1 0x0 KECCAK256 SWAP1 JUMPDEST DUP2 SLOAD DUP2 MSTORE SWAP1 PUSH1 0x1 ADD SWAP1 PUSH1 0x20 ADD DUP1 DUP4 GT PUSH2 0x38D6 JUMPI DUP3 SWAP1 SUB PUSH1 0x1F AND DUP3 ADD SWAP2 JUMPDEST POP POP POP POP POP DUP2 MSTORE PUSH1 0x20 ADD PUSH1 0x5 DUP3 ADD DUP1 SLOAD PUSH2 0x390C SWAP1 PUSH2 0x49C2 JUMP JUMPDEST DUP1 PUSH1 0x1F ADD PUSH1 0x20 DUP1 SWAP2 DIV MUL PUSH1 0x20 ADD PUSH1 0x40 MLOAD SWAP1 DUP2 ADD PUSH1 0x40 MSTORE DUP1 SWAP3 SWAP2 SWAP1 DUP2 DUP2 MSTORE PUSH1 0x20 ADD DUP3 DUP1 SLOAD PUSH2 0x3938 SWAP1 PUSH2 0x49C2 JUMP JUMPDEST DUP1 ISZERO PUSH2 0x3985 JUMPI DUP1 PUSH1 0x1F LT PUSH2 0x395A JUMPI PUSH2 0x100 DUP1 DUP4 SLOAD DIV MUL DUP4 MSTORE SWAP2 PUSH1 0x20 ADD SWAP2 PUSH2 0x3985 JUMP JUMPDEST DUP3 ADD SWAP2 SWAP1 PUSH1 0x0 MSTORE PUSH1 0x20 PUSH1 0x0 KECCAK256 SWAP1 JUMPDEST DUP2 SLOAD DUP2 MSTORE SWAP1 PUSH1 0x1 ADD SWAP1 PUSH1 0x20 ADD DUP1 DUP4 GT PUSH2 0x3968 JUMPI DUP3 SWAP1 SUB PUSH1 0x1F AND DUP3 ADD SWAP2 JUMPDEST POP POP POP POP POP DUP2 MSTORE PUSH1 0x20 ADD PUSH1 0x6 DUP3 ADD SLOAD DUP2 MSTORE POP POP SWAP2 POP POP SWAP2 SWAP1 POP JUMP JUMPDEST PUSH1 0x0 PUSH1 0x8 DUP4 PUSH1 0x40 MLOAD PUSH2 0x39B2 SWAP2 SWAP1 PUSH2 0x4A2F JUMP JUMPDEST SWAP1 DUP2 MSTORE PUSH1 0x20 ADD PUSH1 0x40 MLOAD DUP1 SWAP2 SUB SWAP1 KECCAK256 SWAP1 POP PUSH1 0x0 JUMPDEST DUP2 DUP1 SLOAD SWAP1 POP DUP2 LT ISZERO PUSH2 0x3A9A JUMPI DUP3 MLOAD DUP3 DUP3 DUP2 SLOAD DUP2 LT PUSH2 0x39E6 JUMPI PUSH2 0x39E5 PUSH2 0x5184 JUMP JUMPDEST JUMPDEST SWAP1 PUSH1 0x0 MSTORE PUSH1 0x20 PUSH1 0x0 KECCAK256 ADD DUP1 SLOAD PUSH2 0x39FB SWAP1 PUSH2 0x49C2 JUMP JUMPDEST SWAP1 POP SUB PUSH2 0x3A8D JUMPI DUP2 PUSH1 0x1 DUP4 DUP1 SLOAD SWAP1 POP PUSH2 0x3A14 SWAP2 SWAP1 PUSH2 0x521F JUMP JUMPDEST DUP2 SLOAD DUP2 LT PUSH2 0x3A25 JUMPI PUSH2 0x3A24 PUSH2 0x5184 JUMP JUMPDEST JUMPDEST SWAP1 PUSH1 0x0 MSTORE PUSH1 0x20 PUSH1 0x0 KECCAK256 ADD DUP3 DUP3 DUP2 SLOAD DUP2 LT PUSH2 0x3A42 JUMPI PUSH2 0x3A41 PUSH2 0x5184 JUMP JUMPDEST JUMPDEST SWAP1 PUSH1 0x0 MSTORE PUSH1 0x20 PUSH1 0x0 KECCAK256 ADD SWAP1 DUP2 PUSH2 0x3A58 SWAP2 SWAP1 PUSH2 0x527E JUMP JUMPDEST POP DUP2 DUP1 SLOAD DUP1 PUSH2 0x3A6A JUMPI PUSH2 0x3A69 PUSH2 0x5366 JUMP JUMPDEST JUMPDEST PUSH1 0x1 SWAP1 SUB DUP2 DUP2 SWAP1 PUSH1 0x0 MSTORE PUSH1 0x20 PUSH1 0x0 KECCAK256 ADD PUSH1 0x0 PUSH2 0x3A86 SWAP2 SWAP1 PUSH2 0x3ADD JUMP JUMPDEST SWAP1 SSTORE PUSH2 0x3A9A JUMP JUMPDEST DUP1 DUP1 PUSH1 0x1 ADD SWAP2 POP POP PUSH2 0x39C5 JUMP JUMPDEST POP POP POP POP JUMP JUMPDEST PUSH1 0x40 MLOAD DUP1 PUSH1 0xE0 ADD PUSH1 0x40 MSTORE DUP1 PUSH1 0x60 DUP2 MSTORE PUSH1 0x20 ADD PUSH1 0x60 DUP2 MSTORE PUSH1 0x20 ADD PUSH1 0x60 DUP2 MSTORE PUSH1 0x20 ADD PUSH1 0x60 DUP2 MSTORE PUSH1 0x20 ADD PUSH1 0x60 DUP2 MSTORE PUSH1 0x20 ADD PUSH1 0x60 DUP2 MSTORE PUSH1 0x20 ADD PUSH1 0x0 DUP2 MSTORE POP SWAP1 JUMP JUMPDEST POP DUP1 SLOAD PUSH2 0x3AE9 SWAP1 PUSH2 0x49C2 JUMP JUMPDEST PUSH1 0x0 DUP3 SSTORE DUP1 PUSH1 0x1F LT PUSH2 0x3AFB JUMPI POP PUSH2 0x3B1A JUMP JUMPDEST PUSH1 0x1F ADD PUSH1 0x20 SWAP1 DIV SWAP1 PUSH1 0x0 MSTORE PUSH1 0x20 PUSH1 0x0 KECCAK256 SWAP1 DUP2 ADD SWAP1 PUSH2 0x3B19 SWAP2 SWAP1 PUSH2 0x3B44 JUMP JUMPDEST JUMPDEST POP JUMP JUMPDEST PUSH1 0x40 MLOAD DUP1 PUSH1 0x60 ADD PUSH1 0x40 MSTORE DUP1 PUSH1 0x60 DUP2 MSTORE PUSH1 0x20 ADD PUSH2 0x3B37 PUSH2 0x3B61 JUMP JUMPDEST DUP2 MSTORE PUSH1 0x20 ADD PUSH1 0x0 DUP2 MSTORE POP SWAP1 JUMP JUMPDEST JUMPDEST DUP1 DUP3 GT ISZERO PUSH2 0x3B5D JUMPI PUSH1 0x0 DUP2 PUSH1 0x0 SWAP1 SSTORE POP PUSH1 0x1 ADD PUSH2 0x3B45 JUMP JUMPDEST POP SWAP1 JUMP JUMPDEST PUSH1 0x40 MLOAD DUP1 PUSH2 0x120 ADD PUSH1 0x40 MSTORE DUP1 PUSH1 0x60 DUP2 MSTORE PUSH1 0x20 ADD PUSH1 0x60 DUP2 MSTORE PUSH1 0x20 ADD PUSH1 0x60 DUP2 MSTORE PUSH1 0x20 ADD PUSH1 0x60 DUP2 MSTORE PUSH1 0x20 ADD PUSH1 0x60 DUP2 MSTORE PUSH1 0x20 ADD PUSH1 0x60 DUP2 MSTORE PUSH1 0x20 ADD PUSH1 0x60 DUP2 MSTORE PUSH1 0x20 ADD PUSH1 0x60 DUP2 MSTORE PUSH1 0x20 ADD PUSH1 0x60 DUP2 MSTORE POP SWAP1 JUMP JUMPDEST PUSH1 0x0 PUSH1 0x40 MLOAD SWAP1 POP SWAP1 JUMP JUMPDEST PUSH1 0x0 DUP1 REVERT JUMPDEST PUSH1 0x0 DUP1 REVERT JUMPDEST PUSH1 0x0 DUP1 REVERT JUMPDEST PUSH1 0x0 DUP1 REVERT JUMPDEST PUSH1 0x0 PUSH1 0x1F NOT PUSH1 0x1F DUP4 ADD AND SWAP1 POP SWAP2 SWAP1 POP JUMP JUMPDEST PUSH32 0x4E487B7100000000000000000000000000000000000000000000000000000000 PUSH1 0x0 MSTORE PUSH1 0x41 PUSH1 0x4 MSTORE PUSH1 0x24 PUSH1 0x0 REVERT JUMPDEST PUSH2 0x3C14 DUP3 PUSH2 0x3BCB JUMP JUMPDEST DUP2 ADD DUP2 DUP2 LT PUSH8 0xFFFFFFFFFFFFFFFF DUP3 GT OR ISZERO PUSH2 0x3C33 JUMPI PUSH2 0x3C32 PUSH2 0x3BDC JUMP JUMPDEST JUMPDEST DUP1 PUSH1 0x40 MSTORE POP POP POP JUMP JUMPDEST PUSH1 0x0 PUSH2 0x3C46 PUSH2 0x3BAD JUMP JUMPDEST SWAP1 POP PUSH2 0x3C52 DUP3 DUP3 PUSH2 0x3C0B JUMP JUMPDEST SWAP2 SWAP1 POP JUMP JUMPDEST PUSH1 0x0 PUSH8 0xFFFFFFFFFFFFFFFF DUP3 GT ISZERO PUSH2 0x3C72 JUMPI PUSH2 0x3C71 PUSH2 0x3BDC JUMP JUMPDEST JUMPDEST PUSH2 0x3C7B DUP3 PUSH2 0x3BCB JUMP JUMPDEST SWAP1 POP PUSH1 0x20 DUP2 ADD SWAP1 POP SWAP2 SWAP1 POP JUMP JUMPDEST DUP3 DUP2 DUP4 CALLDATACOPY PUSH1 0x0 DUP4 DUP4 ADD MSTORE POP POP POP JUMP JUMPDEST PUSH1 0x0 PUSH2 0x3CAA PUSH2 0x3CA5 DUP5 PUSH2 0x3C57 JUMP JUMPDEST PUSH2 0x3C3C JUMP JUMPDEST SWAP1 POP DUP3 DUP2 MSTORE PUSH1 0x20 DUP2 ADD DUP5 DUP5 DUP5 ADD GT ISZERO PUSH2 0x3CC6 JUMPI PUSH2 0x3CC5 PUSH2 0x3BC6 JUMP JUMPDEST JUMPDEST PUSH2 0x3CD1 DUP5 DUP3 DUP6 PUSH2 0x3C88 JUMP JUMPDEST POP SWAP4 SWAP3 POP POP POP JUMP JUMPDEST PUSH1 0x0 DUP3 PUSH1 0x1F DUP4 ADD SLT PUSH2 0x3CEE JUMPI PUSH2 0x3CED PUSH2 0x3BC1 JUMP JUMPDEST JUMPDEST DUP2 CALLDATALOAD PUSH2 0x3CFE DUP5 DUP3 PUSH1 0x20 DUP7 ADD PUSH2 0x3C97 JUMP JUMPDEST SWAP2 POP POP SWAP3 SWAP2 POP POP JUMP JUMPDEST PUSH1 0x0 PUSH1 0x20 DUP3 DUP5 SUB SLT ISZERO PUSH2 0x3D1D JUMPI PUSH2 0x3D1C PUSH2 0x3BB7 JUMP JUMPDEST JUMPDEST PUSH1 0x0 DUP3 ADD CALLDATALOAD PUSH8 0xFFFFFFFFFFFFFFFF DUP2 GT ISZERO PUSH2 0x3D3B JUMPI PUSH2 0x3D3A PUSH2 0x3BBC JUMP JUMPDEST JUMPDEST PUSH2 0x3D47 DUP5 DUP3 DUP6 ADD PUSH2 0x3CD9 JUMP JUMPDEST SWAP2 POP POP SWAP3 SWAP2 POP POP JUMP JUMPDEST PUSH1 0x0 DUP2 MLOAD SWAP1 POP SWAP2 SWAP1 POP JUMP JUMPDEST PUSH1 0x0 DUP3 DUP3 MSTORE PUSH1 0x20 DUP3 ADD SWAP1 POP SWAP3 SWAP2 POP POP JUMP JUMPDEST PUSH1 0x0 JUMPDEST DUP4 DUP2 LT ISZERO PUSH2 0x3D8A JUMPI DUP1 DUP3 ADD MLOAD DUP2 DUP5 ADD MSTORE PUSH1 0x20 DUP2 ADD SWAP1 POP PUSH2 0x3D6F JUMP JUMPDEST PUSH1 0x0 DUP5 DUP5 ADD MSTORE POP POP POP POP JUMP JUMPDEST PUSH1 0x0 PUSH2 0x3DA1 DUP3 PUSH2 0x3D50 JUMP JUMPDEST PUSH2 0x3DAB DUP2 DUP6 PUSH2 0x3D5B JUMP JUMPDEST SWAP4 POP PUSH2 0x3DBB DUP2 DUP6 PUSH1 0x20 DUP7 ADD PUSH2 0x3D6C JUMP JUMPDEST PUSH2 0x3DC4 DUP2 PUSH2 0x3BCB JUMP JUMPDEST DUP5 ADD SWAP2 POP POP SWAP3 SWAP2 POP POP JUMP JUMPDEST PUSH1 0x0 DUP2 SWAP1 POP SWAP2 SWAP1 POP JUMP JUMPDEST PUSH2 0x3DE2 DUP2 PUSH2 0x3DCF JUMP JUMPDEST DUP3 MSTORE POP POP JUMP JUMPDEST PUSH1 0x0 PUSH1 0xE0 DUP4 ADD PUSH1 0x0 DUP4 ADD MLOAD DUP5 DUP3 SUB PUSH1 0x0 DUP7 ADD MSTORE PUSH2 0x3E05 DUP3 DUP3 PUSH2 0x3D96 JUMP JUMPDEST SWAP2 POP POP PUSH1 0x20 DUP4 ADD MLOAD DUP5 DUP3 SUB PUSH1 0x20 DUP7 ADD MSTORE PUSH2 0x3E1F DUP3 DUP3 PUSH2 0x3D96 JUMP JUMPDEST SWAP2 POP POP PUSH1 0x40 DUP4 ADD MLOAD DUP5 DUP3 SUB PUSH1 0x40 DUP7 ADD MSTORE PUSH2 0x3E39 DUP3 DUP3 PUSH2 0x3D96 JUMP JUMPDEST SWAP2 POP POP PUSH1 0x60 DUP4 ADD MLOAD DUP5 DUP3 SUB PUSH1 0x60 DUP7 ADD MSTORE PUSH2 0x3E53 DUP3 DUP3 PUSH2 0x3D96 JUMP JUMPDEST SWAP2 POP POP PUSH1 0x80 DUP4 ADD MLOAD DUP5 DUP3 SUB PUSH1 0x80 DUP7 ADD MSTORE PUSH2 0x3E6D DUP3 DUP3 PUSH2 0x3D96 JUMP JUMPDEST SWAP2 POP POP PUSH1 0xA0 DUP4 ADD MLOAD DUP5 DUP3 SUB PUSH1 0xA0 DUP7 ADD MSTORE PUSH2 0x3E87 DUP3 DUP3 PUSH2 0x3D96 JUMP JUMPDEST SWAP2 POP POP PUSH1 0xC0 DUP4 ADD MLOAD PUSH2 0x3E9C PUSH1 0xC0 DUP7 ADD DUP3 PUSH2 0x3DD9 JUMP JUMPDEST POP DUP1 SWAP2 POP POP SWAP3 SWAP2 POP POP JUMP JUMPDEST PUSH1 0x0 PUSH1 0x20 DUP3 ADD SWAP1 POP DUP2 DUP2 SUB PUSH1 0x0 DUP4 ADD MSTORE PUSH2 0x3EC1 DUP2 DUP5 PUSH2 0x3DE8 JUMP JUMPDEST SWAP1 POP SWAP3 SWAP2 POP POP JUMP JUMPDEST PUSH1 0x0 DUP1 REVERT JUMPDEST PUSH1 0x0 DUP1 REVERT JUMPDEST PUSH1 0x0 PUSH2 0x120 DUP3 DUP5 SUB SLT ISZERO PUSH2 0x3EEA JUMPI PUSH2 0x3EE9 PUSH2 0x3EC9 JUMP JUMPDEST JUMPDEST PUSH2 0x3EF5 PUSH2 0x120 PUSH2 0x3C3C JUMP JUMPDEST SWAP1 POP PUSH1 0x0 DUP3 ADD CALLDATALOAD PUSH8 0xFFFFFFFFFFFFFFFF DUP2 GT ISZERO PUSH2 0x3F15 JUMPI PUSH2 0x3F14 PUSH2 0x3ECE JUMP JUMPDEST JUMPDEST PUSH2 0x3F21 DUP5 DUP3 DUP6 ADD PUSH2 0x3CD9 JUMP JUMPDEST PUSH1 0x0 DUP4 ADD MSTORE POP PUSH1 0x20 DUP3 ADD CALLDATALOAD PUSH8 0xFFFFFFFFFFFFFFFF DUP2 GT ISZERO PUSH2 0x3F45 JUMPI PUSH2 0x3F44 PUSH2 0x3ECE JUMP JUMPDEST JUMPDEST PUSH2 0x3F51 DUP5 DUP3 DUP6 ADD PUSH2 0x3CD9 JUMP JUMPDEST PUSH1 0x20 DUP4 ADD MSTORE POP PUSH1 0x40 DUP3 ADD CALLDATALOAD PUSH8 0xFFFFFFFFFFFFFFFF DUP2 GT ISZERO PUSH2 0x3F75 JUMPI PUSH2 0x3F74 PUSH2 0x3ECE JUMP JUMPDEST JUMPDEST PUSH2 0x3F81 DUP5 DUP3 DUP6 ADD PUSH2 0x3CD9 JUMP JUMPDEST PUSH1 0x40 DUP4 ADD MSTORE POP PUSH1 0x60 DUP3 ADD CALLDATALOAD PUSH8 0xFFFFFFFFFFFFFFFF DUP2 GT ISZERO PUSH2 0x3FA5 JUMPI PUSH2 0x3FA4 PUSH2 0x3ECE JUMP JUMPDEST JUMPDEST PUSH2 0x3FB1 DUP5 DUP3 DUP6 ADD PUSH2 0x3CD9 JUMP JUMPDEST PUSH1 0x60 DUP4 ADD MSTORE POP PUSH1 0x80 DUP3 ADD CALLDATALOAD PUSH8 0xFFFFFFFFFFFFFFFF DUP2 GT ISZERO PUSH2 0x3FD5 JUMPI PUSH2 0x3FD4 PUSH2 0x3ECE JUMP JUMPDEST JUMPDEST PUSH2 0x3FE1 DUP5 DUP3 DUP6 ADD PUSH2 0x3CD9 JUMP JUMPDEST PUSH1 0x80 DUP4 ADD MSTORE POP PUSH1 0xA0 DUP3 ADD CALLDATALOAD PUSH8 0xFFFFFFFFFFFFFFFF DUP2 GT ISZERO PUSH2 0x4005 JUMPI PUSH2 0x4004 PUSH2 0x3ECE JUMP JUMPDEST JUMPDEST PUSH2 0x4011 DUP5 DUP3 DUP6 ADD PUSH2 0x3CD9 JUMP JUMPDEST PUSH1 0xA0 DUP4 ADD MSTORE POP PUSH1 0xC0 DUP3 ADD CALLDATALOAD PUSH8 0xFFFFFFFFFFFFFFFF DUP2 GT ISZERO PUSH2 0x4035 JUMPI PUSH2 0x4034 PUSH2 0x3ECE JUMP JUMPDEST JUMPDEST PUSH2 0x4041 DUP5 DUP3 DUP6 ADD PUSH2 0x3CD9 JUMP JUMPDEST PUSH1 0xC0 DUP4 ADD MSTORE POP PUSH1 0xE0 DUP3 ADD CALLDATALOAD PUSH8 0xFFFFFFFFFFFFFFFF DUP2 GT ISZERO PUSH2 0x4065 JUMPI PUSH2 0x4064 PUSH2 0x3ECE JUMP JUMPDEST JUMPDEST PUSH2 0x4071 DUP5 DUP3 DUP6 ADD PUSH2 0x3CD9 JUMP JUMPDEST PUSH1 0xE0 DUP4 ADD MSTORE POP PUSH2 0x100 DUP3 ADD CALLDATALOAD PUSH8 0xFFFFFFFFFFFFFFFF DUP2 GT ISZERO PUSH2 0x4096 JUMPI PUSH2 0x4095 PUSH2 0x3ECE JUMP JUMPDEST JUMPDEST PUSH2 0x40A2 DUP5 DUP3 DUP6 ADD PUSH2 0x3CD9 JUMP JUMPDEST PUSH2 0x100 DUP4 ADD MSTORE POP SWAP3 SWAP2 POP POP JUMP JUMPDEST PUSH1 0x0 DUP1 PUSH1 0x40 DUP4 DUP6 SUB SLT ISZERO PUSH2 0x40C6 JUMPI PUSH2 0x40C5 PUSH2 0x3BB7 JUMP JUMPDEST JUMPDEST PUSH1 0x0 DUP4 ADD CALLDATALOAD PUSH8 0xFFFFFFFFFFFFFFFF DUP2 GT ISZERO PUSH2 0x40E4 JUMPI PUSH2 0x40E3 PUSH2 0x3BBC JUMP JUMPDEST JUMPDEST PUSH2 0x40F0 DUP6 DUP3 DUP7 ADD PUSH2 0x3CD9 JUMP JUMPDEST SWAP3 POP POP PUSH1 0x20 DUP4 ADD CALLDATALOAD PUSH8 0xFFFFFFFFFFFFFFFF DUP2 GT ISZERO PUSH2 0x4111 JUMPI PUSH2 0x4110 PUSH2 0x3BBC JUMP JUMPDEST JUMPDEST PUSH2 0x411D DUP6 DUP3 DUP7 ADD PUSH2 0x3ED3 JUMP JUMPDEST SWAP2 POP POP SWAP3 POP SWAP3 SWAP1 POP JUMP JUMPDEST PUSH1 0x0 DUP1 PUSH1 0x40 DUP4 DUP6 SUB SLT ISZERO PUSH2 0x413E JUMPI PUSH2 0x413D PUSH2 0x3BB7 JUMP JUMPDEST JUMPDEST PUSH1 0x0 DUP4 ADD CALLDATALOAD PUSH8 0xFFFFFFFFFFFFFFFF DUP2 GT ISZERO PUSH2 0x415C JUMPI PUSH2 0x415B PUSH2 0x3BBC JUMP JUMPDEST JUMPDEST PUSH2 0x4168 DUP6 DUP3 DUP7 ADD PUSH2 0x3CD9 JUMP JUMPDEST SWAP3 POP POP PUSH1 0x20 DUP4 ADD CALLDATALOAD PUSH8 0xFFFFFFFFFFFFFFFF DUP2 GT ISZERO PUSH2 0x4189 JUMPI PUSH2 0x4188 PUSH2 0x3BBC JUMP JUMPDEST JUMPDEST PUSH2 0x4195 DUP6 DUP3 DUP7 ADD PUSH2 0x3CD9 JUMP JUMPDEST SWAP2 POP POP SWAP3 POP SWAP3 SWAP1 POP JUMP JUMPDEST PUSH1 0x0 PUSH1 0xFF DUP3 AND SWAP1 POP SWAP2 SWAP1 POP JUMP JUMPDEST PUSH2 0x41B5 DUP2 PUSH2 0x419F JUMP JUMPDEST DUP3 MSTORE POP POP JUMP JUMPDEST PUSH1 0x0 PUSH1 0x20 DUP3 ADD SWAP1 POP PUSH2 0x41D0 PUSH1 0x0 DUP4 ADD DUP5 PUSH2 0x41AC JUMP JUMPDEST SWAP3 SWAP2 POP POP JUMP JUMPDEST PUSH1 0x0 PUSH20 0xFFFFFFFFFFFFFFFFFFFFFFFFFFFFFFFFFFFFFFFF DUP3 AND SWAP1 POP SWAP2 SWAP1 POP JUMP JUMPDEST PUSH1 0x0 PUSH2 0x4201 DUP3 PUSH2 0x41D6 JUMP JUMPDEST SWAP1 POP SWAP2 SWAP1 POP JUMP JUMPDEST PUSH2 0x4211 DUP2 PUSH2 0x41F6 JUMP JUMPDEST DUP3 MSTORE POP POP JUMP JUMPDEST PUSH1 0x0 PUSH1 0x20 DUP3 ADD SWAP1 POP PUSH2 0x422C PUSH1 0x0 DUP4 ADD DUP5 PUSH2 0x4208 JUMP JUMPDEST SWAP3 SWAP2 POP POP JUMP JUMPDEST PUSH1 0x0 DUP2 MLOAD SWAP1 POP SWAP2 SWAP1 POP JUMP JUMPDEST PUSH1 0x0 DUP3 DUP3 MSTORE PUSH1 0x20 DUP3 ADD SWAP1 POP SWAP3 SWAP2 POP POP JUMP JUMPDEST PUSH1 0x0 DUP2 SWAP1 POP PUSH1 0x20 DUP3 ADD SWAP1 POP SWAP2 SWAP1 POP JUMP JUMPDEST PUSH1 0x0 PUSH1 0xA0 DUP4 ADD PUSH1 0x0 DUP4 ADD MLOAD PUSH2 0x4276 PUSH1 0x0 DUP7 ADD DUP3 PUSH2 0x3DD9 JUMP JUMPDEST POP PUSH1 0x20 DUP4 ADD MLOAD PUSH2 0x4289 PUSH1 0x20 DUP7 ADD DUP3 PUSH2 0x3DD9 JUMP JUMPDEST POP PUSH1 0x40 DUP4 ADD MLOAD DUP5 DUP3 SUB PUSH1 0x40 DUP7 ADD MSTORE PUSH2 0x42A1 DUP3 DUP3 PUSH2 0x3D96 JUMP JUMPDEST SWAP2 POP POP PUSH1 0x60 DUP4 ADD MLOAD DUP5 DUP3 SUB PUSH1 0x60 DUP7 ADD MSTORE PUSH2 0x42BB DUP3 DUP3 PUSH2 0x3D96 JUMP JUMPDEST SWAP2 POP POP PUSH1 0x80 DUP4 ADD MLOAD DUP5 DUP3 SUB PUSH1 0x80 DUP7 ADD MSTORE PUSH2 0x42D5 DUP3 DUP3 PUSH2 0x3D96 JUMP JUMPDEST SWAP2 POP POP DUP1 SWAP2 POP POP SWAP3 SWAP2 POP POP JUMP JUMPDEST PUSH1 0x0 PUSH2 0x42EE DUP4 DUP4 PUSH2 0x425E JUMP JUMPDEST SWAP1 POP SWAP3 SWAP2 POP POP JUMP JUMPDEST PUSH1 0x0 PUSH1 0x20 DUP3 ADD SWAP1 POP SWAP2 SWAP1 POP JUMP JUMPDEST PUSH1 0x0 PUSH2 0x430E DUP3 PUSH2 0x4232 JUMP JUMPDEST PUSH2 0x4318 DUP2 DUP6 PUSH2 0x423D JUMP JUMPDEST SWAP4 POP DUP4 PUSH1 0x20 DUP3 MUL DUP6 ADD PUSH2 0x432A DUP6 PUSH2 0x424E JUMP JUMPDEST DUP1 PUSH1 0x0 JUMPDEST DUP6 DUP2 LT ISZERO PUSH2 0x4366 JUMPI DUP5 DUP5 SUB DUP10 MSTORE DUP2 MLOAD PUSH2 0x4347 DUP6 DUP3 PUSH2 0x42E2 JUMP JUMPDEST SWAP5 POP PUSH2 0x4352 DUP4 PUSH2 0x42F6 JUMP JUMPDEST SWAP3 POP PUSH1 0x20 DUP11 ADD SWAP10 POP POP PUSH1 0x1 DUP2 ADD SWAP1 POP PUSH2 0x432E JUMP JUMPDEST POP DUP3 SWAP8 POP DUP8 SWAP6 POP POP POP POP POP POP SWAP3 SWAP2 POP POP JUMP JUMPDEST PUSH1 0x0 PUSH1 0x20 DUP3 ADD SWAP1 POP DUP2 DUP2 SUB PUSH1 0x0 DUP4 ADD MSTORE PUSH2 0x4392 DUP2 DUP5 PUSH2 0x4303 JUMP JUMPDEST SWAP1 POP SWAP3 SWAP2 POP POP JUMP JUMPDEST PUSH1 0x0 DUP1 PUSH1 0x0 DUP1 PUSH1 0x0 DUP1 PUSH1 0xC0 DUP8 DUP10 SUB SLT ISZERO PUSH2 0x43B7 JUMPI PUSH2 0x43B6 PUSH2 0x3BB7 JUMP JUMPDEST JUMPDEST PUSH1 0x0 DUP8 ADD CALLDATALOAD PUSH8 0xFFFFFFFFFFFFFFFF DUP2 GT ISZERO PUSH2 0x43D5 JUMPI PUSH2 0x43D4 PUSH2 0x3BBC JUMP JUMPDEST JUMPDEST PUSH2 0x43E1 DUP10 DUP3 DUP11 ADD PUSH2 0x3CD9 JUMP JUMPDEST SWAP7 POP POP PUSH1 0x20 DUP8 ADD CALLDATALOAD PUSH8 0xFFFFFFFFFFFFFFFF DUP2 GT ISZERO PUSH2 0x4402 JUMPI PUSH2 0x4401 PUSH2 0x3BBC JUMP JUMPDEST JUMPDEST PUSH2 0x440E DUP10 DUP3 DUP11 ADD PUSH2 0x3CD9 JUMP JUMPDEST SWAP6 POP POP PUSH1 0x40 DUP8 ADD CALLDATALOAD PUSH8 0xFFFFFFFFFFFFFFFF DUP2 GT ISZERO PUSH2 0x442F JUMPI PUSH2 0x442E PUSH2 0x3BBC JUMP JUMPDEST JUMPDEST PUSH2 0x443B DUP10 DUP3 DUP11 ADD PUSH2 0x3CD9 JUMP JUMPDEST SWAP5 POP POP PUSH1 0x60 DUP8 ADD CALLDATALOAD PUSH8 0xFFFFFFFFFFFFFFFF DUP2 GT ISZERO PUSH2 0x445C JUMPI PUSH2 0x445B PUSH2 0x3BBC JUMP JUMPDEST JUMPDEST PUSH2 0x4468 DUP10 DUP3 DUP11 ADD PUSH2 0x3CD9 JUMP JUMPDEST SWAP4 POP POP PUSH1 0x80 DUP8 ADD CALLDATALOAD PUSH8 0xFFFFFFFFFFFFFFFF DUP2 GT ISZERO PUSH2 0x4489 JUMPI PUSH2 0x4488 PUSH2 0x3BBC JUMP JUMPDEST JUMPDEST PUSH2 0x4495 DUP10 DUP3 DUP11 ADD PUSH2 0x3CD9 JUMP JUMPDEST SWAP3 POP POP PUSH1 0xA0 DUP8 ADD CALLDATALOAD PUSH8 0xFFFFFFFFFFFFFFFF DUP2 GT ISZERO PUSH2 0x44B6 JUMPI PUSH2 0x44B5 PUSH2 0x3BBC JUMP JUMPDEST JUMPDEST PUSH2 0x44C2 DUP10 DUP3 DUP11 ADD PUSH2 0x3CD9 JUMP JUMPDEST SWAP2 POP POP SWAP3 SWAP6 POP SWAP3 SWAP6 POP SWAP3 SWAP6 JUMP JUMPDEST PUSH2 0x44D8 DUP2 PUSH2 0x3DCF JUMP JUMPDEST DUP2 EQ PUSH2 0x44E3 JUMPI PUSH1 0x0 DUP1 REVERT JUMPDEST POP JUMP JUMPDEST PUSH1 0x0 DUP2 CALLDATALOAD SWAP1 POP PUSH2 0x44F5 DUP2 PUSH2 0x44CF JUMP JUMPDEST SWAP3 SWAP2 POP POP JUMP JUMPDEST PUSH1 0x0 PUSH1 0xA0 DUP3 DUP5 SUB SLT ISZERO PUSH2 0x4511 JUMPI PUSH2 0x4510 PUSH2 0x3EC9 JUMP JUMPDEST JUMPDEST PUSH2 0x451B PUSH1 0xA0 PUSH2 0x3C3C JUMP JUMPDEST SWAP1 POP PUSH1 0x0 PUSH2 0x452B DUP5 DUP3 DUP6 ADD PUSH2 0x44E6 JUMP JUMPDEST PUSH1 0x0 DUP4 ADD MSTORE POP PUSH1 0x20 PUSH2 0x453F DUP5 DUP3 DUP6 ADD PUSH2 0x44E6 JUMP JUMPDEST PUSH1 0x20 DUP4 ADD MSTORE POP PUSH1 0x40 DUP3 ADD CALLDATALOAD PUSH8 0xFFFFFFFFFFFFFFFF DUP2 GT ISZERO PUSH2 0x4563 JUMPI PUSH2 0x4562 PUSH2 0x3ECE JUMP JUMPDEST JUMPDEST PUSH2 0x456F DUP5 DUP3 DUP6 ADD PUSH2 0x3CD9 JUMP JUMPDEST PUSH1 0x40 DUP4 ADD MSTORE POP PUSH1 0x60 DUP3 ADD CALLDATALOAD PUSH8 0xFFFFFFFFFFFFFFFF DUP2 GT ISZERO PUSH2 0x4593 JUMPI PUSH2 0x4592 PUSH2 0x3ECE JUMP JUMPDEST JUMPDEST PUSH2 0x459F DUP5 DUP3 DUP6 ADD PUSH2 0x3CD9 JUMP JUMPDEST PUSH1 0x60 DUP4 ADD MSTORE POP PUSH1 0x80 DUP3 ADD CALLDATALOAD PUSH8 0xFFFFFFFFFFFFFFFF DUP2 GT ISZERO PUSH2 0x45C3 JUMPI PUSH2 0x45C2 PUSH2 0x3ECE JUMP JUMPDEST JUMPDEST PUSH2 0x45CF DUP5 DUP3 DUP6 ADD PUSH2 0x3CD9 JUMP JUMPDEST PUSH1 0x80 DUP4 ADD MSTORE POP SWAP3 SWAP2 POP POP JUMP JUMPDEST PUSH1 0x0 DUP1 PUSH1 0x40 DUP4 DUP6 SUB SLT ISZERO PUSH2 0x45F2 JUMPI PUSH2 0x45F1 PUSH2 0x3BB7 JUMP JUMPDEST JUMPDEST PUSH1 0x0 DUP4 ADD CALLDATALOAD PUSH8 0xFFFFFFFFFFFFFFFF DUP2 GT ISZERO PUSH2 0x4610 JUMPI PUSH2 0x460F PUSH2 0x3BBC JUMP JUMPDEST JUMPDEST PUSH2 0x461C DUP6 DUP3 DUP7 ADD PUSH2 0x3CD9 JUMP JUMPDEST SWAP3 POP POP PUSH1 0x20 DUP4 ADD CALLDATALOAD PUSH8 0xFFFFFFFFFFFFFFFF DUP2 GT ISZERO PUSH2 0x463D JUMPI PUSH2 0x463C PUSH2 0x3BBC JUMP JUMPDEST JUMPDEST PUSH2 0x4649 DUP6 DUP3 DUP7 ADD PUSH2 0x44FB JUMP JUMPDEST SWAP2 POP POP SWAP3 POP SWAP3 SWAP1 POP JUMP JUMPDEST PUSH2 0x465C DUP2 PUSH2 0x41F6 JUMP JUMPDEST DUP2 EQ PUSH2 0x4667 JUMPI PUSH1 0x0 DUP1 REVERT JUMPDEST POP JUMP JUMPDEST PUSH1 0x0 DUP2 CALLDATALOAD SWAP1 POP PUSH2 0x4679 DUP2 PUSH2 0x4653 JUMP JUMPDEST SWAP3 SWAP2 POP POP JUMP JUMPDEST PUSH1 0x0 PUSH1 0x20 DUP3 DUP5 SUB SLT ISZERO PUSH2 0x4695 JUMPI PUSH2 0x4694 PUSH2 0x3BB7 JUMP JUMPDEST JUMPDEST PUSH1 0x0 PUSH2 0x46A3 DUP5 DUP3 DUP6 ADD PUSH2 0x466A JUMP JUMPDEST SWAP2 POP POP SWAP3 SWAP2 POP POP JUMP JUMPDEST PUSH1 0x0 PUSH2 0x120 DUP4 ADD PUSH1 0x0 DUP4 ADD MLOAD DUP5 DUP3 SUB PUSH1 0x0 DUP7 ADD MSTORE PUSH2 0x46CA DUP3 DUP3 PUSH2 0x3D96 JUMP JUMPDEST SWAP2 POP POP PUSH1 0x20 DUP4 ADD MLOAD DUP5 DUP3 SUB PUSH1 0x20 DUP7 ADD MSTORE PUSH2 0x46E4 DUP3 DUP3 PUSH2 0x3D96 JUMP JUMPDEST SWAP2 POP POP PUSH1 0x40 DUP4 ADD MLOAD DUP5 DUP3 SUB PUSH1 0x40 DUP7 ADD MSTORE PUSH2 0x46FE DUP3 DUP3 PUSH2 0x3D96 JUMP JUMPDEST SWAP2 POP POP PUSH1 0x60 DUP4 ADD MLOAD DUP5 DUP3 SUB PUSH1 0x60 DUP7 ADD MSTORE PUSH2 0x4718 DUP3 DUP3 PUSH2 0x3D96 JUMP JUMPDEST SWAP2 POP POP PUSH1 0x80 DUP4 ADD MLOAD DUP5 DUP3 SUB PUSH1 0x80 DUP7 ADD MSTORE PUSH2 0x4732 DUP3 DUP3 PUSH2 0x3D96 JUMP JUMPDEST SWAP2 POP POP PUSH1 0xA0 DUP4 ADD MLOAD DUP5 DUP3 SUB PUSH1 0xA0 DUP7 ADD MSTORE PUSH2 0x474C DUP3 DUP3 PUSH2 0x3D96 JUMP JUMPDEST SWAP2 POP POP PUSH1 0xC0 DUP4 ADD MLOAD DUP5 DUP3 SUB PUSH1 0xC0 DUP7 ADD MSTORE PUSH2 0x4766 DUP3 DUP3 PUSH2 0x3D96 JUMP JUMPDEST SWAP2 POP POP PUSH1 0xE0 DUP4 ADD MLOAD DUP5 DUP3 SUB PUSH1 0xE0 DUP7 ADD MSTORE PUSH2 0x4780 DUP3 DUP3 PUSH2 0x3D96 JUMP JUMPDEST SWAP2 POP POP PUSH2 0x100 DUP4 ADD MLOAD DUP5 DUP3 SUB PUSH2 0x100 DUP7 ADD MSTORE PUSH2 0x479C DUP3 DUP3 PUSH2 0x3D96 JUMP JUMPDEST SWAP2 POP POP DUP1 SWAP2 POP POP SWAP3 SWAP2 POP POP JUMP JUMPDEST PUSH1 0x0 PUSH1 0x60 DUP4 ADD PUSH1 0x0 DUP4 ADD MLOAD DUP5 DUP3 SUB PUSH1 0x0 DUP7 ADD MSTORE PUSH2 0x47C6 DUP3 DUP3 PUSH2 0x3D96 JUMP JUMPDEST SWAP2 POP POP PUSH1 0x20 DUP4 ADD MLOAD DUP5 DUP3 SUB PUSH1 0x20 DUP7 ADD MSTORE PUSH2 0x47E0 DUP3 DUP3 PUSH2 0x46AC JUMP JUMPDEST SWAP2 POP POP PUSH1 0x40 DUP4 ADD MLOAD PUSH2 0x47F5 PUSH1 0x40 DUP7 ADD DUP3 PUSH2 0x3DD9 JUMP JUMPDEST POP DUP1 SWAP2 POP POP SWAP3 SWAP2 POP POP JUMP JUMPDEST PUSH1 0x0 PUSH1 0x20 DUP3 ADD SWAP1 POP DUP2 DUP2 SUB PUSH1 0x0 DUP4 ADD MSTORE PUSH2 0x481A DUP2 DUP5 PUSH2 0x47A9 JUMP JUMPDEST SWAP1 POP SWAP3 SWAP2 POP POP JUMP JUMPDEST PUSH1 0x0 DUP2 MLOAD SWAP1 POP SWAP2 SWAP1 POP JUMP JUMPDEST PUSH1 0x0 DUP3 DUP3 MSTORE PUSH1 0x20 DUP3 ADD SWAP1 POP SWAP3 SWAP2 POP POP JUMP JUMPDEST PUSH1 0x0 DUP2 SWAP1 POP PUSH1 0x20 DUP3 ADD SWAP1 POP SWAP2 SWAP1 POP JUMP JUMPDEST PUSH1 0x0 PUSH1 0x60 DUP4 ADD PUSH1 0x0 DUP4 ADD MLOAD DUP5 DUP3 SUB PUSH1 0x0 DUP7 ADD MSTORE PUSH2 0x486B DUP3 DUP3 PUSH2 0x3D96 JUMP JUMPDEST SWAP2 POP POP PUSH1 0x20 DUP4 ADD MLOAD DUP5 DUP3 SUB PUSH1 0x20 DUP7 ADD MSTORE PUSH2 0x4885 DUP3 DUP3 PUSH2 0x46AC JUMP JUMPDEST SWAP2 POP POP PUSH1 0x40 DUP4 ADD MLOAD PUSH2 0x489A PUSH1 0x40 DUP7 ADD DUP3 PUSH2 0x3DD9 JUMP JUMPDEST POP DUP1 SWAP2 POP POP SWAP3 SWAP2 POP POP JUMP JUMPDEST PUSH1 0x0 PUSH2 0x48B1 DUP4 DUP4 PUSH2 0x484E JUMP JUMPDEST SWAP1 POP SWAP3 SWAP2 POP POP JUMP JUMPDEST PUSH1 0x0 PUSH1 0x20 DUP3 ADD SWAP1 POP SWAP2 SWAP1 POP JUMP JUMPDEST PUSH1 0x0 PUSH2 0x48D1 DUP3 PUSH2 0x4822 JUMP JUMPDEST PUSH2 0x48DB DUP2 DUP6 PUSH2 0x482D JUMP JUMPDEST SWAP4 POP DUP4 PUSH1 0x20 DUP3 MUL DUP6 ADD PUSH2 0x48ED DUP6 PUSH2 0x483E JUMP JUMPDEST DUP1 PUSH1 0x0 JUMPDEST DUP6 DUP2 LT ISZERO PUSH2 0x4929 JUMPI DUP5 DUP5 SUB DUP10 MSTORE DUP2 MLOAD PUSH2 0x490A DUP6 DUP3 PUSH2 0x48A5 JUMP JUMPDEST SWAP5 POP PUSH2 0x4915 DUP4 PUSH2 0x48B9 JUMP JUMPDEST SWAP3 POP PUSH1 0x20 DUP11 ADD SWAP10 POP POP PUSH1 0x1 DUP2 ADD SWAP1 POP PUSH2 0x48F1 JUMP JUMPDEST POP DUP3 SWAP8 POP DUP8 SWAP6 POP POP POP POP POP POP SWAP3 SWAP2 POP POP JUMP JUMPDEST PUSH1 0x0 PUSH1 0x20 DUP3 ADD SWAP1 POP DUP2 DUP2 SUB PUSH1 0x0 DUP4 ADD MSTORE PUSH2 0x4955 DUP2 DUP5 PUSH2 0x48C6 JUMP JUMPDEST SWAP1 POP SWAP3 SWAP2 POP POP JUMP JUMPDEST PUSH1 0x0 DUP2 ISZERO ISZERO SWAP1 POP SWAP2 SWAP1 POP JUMP JUMPDEST PUSH2 0x4972 DUP2 PUSH2 0x495D JUMP JUMPDEST DUP3 MSTORE POP POP JUMP JUMPDEST PUSH1 0x0 PUSH1 0x20 DUP3 ADD SWAP1 POP PUSH2 0x498D PUSH1 0x0 DUP4 ADD DUP5 PUSH2 0x4969 JUMP JUMPDEST SWAP3 SWAP2 POP POP JUMP JUMPDEST PUSH32 0x4E487B7100000000000000000000000000000000000000000000000000000000 PUSH1 0x0 MSTORE PUSH1 0x22 PUSH1 0x4 MSTORE PUSH1 0x24 PUSH1 0x0 REVERT JUMPDEST PUSH1 0x0 PUSH1 0x2 DUP3 DIV SWAP1 POP PUSH1 0x1 DUP3 AND DUP1 PUSH2 0x49DA JUMPI PUSH1 0x7F DUP3 AND SWAP2 POP JUMPDEST PUSH1 0x20 DUP3 LT DUP2 SUB PUSH2 0x49ED JUMPI PUSH2 0x49EC PUSH2 0x4993 JUMP JUMPDEST JUMPDEST POP SWAP2 SWAP1 POP JUMP JUMPDEST PUSH1 0x0 DUP2 SWAP1 POP SWAP3 SWAP2 POP POP JUMP JUMPDEST PUSH1 0x0 PUSH2 0x4A09 DUP3 PUSH2 0x3D50 JUMP JUMPDEST PUSH2 0x4A13 DUP2 DUP6 PUSH2 0x49F3 JUMP JUMPDEST SWAP4 POP PUSH2 0x4A23 DUP2 DUP6 PUSH1 0x20 DUP7 ADD PUSH2 0x3D6C JUMP JUMPDEST DUP1 DUP5 ADD SWAP2 POP POP SWAP3 SWAP2 POP POP JUMP JUMPDEST PUSH1 0x0 PUSH2 0x4A3B DUP3 DUP5 PUSH2 0x49FE JUMP JUMPDEST SWAP2 POP DUP2 SWAP1 POP SWAP3 SWAP2 POP POP JUMP JUMPDEST PUSH1 0x0 DUP3 DUP3 MSTORE PUSH1 0x20 DUP3 ADD SWAP1 POP SWAP3 SWAP2 POP POP JUMP JUMPDEST PUSH32 0x55736572206E6F7420616C6C6F77656421000000000000000000000000000000 PUSH1 0x0 DUP3 ADD MSTORE POP JUMP JUMPDEST PUSH1 0x0 PUSH2 0x4A8D PUSH1 0x11 DUP4 PUSH2 0x4A46 JUMP JUMPDEST SWAP2 POP PUSH2 0x4A98 DUP3 PUSH2 0x4A57 JUMP JUMPDEST PUSH1 0x20 DUP3 ADD SWAP1 POP SWAP2 SWAP1 POP JUMP JUMPDEST PUSH1 0x0 PUSH1 0x20 DUP3 ADD SWAP1 POP DUP2 DUP2 SUB PUSH1 0x0 DUP4 ADD MSTORE PUSH2 0x4ABC DUP2 PUSH2 0x4A80 JUMP JUMPDEST SWAP1 POP SWAP2 SWAP1 POP JUMP JUMPDEST PUSH1 0x0 DUP2 SWAP1 POP DUP2 PUSH1 0x0 MSTORE PUSH1 0x20 PUSH1 0x0 KECCAK256 SWAP1 POP SWAP2 SWAP1 POP JUMP JUMPDEST PUSH1 0x0 PUSH1 0x20 PUSH1 0x1F DUP4 ADD DIV SWAP1 POP SWAP2 SWAP1 POP JUMP JUMPDEST PUSH1 0x0 DUP3 DUP3 SHL SWAP1 POP SWAP3 SWAP2 POP POP JUMP JUMPDEST PUSH1 0x0 PUSH1 0x8 DUP4 MUL PUSH2 0x4B25 PUSH32 0xFFFFFFFFFFFFFFFFFFFFFFFFFFFFFFFFFFFFFFFFFFFFFFFFFFFFFFFFFFFFFFFF DUP3 PUSH2 0x4AE8 JUMP JUMPDEST PUSH2 0x4B2F DUP7 DUP4 PUSH2 0x4AE8 JUMP JUMPDEST SWAP6 POP DUP1 NOT DUP5 AND SWAP4 POP DUP1 DUP7 AND DUP5 OR SWAP3 POP POP POP SWAP4 SWAP3 POP POP POP JUMP JUMPDEST PUSH1 0x0 DUP2 SWAP1 POP SWAP2 SWAP1 POP JUMP JUMPDEST PUSH1 0x0 PUSH2 0x4B6C PUSH2 0x4B67 PUSH2 0x4B62 DUP5 PUSH2 0x3DCF JUMP JUMPDEST PUSH2 0x4B47 JUMP JUMPDEST PUSH2 0x3DCF JUMP JUMPDEST SWAP1 POP SWAP2 SWAP1 POP JUMP JUMPDEST PUSH1 0x0 DUP2 SWAP1 POP SWAP2 SWAP1 POP JUMP JUMPDEST PUSH2 0x4B86 DUP4 PUSH2 0x4B51 JUMP JUMPDEST PUSH2 0x4B9A PUSH2 0x4B92 DUP3 PUSH2 0x4B73 JUMP JUMPDEST DUP5 DUP5 SLOAD PUSH2 0x4AF5 JUMP JUMPDEST DUP3 SSTORE POP POP POP POP JUMP JUMPDEST PUSH1 0x0 SWAP1 JUMP JUMPDEST PUSH2 0x4BAF PUSH2 0x4BA2 JUMP JUMPDEST PUSH2 0x4BBA DUP2 DUP5 DUP5 PUSH2 0x4B7D JUMP JUMPDEST POP POP POP JUMP JUMPDEST JUMPDEST DUP2 DUP2 LT ISZERO PUSH2 0x4BDE JUMPI PUSH2 0x4BD3 PUSH1 0x0 DUP3 PUSH2 0x4BA7 JUMP JUMPDEST PUSH1 0x1 DUP2 ADD SWAP1 POP PUSH2 0x4BC0 JUMP JUMPDEST POP POP JUMP JUMPDEST PUSH1 0x1F DUP3 GT ISZERO PUSH2 0x4C23 JUMPI PUSH2 0x4BF4 DUP2 PUSH2 0x4AC3 JUMP JUMPDEST PUSH2 0x4BFD DUP5 PUSH2 0x4AD8 JUMP JUMPDEST DUP2 ADD PUSH1 0x20 DUP6 LT ISZERO PUSH2 0x4C0C JUMPI DUP2 SWAP1 POP JUMPDEST PUSH2 0x4C20 PUSH2 0x4C18 DUP6 PUSH2 0x4AD8 JUMP JUMPDEST DUP4 ADD DUP3 PUSH2 0x4BBF JUMP JUMPDEST POP POP JUMPDEST POP POP POP JUMP JUMPDEST PUSH1 0x0 DUP3 DUP3 SHR SWAP1 POP SWAP3 SWAP2 POP POP JUMP JUMPDEST PUSH1 0x0 PUSH2 0x4C46 PUSH1 0x0 NOT DUP5 PUSH1 0x8 MUL PUSH2 0x4C28 JUMP JUMPDEST NOT DUP1 DUP4 AND SWAP2 POP POP SWAP3 SWAP2 POP POP JUMP JUMPDEST PUSH1 0x0 PUSH2 0x4C5F DUP4 DUP4 PUSH2 0x4C35 JUMP JUMPDEST SWAP2 POP DUP3 PUSH1 0x2 MUL DUP3 OR SWAP1 POP SWAP3 SWAP2 POP POP JUMP JUMPDEST PUSH2 0x4C78 DUP3 PUSH2 0x3D50 JUMP JUMPDEST PUSH8 0xFFFFFFFFFFFFFFFF DUP2 GT ISZERO PUSH2 0x4C91 JUMPI PUSH2 0x4C90 PUSH2 0x3BDC JUMP JUMPDEST JUMPDEST PUSH2 0x4C9B DUP3 SLOAD PUSH2 0x49C2 JUMP JUMPDEST PUSH2 0x4CA6 DUP3 DUP3 DUP6 PUSH2 0x4BE2 JUMP JUMPDEST PUSH1 0x0 PUSH1 0x20 SWAP1 POP PUSH1 0x1F DUP4 GT PUSH1 0x1 DUP2 EQ PUSH2 0x4CD9 JUMPI PUSH1 0x0 DUP5 ISZERO PUSH2 0x4CC7 JUMPI DUP3 DUP8 ADD MLOAD SWAP1 POP JUMPDEST PUSH2 0x4CD1 DUP6 DUP3 PUSH2 0x4C53 JUMP JUMPDEST DUP7 SSTORE POP PUSH2 0x4D39 JUMP JUMPDEST PUSH1 0x1F NOT DUP5 AND PUSH2 0x4CE7 DUP7 PUSH2 0x4AC3 JUMP JUMPDEST PUSH1 0x0 JUMPDEST DUP3 DUP2 LT ISZERO PUSH2 0x4D0F JUMPI DUP5 DUP10 ADD MLOAD DUP3 SSTORE PUSH1 0x1 DUP3 ADD SWAP2 POP PUSH1 0x20 DUP6 ADD SWAP5 POP PUSH1 0x20 DUP2 ADD SWAP1 POP PUSH2 0x4CEA JUMP JUMPDEST DUP7 DUP4 LT ISZERO PUSH2 0x4D2C JUMPI DUP5 DUP10 ADD MLOAD PUSH2 0x4D28 PUSH1 0x1F DUP10 AND DUP3 PUSH2 0x4C35 JUMP JUMPDEST DUP4 SSTORE POP JUMPDEST PUSH1 0x1 PUSH1 0x2 DUP9 MUL ADD DUP9 SSTORE POP POP POP JUMPDEST POP POP POP POP POP POP JUMP JUMPDEST PUSH1 0x0 DUP2 SLOAD PUSH2 0x4D4E DUP2 PUSH2 0x49C2 JUMP JUMPDEST PUSH2 0x4D58 DUP2 DUP7 PUSH2 0x4A46 JUMP JUMPDEST SWAP5 POP PUSH1 0x1 DUP3 AND PUSH1 0x0 DUP2 EQ PUSH2 0x4D73 JUMPI PUSH1 0x1 DUP2 EQ PUSH2 0x4D89 JUMPI PUSH2 0x4DBC JUMP JUMPDEST PUSH1 0xFF NOT DUP4 AND DUP7 MSTORE DUP2 ISZERO ISZERO PUSH1 0x20 MUL DUP7 ADD SWAP4 POP PUSH2 0x4DBC JUMP JUMPDEST PUSH2 0x4D92 DUP6 PUSH2 0x4AC3 JUMP JUMPDEST PUSH1 0x0 JUMPDEST DUP4 DUP2 LT ISZERO PUSH2 0x4DB4 JUMPI DUP2 SLOAD DUP2 DUP10 ADD MSTORE PUSH1 0x1 DUP3 ADD SWAP2 POP PUSH1 0x20 DUP2 ADD SWAP1 POP PUSH2 0x4D95 JUMP JUMPDEST DUP1 DUP9 ADD SWAP6 POP POP POP JUMPDEST POP POP POP SWAP3 SWAP2 POP POP JUMP JUMPDEST PUSH1 0x0 PUSH2 0x120 DUP3 ADD SWAP1 POP DUP2 DUP2 SUB PUSH1 0x0 DUP4 ADD MSTORE PUSH2 0x4DE0 DUP2 DUP13 PUSH2 0x4D41 JUMP JUMPDEST SWAP1 POP DUP2 DUP2 SUB PUSH1 0x20 DUP4 ADD MSTORE PUSH2 0x4DF4 DUP2 DUP12 PUSH2 0x4D41 JUMP JUMPDEST SWAP1 POP DUP2 DUP2 SUB PUSH1 0x40 DUP4 ADD MSTORE PUSH2 0x4E08 DUP2 DUP11 PUSH2 0x4D41 JUMP JUMPDEST SWAP1 POP DUP2 DUP2 SUB PUSH1 0x60 DUP4 ADD MSTORE PUSH2 0x4E1C DUP2 DUP10 PUSH2 0x4D41 JUMP JUMPDEST SWAP1 POP DUP2 DUP2 SUB PUSH1 0x80 DUP4 ADD MSTORE PUSH2 0x4E30 DUP2 DUP9 PUSH2 0x4D41 JUMP JUMPDEST SWAP1 POP DUP2 DUP2 SUB PUSH1 0xA0 DUP4 ADD MSTORE PUSH2 0x4E44 DUP2 DUP8 PUSH2 0x4D41 JUMP JUMPDEST SWAP1 POP DUP2 DUP2 SUB PUSH1 0xC0 DUP4 ADD MSTORE PUSH2 0x4E58 DUP2 DUP7 PUSH2 0x4D41 JUMP JUMPDEST SWAP1 POP DUP2 DUP2 SUB PUSH1 0xE0 DUP4 ADD MSTORE PUSH2 0x4E6C DUP2 DUP6 PUSH2 0x4D41 JUMP JUMPDEST SWAP1 POP DUP2 DUP2 SUB PUSH2 0x100 DUP4 ADD MSTORE PUSH2 0x4E81 DUP2 DUP5 PUSH2 0x4D41 JUMP JUMPDEST SWAP1 POP SWAP11 SWAP10 POP POP POP POP POP POP POP POP POP POP JUMP JUMPDEST PUSH32 0x50617469656E74206E6F7420616C6C6F77656421000000000000000000000000 PUSH1 0x0 DUP3 ADD MSTORE POP JUMP JUMPDEST PUSH1 0x0 PUSH2 0x4EC7 PUSH1 0x14 DUP4 PUSH2 0x4A46 JUMP JUMPDEST SWAP2 POP PUSH2 0x4ED2 DUP3 PUSH2 0x4E91 JUMP JUMPDEST PUSH1 0x20 DUP3 ADD SWAP1 POP SWAP2 SWAP1 POP JUMP JUMPDEST PUSH1 0x0 PUSH1 0x20 DUP3 ADD SWAP1 POP DUP2 DUP2 SUB PUSH1 0x0 DUP4 ADD MSTORE PUSH2 0x4EF6 DUP2 PUSH2 0x4EBA JUMP JUMPDEST SWAP1 POP SWAP2 SWAP1 POP JUMP JUMPDEST PUSH32 0x50687973696369616E206E6F7420616C6C6F7765642100000000000000000000 PUSH1 0x0 DUP3 ADD MSTORE POP JUMP JUMPDEST PUSH1 0x0 PUSH2 0x4F33 PUSH1 0x16 DUP4 PUSH2 0x4A46 JUMP JUMPDEST SWAP2 POP PUSH2 0x4F3E DUP3 PUSH2 0x4EFD JUMP JUMPDEST PUSH1 0x20 DUP3 ADD SWAP1 POP SWAP2 SWAP1 POP JUMP JUMPDEST PUSH1 0x0 PUSH1 0x20 DUP3 ADD SWAP1 POP DUP2 DUP2 SUB PUSH1 0x0 DUP4 ADD MSTORE PUSH2 0x4F62 DUP2 PUSH2 0x4F26 JUMP JUMPDEST SWAP1 POP SWAP2 SWAP1 POP JUMP JUMPDEST PUSH2 0x4F72 DUP2 PUSH2 0x3DCF JUMP JUMPDEST DUP3 MSTORE POP POP JUMP JUMPDEST PUSH1 0x0 PUSH1 0xC0 DUP3 ADD SWAP1 POP DUP2 DUP2 SUB PUSH1 0x0 DUP4 ADD MSTORE PUSH2 0x4F92 DUP2 DUP10 PUSH2 0x4D41 JUMP JUMPDEST SWAP1 POP DUP2 DUP2 SUB PUSH1 0x20 DUP4 ADD MSTORE PUSH2 0x4FA6 DUP2 DUP9 PUSH2 0x4D41 JUMP JUMPDEST SWAP1 POP DUP2 DUP2 SUB PUSH1 0x40 DUP4 ADD MSTORE PUSH2 0x4FBA DUP2 DUP8 PUSH2 0x4D41 JUMP JUMPDEST SWAP1 POP DUP2 DUP2 SUB PUSH1 0x60 DUP4 ADD MSTORE PUSH2 0x4FCE DUP2 DUP7 PUSH2 0x4D41 JUMP JUMPDEST SWAP1 POP DUP2 DUP2 SUB PUSH1 0x80 DUP4 ADD MSTORE PUSH2 0x4FE2 DUP2 DUP6 PUSH2 0x4D41 JUMP JUMPDEST SWAP1 POP PUSH2 0x4FF1 PUSH1 0xA0 DUP4 ADD DUP5 PUSH2 0x4F69 JUMP JUMPDEST SWAP8 SWAP7 POP POP POP POP POP POP POP JUMP JUMPDEST PUSH32 0x50687973696369616E206973206E6F7420617574686F72697365642062792070 PUSH1 0x0 DUP3 ADD MSTORE PUSH32 0x617469656E740000000000000000000000000000000000000000000000000000 PUSH1 0x20 DUP3 ADD MSTORE POP JUMP JUMPDEST PUSH1 0x0 PUSH2 0x5058 PUSH1 0x26 DUP4 PUSH2 0x4A46 JUMP JUMPDEST SWAP2 POP PUSH2 0x5063 DUP3 PUSH2 0x4FFC JUMP JUMPDEST PUSH1 0x40 DUP3 ADD SWAP1 POP SWAP2 SWAP1 POP JUMP JUMPDEST PUSH1 0x0 PUSH1 0x20 DUP3 ADD SWAP1 POP DUP2 DUP2 SUB PUSH1 0x0 DUP4 ADD MSTORE PUSH2 0x5087 DUP2 PUSH2 0x504B JUMP JUMPDEST SWAP1 POP SWAP2 SWAP1 POP JUMP JUMPDEST PUSH32 0x4E487B7100000000000000000000000000000000000000000000000000000000 PUSH1 0x0 MSTORE PUSH1 0x11 PUSH1 0x4 MSTORE PUSH1 0x24 PUSH1 0x0 REVERT JUMPDEST PUSH1 0x0 PUSH2 0x50C8 DUP3 PUSH2 0x3DCF JUMP JUMPDEST SWAP2 POP PUSH2 0x50D3 DUP4 PUSH2 0x3DCF JUMP JUMPDEST SWAP3 POP DUP3 DUP3 ADD SWAP1 POP DUP1 DUP3 GT ISZERO PUSH2 0x50EB JUMPI PUSH2 0x50EA PUSH2 0x508E JUMP JUMPDEST JUMPDEST SWAP3 SWAP2 POP POP JUMP JUMPDEST PUSH1 0x0 PUSH2 0x50FC DUP3 PUSH2 0x3D50 JUMP JUMPDEST PUSH2 0x5106 DUP2 DUP6 PUSH2 0x4A46 JUMP JUMPDEST SWAP4 POP PUSH2 0x5116 DUP2 DUP6 PUSH1 0x20 DUP7 ADD PUSH2 0x3D6C JUMP JUMPDEST PUSH2 0x511F DUP2 PUSH2 0x3BCB JUMP JUMPDEST DUP5 ADD SWAP2 POP POP SWAP3 SWAP2 POP POP JUMP JUMPDEST PUSH1 0x0 PUSH1 0x80 DUP3 ADD SWAP1 POP PUSH2 0x513F PUSH1 0x0 DUP4 ADD DUP8 PUSH2 0x4F69 JUMP JUMPDEST DUP2 DUP2 SUB PUSH1 0x20 DUP4 ADD MSTORE PUSH2 0x5151 DUP2 DUP7 PUSH2 0x50F1 JUMP JUMPDEST SWAP1 POP DUP2 DUP2 SUB PUSH1 0x40 DUP4 ADD MSTORE PUSH2 0x5165 DUP2 DUP6 PUSH2 0x50F1 JUMP JUMPDEST SWAP1 POP DUP2 DUP2 SUB PUSH1 0x60 DUP4 ADD MSTORE PUSH2 0x5179 DUP2 DUP5 PUSH2 0x50F1 JUMP JUMPDEST SWAP1 POP SWAP6 SWAP5 POP POP POP POP POP JUMP JUMPDEST PUSH32 0x4E487B7100000000000000000000000000000000000000000000000000000000 PUSH1 0x0 MSTORE PUSH1 0x32 PUSH1 0x4 MSTORE PUSH1 0x24 PUSH1 0x0 REVERT JUMPDEST PUSH32 0x4E6F2061737369676E65642070687973696369616E20666F756E642100000000 PUSH1 0x0 DUP3 ADD MSTORE POP JUMP JUMPDEST PUSH1 0x0 PUSH2 0x51E9 PUSH1 0x1C DUP4 PUSH2 0x4A46 JUMP JUMPDEST SWAP2 POP PUSH2 0x51F4 DUP3 PUSH2 0x51B3 JUMP JUMPDEST PUSH1 0x20 DUP3 ADD SWAP1 POP SWAP2 SWAP1 POP JUMP JUMPDEST PUSH1 0x0 PUSH1 0x20 DUP3 ADD SWAP1 POP DUP2 DUP2 SUB PUSH1 0x0 DUP4 ADD MSTORE PUSH2 0x5218 DUP2 PUSH2 0x51DC JUMP JUMPDEST SWAP1 POP SWAP2 SWAP1 POP JUMP JUMPDEST PUSH1 0x0 PUSH2 0x522A DUP3 PUSH2 0x3DCF JUMP JUMPDEST SWAP2 POP PUSH2 0x5235 DUP4 PUSH2 0x3DCF JUMP JUMPDEST SWAP3 POP DUP3 DUP3 SUB SWAP1 POP DUP2 DUP2 GT ISZERO PUSH2 0x524D JUMPI PUSH2 0x524C PUSH2 0x508E JUMP JUMPDEST JUMPDEST SWAP3 SWAP2 POP POP JUMP JUMPDEST PUSH1 0x0 DUP2 SLOAD SWAP1 POP PUSH2 0x5262 DUP2 PUSH2 0x49C2 JUMP JUMPDEST SWAP1 POP SWAP2 SWAP1 POP JUMP JUMPDEST PUSH1 0x0 DUP2 SWAP1 POP DUP2 PUSH1 0x0 MSTORE PUSH1 0x20 PUSH1 0x0 KECCAK256 SWAP1 POP SWAP2 SWAP1 POP JUMP JUMPDEST DUP2 DUP2 SUB PUSH2 0x528C JUMPI POP POP PUSH2 0x5364 JUMP JUMPDEST PUSH2 0x5295 DUP3 PUSH2 0x5253 JUMP JUMPDEST PUSH8 0xFFFFFFFFFFFFFFFF DUP2 GT ISZERO PUSH2 0x52AE JUMPI PUSH2 0x52AD PUSH2 0x3BDC JUMP JUMPDEST JUMPDEST PUSH2 0x52B8 DUP3 SLOAD PUSH2 0x49C2 JUMP JUMPDEST PUSH2 0x52C3 DUP3 DUP3 DUP6 PUSH2 0x4BE2 JUMP JUMPDEST PUSH1 0x0 PUSH1 0x1F DUP4 GT PUSH1 0x1 DUP2 EQ PUSH2 0x52F2 JUMPI PUSH1 0x0 DUP5 ISZERO PUSH2 0x52E0 JUMPI DUP3 DUP8 ADD SLOAD SWAP1 POP JUMPDEST PUSH2 0x52EA DUP6 DUP3 PUSH2 0x4C53 JUMP JUMPDEST DUP7 SSTORE POP PUSH2 0x535D JUMP JUMPDEST PUSH1 0x1F NOT DUP5 AND PUSH2 0x5300 DUP8 PUSH2 0x5269 JUMP JUMPDEST SWAP7 POP PUSH2 0x530B DUP7 PUSH2 0x4AC3 JUMP JUMPDEST PUSH1 0x0 JUMPDEST DUP3 DUP2 LT ISZERO PUSH2 0x5333 JUMPI DUP5 DUP10 ADD SLOAD DUP3 SSTORE PUSH1 0x1 DUP3 ADD SWAP2 POP PUSH1 0x1 DUP6 ADD SWAP5 POP PUSH1 0x20 DUP2 ADD SWAP1 POP PUSH2 0x530E JUMP JUMPDEST DUP7 DUP4 LT ISZERO PUSH2 0x5350 JUMPI DUP5 DUP10 ADD SLOAD PUSH2 0x534C PUSH1 0x1F DUP10 AND DUP3 PUSH2 0x4C35 JUMP JUMPDEST DUP4 SSTORE POP JUMPDEST PUSH1 0x1 PUSH1 0x2 DUP9 MUL ADD DUP9 SSTORE POP POP POP JUMPDEST POP POP POP POP POP POP JUMPDEST JUMP JUMPDEST PUSH32 0x4E487B7100000000000000000000000000000000000000000000000000000000 PUSH1 0x0 MSTORE PUSH1 0x31 PUSH1 0x4 MSTORE PUSH1 0x24 PUSH1 0x0 REVERT INVALID LOG2 PUSH5 0x6970667358 0x22 SLT KECCAK256 EXP SWAP9 EXTCODEHASH EXTCODESIZE 0xBB SLT CALLER 0xF8 PUSH1 0x2B PUSH19 0x126C0F7A9B2C95B46FC21FC0087A78E39473BE ADD SWAP4 PUSH5 0x736F6C6343 STOP ADDMOD XOR STOP CALLER "},"methodIdentifiers":{"addMedicalRecords(string,(uint256,uint256,string,string,string))":"ae4bcba2","addPatient(string,(string,string,string,string,string,string,string,string,string))":"1a0e9608","addPhysician(string,string,string,string,string,string)":"88650fe0","doesUserExist(address)":"ecb41054","getContractOwner()":"442890d5","getPatient(string)":"e79a7a2e","getPatientAuthorisedPhysician()":"dd098422","getPatientByAddress(address)":"ba5c0335","getPatientRecords(string)":"5cd40af5","getPatientsAssignedToPhysician()":"c4525386","getPhysician(string)":"0a76c7b8","getPhysicianByAddress(address)":"f1729092","getUserRole(string)":"357e129e","setPatientAuthorisedPhysician(string,string)":"2fced321","unsetPatientAuthorisedPhysician()":"0a9a3828"}}}}}